:020000040800F2
:100000007872012045030008A17F00083D6F0008B9
:10001000A17D0008FB2B0008C5B800080000000007
:100020000000000000000000000000008502000841
:10003000912F000800000000E102000889980008E4
:100040005F0300085F0300085F0300085F03000808
:100050005F0300085F0300085F0300085F030008F8
:100060005F0300085F0300085F030008712D0008AC
:100070005F0300085F0300087D2D00085F03000890
:100080005F0300085F030008E91B00085F03000826
:100090005F0300085F0300085F0300085F030008B8
:1000A0005F0300085D9900084D9900085F03000890
:1000B0005F0300086D990008799900085F03000844
:1000C0005F0300085F0300085F0300085F03000888
:1000D0005F0300085F0300085F0300085F03000878
:1000E0005F0300085F0300085F0300085F03000868
:1000F0005F0300085F0300085F0300085F03000858
:100100005F0300085F0300085F0300085F03000847
:100110005F0300085F0300085F030008C19900083F
:10012000892D00085F0300085F0300085F030008D3
:100130005F03000800000000000000005F030008EB
:100140005F0300085F0300085F030008D980000810
:100150005F0300085F0300085F0300085F030008F7
:100160005F0300085F0300085F0300085F030008E7
:100170005F0300085F0300080000000000000000AB
:100180005F0300085F03000800F002F800F06AF85F
:100190000AA090E8000C82448344AAF10107DA45E2
:1001A00001D100F05FF8AFF2090EBAE80F0013F0CA
:1001B000010F18BFFB1A43F001031847D0F00000ED
:1001C000F0F000000A444FF0000C10F8013B13F06F
:1001D000070408BF10F8014B1D1108BF10F8015BA0
:1001E000641E05D010F8016B641E01F8016BF9D193
:1001F00013F0080F1EBF10F8014BAD1C0C1B09D1EA
:100200006D1E58BF01F801CBFAD505E014F8016B5B
:1002100001F8016B6D1EF9D59142D6D370470000ED
:100220000023002400250026103A28BF78C1FBD8FF
:10023000520728BF30C148BF0B6070471FB50EF092
:10024000CFFD00F0DBFD0400002000210EF068FA75
:10025000401C6060002000210EF04CFAE0601FBDE1
:1002600010B510BD00F0D6FA1146FFF7E7FF0CF00D
:1002700075FD00F079FD03B4FFF7F2FF03BC00F059
:1002800033FE00002C4B19680868B0E8F04F80F38B
:100290000988BFF36F8F4FF0000080F3118870471B
:1002A0000000000008480068006880F308884FF0EC
:1002B000000080F3148862B661B6BFF34F8FBFF3BE
:1002C0006F8F00DF00BF00BF08ED00E0DFF80C001B
:1002D000016841F470010160704700BF88ED00E0E3
:1002E000EFF30980BFF36F8F134B1A681EF0100FE6
:1002F00008BF20ED108A20E9F04F106009B44FF0DC
:10030000500080F31188BFF34F8FBFF36F8F0DF054
:10031000C3FC4FF0000080F3118809BC196808681D
:10032000B0E8F04F1EF0100F08BFB0EC108A80F359
:100330000988BFF36F8F7047C8000020EFF3058076
:10034000704700000948804709480047FEE7FEE77C
:10035000FEE7FEE7FEE7FEE7FEE7FEE7FEE7FEE775
:1003600004480549054A064B704700003D990008BE
:1003700089010008787200207872012078F200204C
:1003800078F2002053EA020C00F069802DE9F04B6E
:100390004FF00006002B1FBFB3FA83F503FA05F4F4
:1003A00024FA05F65E4012BF1643B2FA82F502FA4D
:1003B00005F4C5F120051EBF22FA05FC44EA0C0431
:1003C000203556EA044C4FEA144418BF641C4FF021
:1003D00000084FF00009904271EB030C39D300295B
:1003E00019BFB1FA81F701FA07F6B0FA80F700FAFF
:1003F00007F6C7F120071EBF20FA07FC46EA0C06E5
:100400002037B6FBF4FCA7EB0507103F07F01F0BE6
:10041000CBF120060CFA0BFB2CFA06F644BFB346D0
:100420000026202FA4BF5E464FF0000B5BEA060CAF
:1004300008BF4FF0010B19EB0B09ABFB027C48EB3B
:100440000608C01B06FB02CC0BFB03CC71EB0C01B6
:10045000C1E70B46024641464846BDE8F08B13B55E
:100460004FF000004FF00001AFF30080BDE81C40EA
:10047000704740EA010310B59B070FD1042A0DD342
:1004800010C808C9121F9C42F8D020BA19BA884275
:1004900001D9012010BD4FF0FF3010BD1AB1D307B4
:1004A00003D0521C07E0002010BD10F8013B11F8EA
:1004B000014B1B1B07D110F8013B11F8014B1B1B13
:1004C00001D1921EF1D1184610BD40EA010370B56A
:1004D0009B072ED14FF00136042A2AD308C810C931
:1004E0009D1B9D43121F15EAC61517D0D8B2E1B265
:1004F000401A50EA056110D198B2A1B2401A50EAF0
:1005000005410AD123F07F4024F07F41401A50EA90
:10051000052102D1180EA0EB146070BDA342DBD000
:1005200018BA21BA884201D9012070BD4FF0FF30BE
:1005300070BD0AB9002070BD10F8013B11F8014BE5
:1005400063B1A3420AD1521E08D010F8013B11F842
:10055000014B1BB1A34201D1521EEDD1181B70BD3E
:10056000032A40F2308010F0030C00F0158011F8DF
:10057000013BBCF1020F624498BF11F801CB00F8B7
:10058000013B38BF11F8013BA2F1040298BF00F80B
:1005900001CB38BF00F8013B11F0030300F02580C8
:1005A000083AC0F0088051F8043B083A51F804CBEF
:1005B000A0E80810F5E7121D5CBF51F8043B40F8B5
:1005C000043BAFF30080D20724BF11F8013B11F8C0
:1005D00001CB48BF11F8012B24BF00F8013B00F804
:1005E00001CB48BF00F8012B704710B5203AC0F08E
:1005F0000B80B1E81850203AA0E81850B1E8185024
:10060000A0E81850BFF4F5AF5FEA027C24BFB1E860
:100610001850A0E8185044BF18C918C0BDE81040D1
:100620005FEA827C24BF51F8043B40F8043B08BFDA
:100630007047D20728BF31F8023B48BF11F8012BA1
:1006400028BF20F8023B48BF00F8012B704702F09A
:10065000FF0343EA032242EA024200F089B84FF066
:10066000000200B5134694469646203922BFA0E802
:100670000C50A0E80C50B1F12001BFF4F7AF09070E
:1006800028BFA0E80C5048BF0CC05DF804EB8900FF
:1006900028BF40F8042B08BF704748BF20F8022B42
:1006A00011F0804F18BF00F8012B7047704770475A
:1006B000704710B500F07CF8006810BD10B5044616
:1006C00000F076F8046010BD0FB4002300B589B0C7
:1006D0000CA900910B99CB60214B7B440693214BD5
:1006E0007B44079304236FF00042CDE901321E4A98
:1006F0007A446B460892024600200EF059FC09B07D
:100700005DF814FB70B506464FF0FF3015460C46F9
:10071000324686B00091CDE901016946002004907F
:1007200004A8FFF7D1FF02460498211825B108B1AB
:10073000084600E020462860049800280DD0002AD2
:1007400002DD0098884208D03246081B69460094B2
:10075000CDE9010404A8FFF7B7FF06B070BD0000A3
:10076000ED00000005010000C50000004FF0000290
:100770000429C0F0128010F0030C3FF472AFCCF1EA
:10078000040CBCF1020F18BF00F8012BA8BF20F821
:10079000022BA1EB0C01FFF764BF5FEAC17C24BF11
:1007A00000F8012B00F8012B48BF00F8012B70471F
:1007B000004870471872002010B5044600F050F849
:1007C0000068005D00F0010010BD426842B10168A0
:1007D00011F8013B23B1521EC0E9001218467047C0
:1007E0000121C160881E704742685AB1C368016820
:1007F00043B983688B4205D0491E521CC0E90012E0
:10080000002070474FF0FF307047000000487047ED
:10081000187200207546FFF7F9FFAE4605006946DD
:10082000534620F00700854618B020B5FFF798FD25
:10083000BDE820404FF000064FF000074FF00008E1
:100840004FF0000B21F00701AC46ACE8C009ACE862
:10085000C009ACE8C009ACE8C0098D46704700008B
:1008600010B500F0CBFA001D10BD00BFB5DE0000D2
:100870002DE9FF4F06468BB00878FF2806D0491CAB
:100880002D2805D000244FF0000908E000200CE0DE
:100890000124F8E709EB8903491C00EB43090878B8
:1008A000FF28F7D114B1C9F1000081461078002566
:1008B0002C46AA4629462D2801D02B2804D1521CAB
:1008C0002D2813D0002082468B461078FF280FD0A9
:1008D0004FF0000C0A21521CA5FB017804FB01819A
:1008E00005FB0C11C5194BEB0104EEE70120EAE70B
:1008F000002108464FF00000BAF1000F02D000EBD3
:1009000080004008C0F38157012F01DD4FF0FF3711
:100910000E9955EA040009EB01080BD04FF00209CB
:1009200018F5FA7F16DA4FEACA70002F706008DDFA
:10093000012007E04FEACA70C6E900B00FB0BDE879
:10094000F08F00203060FFF733FFC0F800901821CF
:10095000084616E0B8F5FA7F18DD002F02DAF748EE
:10096000784401E0F6487844D0E90010C6E9001068
:1009700040EACA707060FFF71BFFC0F800901421B6
:1009800008460FB0BDE8F04F0EF0AFBA00210846A0
:100990004FF00000B8F10001099002DAC7F100023F
:1009A00000E03A4601DAC8F1000106A800F02AFA90
:1009B00006AB93E8070003AB83E8070044F23E0070
:1009C0005BEA04010090584604D144F21E012C4613
:1009D0005D460091210C0904014306D100992404CD
:1009E00044EA15442D041039009104F07F4101437D
:1009F00006D10099240244EA15642D0208390091B9
:100A000004F07041014306D10099240144EA1574B1
:100A10002D01091F009104F04041014306D10099C6
:100A2000A40044EA9574AD00891E009104F00041D1
:100A3000084304D100986D196441401E00904FF0A6
:100A400001033A466846B8F1000FCDE9014503A914
:100A500002DD00F026FF01E000F0F9FEBAF1000F20
:100A600004460D4601D084F00044002108464FF0B2
:100A70000000099940F2FF77484010F00C0F07D1B1
:100A800024F00040284303D0C4F30A50B84212D1E6
:100A9000FFF78EFEC0F80090C4F30A50B8420AD1A6
:100AA000A8487844D0E90010C6E9001004F00041DD
:100AB0000843706042E7C6E900543FE72DE9FF4F65
:100AC0001F464FF0000A4FF0FF38454691B0D7E976
:100AD0000146CDF83CA000F091F9C0680168405C87
:100AE0001090B96912986D1C8847396A8146884709
:100AF0000028F6D1B9F1FF3F0AD0002E24F4D064CB
:100B000011DDB9F12B0F08D0B9F12D0F0BD102E097
:100B1000404615B013E744F48064B96912986D1C1F
:100B20008847761E8146600504A901D52D2000E086
:100B30002B20002E01F1010B0DF130088DF8100073
:100B40003FDDB9F1690F08D0B9F1490F05D0B9F10E
:100B50006E0F02D0B9F14E0F1CD13B4601A8009593
:100B600080E85002DDE912126FF002000EF024FA64
:100B7000C11CCED10EE0B96912986D1C8847814620
:100B80001398761E44F4007405600F98401C002EE4
:100B90000F9016DDB9F1300FEDD0B9F1780F02D01A
:100BA000B9F1580F0DD10F9801280AD13B46CDE974
:100BB0000054DDE91212001F02960EF0FBF9C11C71
:100BC000A7D1109989453ED144F0800406E01399DD
:100BD000681CAAF1010A44F400740860B9696D1C2C
:100BE0001298761E884730288146F0D02BE0109965
:100BF000894505D1200603D4761E44F0800418E010
:100C000048460CF05DF808B3761E0DF123018B45C4
:100C100044F4007408D2A9F130000BF8010B20064F
:100C200007D5AAF1010003E0200602D40AF1010071
:100C30008246A00502D51399681C0860B96912980C
:100C40006D1C88478146002ED1DC53E0002E51DD1B
:100C5000B9F1650F02D0B9F1450F4BD1A00549D5C7
:100C6000B9696D1C1298761E24F440748847002ED2
:100C700081460CDD2B2804D0B9F12D0F07D144F4A7
:100C80008074B96912986D1C8847761E8146E0050C
:100C900001D52D2100E02B2108F8011BCDF80080A3
:100CA00021E0761E0DF13901884544F400740CD220
:100CB000A9F1300010F0FF0088F8000002D100997F
:100CC000884509D908F1010806E0E00501D51E486C
:100CD00001E042F20F708246B96912986D1C884794
:100CE000814613980560002E04DD48460BF0E8FFAE
:100CF0000028D6D1F96912988847FF2053468BF80F
:100D0000000088F8000000200A900B9004AA0CA9AB
:100D10000AA8FFF7ADFDA00502D46FF00100F8E6C8
:100D200014F0240F12D0E0071CD13868DDE90A1254
:100D3000031D3B600068C0E9001213E050E90000A9
:100D400042E9000006E80000F1D8FFFF0AA9684662
:100D50000BF0F8FEE00705D13868009A011D3960F4
:100D6000006802602846D4E610B50446AFF3008060
:100D70002046BDE81040FFF77EBA00004FF0013C6E
:100D800050F8042B51F8043B9A4221D1A2EB0C03FA
:100D9000934313EACC1317D150F8042B51F8043BBA
:100DA0009A4215D1A2EB0C03934313EACC130BD157
:100DB00050F8042B51F8043B9A4209D1A2EB0C03E2
:100DC000934313EACC13DBD04FF00000704700BF11
:100DD000D01A01BAB1FA81F101F0180122FA01F03A
:100DE000CB40C1F12001DBB2C0B2C01A2CFA01F332
:100DF000D11A914311EAC311E6D1704700487047F8
:100E0000387200202DE9F047814616468AB03548F1
:100E100078440DC88DE80D0032487844801C03AC3E
:100E20000DC884E80D0041F69B300844372190FB43
:100E3000F1F290FBF1F5A5F1800501FB12041B3CDA
:100E400002D56442012000E00020DFF898A080462F
:100E50000027FA44AAF1BE0A0EE0E0070AD03246A3
:100E6000684607EB470101230AEB810100F004FD0E
:100E70008DE8070064107F1C002CEED1194F7F44D1
:100E8000AE3F19E0E80715D007EB04100DF1180A82
:100E900090E80E008AE80E00C068F04201D198196F
:100EA00008903246012306A903A800F0E5FC03AB35
:100EB00083E807006D10641C002DE3D14FF001039F
:100EC00032466946B8F1000F03A802D000F0AAFC30
:100ED00001E000F0D1FCC9E90001C9F808200AB01E
:100EE000BDE8F08730E4000001491820ABBEFEE702
:100EF000260002002DE9FF4F1F464FF03C0987B046
:100F00004FF00042DDE9141001F10108DDF858A0AE
:100F100002EA4050039000200590834605460446AF
:100F20000490B969461E08988847AAF1010A029000
:100F3000BAF1000F3BDD02982E2815D0102100F0E9
:100F400017FA00282EDB4FF0010B0599014317D04B
:100F5000B9F1000F0BDB4A46C11700F0F6F9054363
:100F60000C43A9F1040905E0012004900BE008B14D
:100F700045F0010501200590049820B9361D02E0D6
:100F8000049800B1361FB969089808F1010888472C
:100F9000BBF1000FAAF1010A0290C9D00999C1F86A
:100FA0000080C5E70298702808D0502806D0F9695B
:100FB00008988847BBF1000F14D04FE00020029042
:100FC0000120BBF1000F049009D0B969089808F11D
:100FD00001088847AAF10109B9F1000F07DCF96996
:100FE000089888476FF001000BB0BDE8F08F2B2800
:100FF00004D02D280CD14FF0FF300490B969089827
:1010000008F101088847A9F10109B9F1000FE6DDEF
:10101000411CE4D00A2100F0ABF90028DFDB029983
:1010200008F1010801EB810100EB41000290B96970
:10103000089888470A2100F09BF9099AA9F101094B
:10104000B9F1000FC2F8008001DD0028E7DAF96984
:10105000089888470499029800FB016655EA040045
:1010600004D004F04041090002D006E0039898E063
:10107000A40044EA9574AD00B61E04F000410800D7
:1010800002D16D196441761E159810F0240F03D01B
:101090004FF00B095C4803E04FF028096FF07D002A
:1010A0008246564507DAAAEB06018944B9F1410F99
:1010B00001DD4FF0410901200021A9F1010200F0FA
:1010C00044F9024628400B462140084301D0012143
:1010D00000E00021501E029143F1FF3128402140E1
:1010E000084301D0012000E000200299834651EA24
:1010F0000B014FD0002108464FF00000039900F487
:10110000400039B100EB80004FF4400100EBD0709B
:1011100001EA60008015012802DD4FF0FF3000E099
:1011200013D0401C36D0029860B3BBF1000F0CD135
:101130004A460120002100F008F9284021400843D8
:1011400001D0012000E00020E0B101204A4600214A
:1011500000F0FBF8034640190A4661412D1A8C4104
:1011600011D3B9F1400F09DD159810F0240F02D00A
:10117000AAF1340603E0AAF1170600E0761C002568
:101180004FF0004406E05B1E42F1FF3220EA030507
:1011900021EA0204CAF10100B04206DA1B490398B1
:1011A00008430190002000900EE0039AC4F3D3217D
:1011B000E80A0A43164940EA44500A433146CDE959
:1011C000000268460BF072FD159810F0240F0BD04A
:1011D0001598C00715D13868DDE90012031D3B6082
:1011E0000068C0E900120CE002A869460BF0AAFCF6
:1011F0001598C00705D13868029A011D396000684A
:1012000002604046F0E6000002FCFFFF0000F07FB5
:101210000000F03F2DE9FF4F92461D4685B04FF08C
:101220000041DDE9124BDDE914727F1E01EA4B50EB
:10123000414940F0FF4940EA0108002122F0200026
:101240004928049102D04E2828D04CE03BA001262A
:1012500007C88DE80700A9690698641C88477F1EA7
:10126000014606D41DF8060018B121F02001814284
:101270000BD0E96906988847032E34D0082E32D067
:101280006FF0010009B0BDE8F08F761C032E01D08D
:10129000082EE0D1601CCAF80000DCE7A9690698B6
:1012A000641C88477F1E2AD420F02000412826D1C4
:1012B000A9690698641C88477F1E20D420F020006E
:1012C0004E281CD1A9690698641C88477F1E48F4E3
:1012D000002849F48009CAF8004001D4282806D023
:1012E000E969069888475FEACB7012D022E0A969C5
:1012F0000698641C88477F1E01D4002803DAE96938
:1013000006988847BCE72928F1D1641CCAF8004038
:10131000E9E71BF0240F07D028680499031D2B6010
:101320000068C0E9001805E02868021D2A6000680E
:10133000C0F800902046A5E70000F07F494E4649DE
:101340004E495459000000007047B2F120030AD5FD
:10135000C2F1200301FA02F120FA03F300FA02F0CD
:1013600041EA0301704700FA03F14FF000007047B3
:101370003A2800D2303820F02002412A01D3A2F1CD
:101380003700884201D34FF0FF30704720F07F4C88
:1013900080EA030023F07F47ACEB070303F57C539F
:1013A00000F0004003F1FF032DE980494FEA154B9F
:1013B00009B44FEA144325EA0B4E24EA03480FF21E
:1013C000042606EB132749083E785FEA320203FB46
:1013D0000667C7F5000707FB06F64FEA54374FEAE2
:1013E000D64606F1020607FB066CCCF1005C4FEA1C
:1013F0001C472CEA074C07FB06F40CFB06F504EB34
:1014000015464FEA961634BF00204FF000404FEAD1
:10141000D13706FB07FC4FEA1C4C0CFB0BF7D21B29
:1014200003FB0CF761EB07010CFB0EF7B0EB074079
:1014300072EB17420CFB08F734BFA2EB0742B2EB8A
:10144000074261EB17414FEA0C444FEA910706FB54
:1014500007FC4FEA1C4C0CFB0BF7B0EBC74072EBE0
:10146000573203FB0CF734BFA2EBC742B2EBC742C3
:1014700061EB57310CFB0EF7B0EBC70072EB577204
:101480000CFB08F734BFA2EBC702B2EBC70261EB5B
:101490005771039F4FEA816141EA921104EBCC043A
:1014A0004FEAD1374FEA826206FB07FC42EA90120C
:1014B0004FEA80604FEA1C4C0CFB0BF7D21B03FB7E
:1014C0000CF761EB07010CFB0EF7B0EB074072EB7A
:1014D00017420CFB08F734BFA2EB0742B2EB0742FE
:1014E00061EB17414FEA8C554FEA910704EB9C24BE
:1014F00006FB07FC4FEA1C4C0CFB0BF7B0EBC7409C
:1015000072EB573203FB0CF734BFA2EBC742B2EBCE
:10151000C74261EB57310CFB0EF7B0EBC70072EB23
:1015200057720CFB08F734BFA2EBC702B2EBC7023D
:1015300061EB577115EB4C254FEA816141EA92113D
:101540004FEA82624FEAD13742EA901206FB07FC6B
:1015500044F100044FEA80604FEA1C4C0CFB0BF78F
:10156000D21B03FB0CF761EB07010CFB0EF7B0EB92
:10157000074072EB17420CFB08F734BFA2EB07429F
:10158000B2EB074261EB174115EB1C154FEA8131B5
:1015900041EA92414FEA823242EA90424FEA803079
:1015A0004FEA0C7644F1000448EA03434EEA0B4844
:1015B0004FF0000EB2EB080C71EB030724BF62463C
:1015C00039464EEB0E0E4FF0000B001852414941C8
:1015D0004BEB0B0BB2EB080C71EB03077BF1000B31
:1015E00024BF624639464EEB0E0E4FF0000B00183A
:1015F000524149414BEB0B0BB2EB080C71EB03076B
:101600007BF1000B24BF624639464EEB0E0E51EAC9
:10161000020718BF46F0010616EB0E7655F10002E0
:1016200054F1000103D5BDE88901BDE80088BDE89B
:101630008901BDE80048B619524141EB0101A3F10F
:101640000103704780807F7E7D7C7B7A7978777616
:1016500076757473727171706F6E6E6D6C6C6B6A8F
:101660006A6968686766666564646363626161602D
:10167000605F5F5E5E5D5D5C5C5B5B5A5A595958AA
:101680005857575656555555545453535252525114
:10169000515050504F4F4F4E4E4D4D4D4C4C4C4B6A
:1016A0004B4B4A4A4A4949494848484747474746B1
:1016B00046464545454444444443434343424242ED
:1016C0004241414146EA0646A3F570534FEA1646A9
:1016D00046EA42564FEAD22242EA415210B54FEA58
:1016E000D121A3F1010300F02FF820F0004000F118
:1016F000020C00F0004701EB00501146BCF5006FF2
:1017000040EA070000D210BDBAF1000F0AD01CB5A4
:1017100003B44FF004004FF004014FF000000FBC81
:10172000BDE810404FF00001BBF1010FB9BF044804
:101730004FF0FF310348002140EA070010BD00BF11
:10174000FFFFEF7F0000F07F002B9C4630D4770036
:101750002BD01CB54FEA370703B44FF010004FF001
:101760001001BAF1000F06D0BCF1000FDCBF40F051
:10177000080040F008014FF000000FBCBDE8104029
:101780000BF1010BBBF1010F08BF5FEA170722BF86
:1017900012F1010211F101014FF0004143F1000388
:1017A00000F0004043EA00007047F9D35708D0E743
:1017B00046EA064613F1400F4FEA16461FDD13F1C5
:1017C000200FDFBF16430A46002120335B42BED004
:1017D000C3F1200746EA064602FA07F74FEA164623
:1017E00046EA0706C3F1200722FA03F201FA07F7D7
:1017F00021FA03F14FF0000342EA0702A7E746EAA5
:10180000020646EA06464FEA164646EA0106BCBF0D
:1018100046EA0646360C4FF000034FF000024FF048
:10182000000194E72DE9804C9A46934670B491E804
:10183000380007C831EA400C48BF34EA430C03D5EE
:10184000FFF7A4FDFFF780FFF0BCBDE8008C2DE999
:10185000804C9A46934670B491E8380007C831EA44
:10186000400C48BF34EA430C03D5FFF78FFDFFF768
:1018700029FFF0BCBDE8008C2DE9804C9A469346C8
:1018800070B491E8380007C810F0804F08BF13F01B
:10189000804F03D100F01AF8FFF756FFF0BCBDE807
:1018A000008C2DE9804C9A46934670B491E838003C
:1018B00007C810F0804F08BF13F0804F03D100F02D
:1018C00005F8FFF7FFFEF0BCBDE8008C20F07F4775
:1018D00080EA030023F07F4C07EB0C03A3F57C5355
:1018E00000F00040A3F1FE0392F0000F00F0B3807F
:1018F00095F0000F00F077802DE901494FEA114083
:101900004FEA144621EA004800FB06FC24EA064799
:1019100008FB06F607FB08F800FB07F718EB06487C
:101920004CEB164C4FEA124B18EB07484FEA1546A2
:101930004CEB174022EA0B4E0BFB06FC25EA064750
:101940000EFB06F607FB0EFE0BFB07F71EEB064E23
:101950004CEB164C4FF000061EEB074E4CEB174BB2
:1019600018EB0B0840F1000018EB0E0B58EB0008C9
:1019700040F100008F1A4FF000013CBFC943661BC5
:1019800014BFB5EB040C00213CBFC943F61B4FEA62
:1019900017444EEA8E0E27EA04454FEA1C4704FB23
:1019A00007622CEA074C05FB07F70CFB05F604FB66
:1019B0000CFC16EB074642EB174216EB0C4642EBCB
:1019C0001C421BEB060658EB0202414146EA9E060A
:1019D00001D5BDE80189B619524141EB0101A3F1DE
:1019E0000103BDE801894FEA14454FEA114724EA93
:1019F000054621EA074C05FB07F406FB07F70CFB3D
:101A000006F105FB0CFC11EB074144EB17444FEAD0
:101A1000124711EB0C4144EB1C4422EA074C05FB36
:101A200007F206FB07F70CFB06F605FB0CFC16EBB2
:101A3000074642EB174216EB0C4642EB1C456A1870
:101A400054F1000148BF7047B619524141EB010102
:101A5000A3F10103704795F0000F37D04FEA114210
:101A60004FEA144721EA024624EA074C02FB07F139
:101A700006FB07F70CFB06F402FB0CFC14EB074417
:101A800041EB17414FEA154714EB0C4441EB1C4165
:101A900025EA074C02FB07F506FB07F70CFB06F6E9
:101AA00002FB0CFC16EB074645EB174516EB0C4604
:101AB00045EB1C42121951F1000148BF7047B6199D
:101AC000524141EB0101A3F1010370474FEA144574
:101AD0004FEA114724EA054621EA074C05FB07F1C6
:101AE00006FB07F70CFB06F24FF0000605FB0CFCAB
:101AF00012EB074241EB174112EB0C4251EB1C4138
:101B000048BF7047921841EB0101A3F101037047F0
:101B100010B52DED028BF0EE608A06F0C7FAB0EE3C
:101B2000408AB0EE680A06F0C1FAF0EE400A0849B1
:101B300038EE600AB0EEC00A10EE100A884203DBED
:101B4000DFED040A30EEC00ABDEC028B10BD0000D0
:101B5000DB0F4940DB0FC94010B50146806B026CBA
:101B600012F0500F05D0026CD20626D502F06AFEA4
:101B700010BD016C41F40071016401688A6812F0C3
:101B8000405F17D1027EAAB9CA6A12F4700F02D060
:101B90008A6852050ED44A6822F020024A60016C1D
:101BA00021F480710164016CC90403D4016C41F01B
:101BB0000101016402F044FE10BD806BC26CBDE8FF
:101BC00010400846104710B5806B40210164416CFD
:101BD00041F00401416402F035FE10BD10B5806B88
:101BE00002F02FFE10BD00002DE9F041824C606A2A
:101BF000824D80B228802168C90603D5E16AC0EB16
:101C0000410028807E4E012030607E480021016026
:101C1000C0F80011C0F80012C16B00EE101A7A492A
:101C2000B8EE403A81ED003AD0F83C2100EE102A9F
:101C3000B8EE401A81ED011AD0F83C2200EE102ACD
:101C4000F8EE400AC1ED020A026C436C1A44836C40
:101C500013440322B3FBF2F300EE103AF8EE402AED
:101C6000C1ED032AD0F84031D0F844713B44D0F89C
:101C700048713B44B3FBF2F300EE103AB8EE402A51
:101C800081ED042AD0F84032D0F84472D0F84802EE
:101C90003B441844B0FBF2F000EE100A5B4AF8EE49
:101CA000401AC1ED051A1078402814D25FF00000E8
:101CB00002EB800301EB800793ED010AD7ED003AB8
:101CC000401CC0B230EE230A062883ED010AEFD390
:101CD0001078401C10709FED4E0A4E4823EE003ADB
:101CE00021EE001A60EE800A80ED003A80ED011AC4
:101CF000C0ED020A4848D0ED040A32EEE01ADFEDEA
:101D0000470A474921EE201A81ED001A90ED051A85
:101D100032EE411A21EE201A81ED011A90ED061AD9
:101D200031EEC11A61EE200AC1ED020A606A80B28A
:101D300068802168C90603D5E16AC0EB410068806C
:101D400039493848B7EE001A0B680ECB80E80E0010
:101D5000374936480B680ECB80E80E0035483749C6
:101D6000008800EE900A3448F8EE600A20EE800AFF
:101D700080ED030AD1ED020AD0ED041A31EE601AAB
:101D800021EE211A00EE801A80ED041A606A80B2FA
:101D9000A8802168C90603D5E16AC0EB4100A8808C
:101DA0000220306026480078012813D125480078A9
:101DB00006280FD2DFE800F003060E09090C00F038
:101DC000CFF907E001F0F2FB04E005F0B3FB01E01E
:101DD00009F07EFD606A80B2E8802168C90603D5FB
:101DE000E16AC0EB4100E8804FF400303060401001
:101DF0003060BDE8F081000000000140906C0020E0
:101E00001804024000200140D0710020B47100206D
:101E1000A742773CE871002028040020510AA53D24
:101E200000720020F4710020480400200C72002091
:101E30004C04002044040020DC010020F0010020BC
:101E400020040020D8010020464910B54A6822F439
:101E500040324A604A6843681A434A6001684A68E7
:101E600022F480724A6001684A68036942EA0322E8
:101E70004A6001684A6822F040724A6001684A6814
:101E800083681A434A6001688A6822F400628A60A3
:101E900001688A68C3681A438A60816A6FF0706259
:101EA000D14201688A6822F070628A6001688A689B
:101EB0000CD0836A1A438A6001688A6822F0405213
:101EC0008A6001688A68C36A1A4301E022F04052BE
:101ED0008A6001688A6822F002028A6001688A6862
:101EE000037E42EA43028A6090F8201000290168CC
:101EF0004A680FD042F400624A6001684A6822F4DE
:101F000060424A6001684A68174C436A04EB4333F5
:101F10001A4301E022F400624A600168CA6A22F4AE
:101F20007002CA620168CA6A838B104C04EB0353C7
:101F30001A43CA6201688A6822F400728A600168E2
:101F40008A6890F8303042EA43228A6001688A68E1
:101F500022F480628A6001688A68406942EA8020CF
:101F6000886010BD0023014000E0FFFF0000F0FF8B
:101F700010B52DED028B82B0684600F03BF8114C95
:101F800010B1BDF80000A080A0889FED0F1A00EEF0
:101F9000100A9FED0E8AB8EE400AC0EE010A94EDD9
:101FA000020A10EE880A06F081F884ED030AA07890
:101FB000002803D038EE400A84ED030A02B0BDECDD
:101FC000028B10BDB003002000FC7F46DB0FC94030
:101FD000064944F20102100588610548C260C268E2
:101FE00082681206FCD4102088617047000002400D
:101FF0000030014070B50346144801260025310524
:102000004FF6FF7281611249CA60CA6894B28A6849
:102010001206FCD410218161C4F30D001880600405
:1020200004D5FFF7D5FF1846FFF7E4FF0020E107CE
:1020300001D06D1CEDB2401C6408C0B21028F6D36C
:10204000E80700D00026304670BD000000000240C6
:102050000030014010B52DED048B9FED158A80EE08
:10206000089AC0EE888AB0EE490A0AF0F5FBF0EE55
:10207000409AB0EE680A0AF0EFFB79EE809AB0EE73
:10208000490A0AF053F9B0EE409AB0EE680A0AF035
:102090004DF979EE000AB0EE690A09F0F1FF20EE81
:1020A000080ABDEC048BBDE8104005F07BBF0000C2
:1020B000E12E65420268126A40F255531A40244BE1
:1020C000F6EE001A552A93ED000AB0EEC01A93ED11
:1020D000010AF0EEC00A0CD093ED020AA2F5A0624C
:1020E000053AB0EEC00A07D04B2A2ED09FED190A50
:1020F00006E031EE200A01E031EE000A20EE210A6E
:10210000154AF7EE000A81ED300A92ED030A91EDCF
:10211000311A124A70EEC00A60EE810A91ED301A4F
:1021200040EE010AC1ED310A92ED040A81ED320A56
:1021300090ED0F1A20EE011A81ED2F1A61EE200AA0
:1021400080EE801A81ED331A704730EE800AD5E7B1
:102150000C72002000000000F0010020DC010020D3
:102160002DE9F04FFF4F01262DED028B0025B88899
:10217000DFF8F4B3DFF8F4A383B0B7EE008A0128E8
:102180000CD0FB48DAF8801042F210728069544695
:1021900091427DDD01287BD90022D8E23868016AAE
:1021A00040F255500140F348B6EE002AF0EE082AFE
:1021B00090ED011AD0ED001AD0ED020A552931EE4A
:1021C000810A2AD0A1F5A06105392CD04B292DD048
:1021D00030EE200A504680EE222A8AED062A00BF01
:1021E00097ED102A90ED073A014638EE420A20EEAC
:1021F000030A90ED063A02EE030A80ED070A04781E
:10220000DA48026B5300426B4FEA4209826BC06CA2
:10221000520074B1022C26D085E020EE020A50460E
:102220008AED060ADCE731EEA00AF6E731EE200A75
:10223000F3E710EE10CADFF84083C44573DACD65CA
:102240000D664D668D66CD660D67C1F88050C1F88C
:102250008450C1F88850C1F88C500D634D638D6374
:10226000CD630D64A8E0D1F820C00CF1010CC1F8D9
:1022700020C0D1F82480C44553D9D1F828C00CF12E
:10228000010CC1F828C0D1F82C80C44549D900E020
:102290005AE2F4EEC01A0B63F1EE10FAC1E90D92A6
:1022A000CC4602DD4FF0010801E04FF00008B4EE2B
:1022B000C01A48EA0308F1EE10FAC1F8308001DDD7
:1022C000012300E00023F4EEC00A43EA0C03F1EE20
:1022D00010FA4B6302DD4FF0010C01E04FF0000CEF
:1022E0004CEA020C08EA0008C1F838C0C1F8508076
:1022F000804501D1CE6303E0B8F1000F00D1CD637A
:1023000003404B65834201D10E6401E003B90D64C3
:102310000CEA000CC1F858C084454AD0BCF1000F4B
:102320004AD04AE0FFE7F4EEC01A0B63F1EE10FA70
:10233000C1E90D92CC4602DD4FF0010801E04FF0FB
:102340000008B4EEC01A48EA0308F1EE10FAC1F82A
:10235000308002DD4FF0010901E04FF00009F4EE9A
:10236000C00A49EA0C09F1EE10FAC1F8349001DD17
:10237000012300E0002308EA00081343C1F850805D
:102380008B63804501D1CE6303E0B8F1000F00D12B
:10239000CD6309EA0009C1F85490814501D10E646A
:1023A00003E0B9F1000F00D10D6403408B65834257
:1023B00001D14E6401E003B94D64084691F8401024
:1023C00090F84420490001EB820190F83C20D1466E
:1023D0001144C9B20174826E4FF0060E521C82661F
:1023E0009AF8110088427CD089F81110D9ED170AAB
:1023F000624AC9ED180AC9F85C5092ED040AD9ED99
:10240000191AF8EE600A38EE401AF8EE611A4846DA
:1024100061EE211A40EE201AFCEEE10A10EE902A3D
:10242000C9F864207B7A2BB15A433C23B2FBF3F208
:10243000426700E04567524A90F89630525C4B493B
:10244000903100915A5490F89620016E00EB820270
:10245000C2F8981090F89610491CC9B280F89610EE
:1024600006295CD380F89650D0ED1A0AC0ED1B0AFD
:102470008566D0ED1C1AF8EE600AF8EE611A21EEBE
:10248000211A00EE201ABCEEC10A10EE101A0167E4
:1024900097F82A3001FB03F24FF4B473B2FBF3F266
:1024A00082641F2A00D91F22354C8264503454F8AC
:1024B0002220C26497F8294001FB04F2B2FBF3F238
:1024C000C26297F8274001FB04F2B2FBF3F24262CA
:1024D000E9B1D0F8D420C2EB02129200B2FBF1F1C4
:1024E00000E0B8E090F97C2051430A46C0F8801023
:1024F00000D54942C0F884103B7A0C4692FBF3F1B8
:10250000C0F8881094FBF3F1C0F88C1007E0C0F815
:102510008050C0F88450C0F88850C0F88C500446F1
:10252000F4E9263803EB0800D4E9022102EB010CA0
:102530006044D4F810C0CDF808C06044D4F814C08A
:10254000CDF804C06044A06190FBFEF01B1A5B4311
:10255000121A5243A8EB000C091A0CFB0C3301FBB6
:1025600001210FE0600300200402002080700020A1
:1025700060710020F47100200000C842F0010020CA
:10258000A8F00008E061DDF808C01944ACEB0002D7
:10259000DDF804C002FB0211ACEB000000FB0010F0
:1025A00090FBFEF020620CF082F941EC100B0AF077
:1025B0001BFA51EC100B0CF04BF920625FF0000499
:1025C000FA4904EB440801EB480006220099FDF7A4
:1025D00050FF68B1F5490622243101EB480000990B
:1025E000FDF747FFF0B1641CE4B2062CE8D383E0AA
:1025F00099F80010484601290CD1BA8CD0F8B810CF
:10260000914207DA81883A8C914203D905214170C1
:102610008560C5603A8ED0F8B81091426CDA89F8BE
:102620007C6069E099F80010484601290AD1BA8C0B
:10263000D0F8B810914205DA81883A8C914201D9DC
:10264000052141703A8ED0F8B810914254DAFF213A
:1026500089F87C1050E0D9F85C00F7EE081A401CAD
:1026600000EE100AC9F85C004946F8EE400A99ED00
:10267000180AB8EE401A21EE211AF4EEC10AF1EE62
:1026800010FA37DDB8EE400A00EE900AF8EE600A64
:1026900020EE220AF4EEC00AF1EE10FA2AD2022C41
:1026A00028D197F8280028B3087D10BBC04A9BF8B2
:1026B0000100927C01284FF000000CD0BB4B0D3B79
:1026C0001C5C944211D1401CB0FBFEF30EFB1300C6
:1026D00089F8140010E0B54B133B1C5C9442F2D017
:1026E000401CC0B20628F8D306E0401CC0B2062841
:1026F000E6D301E089F8145099F8121099F81020E7
:102700004846914202D0816F491C8167B98DD0F84B
:10271000D4204FF47A734A43B2FBF3F2C36D9A426A
:102720003BD2D1B340F85C5F45608560C560056110
:10273000456145628562C562056399F8000002281B
:102740007ED107F01FF87BE0022804D901229849C6
:10275000984809F08FF8984890E80E004FEA43082F
:10276000964BD3F800C0CCF3801C4CEA41010160C9
:10277000D3F800C0CCF3C01C4CEA420242601B6894
:10278000C3F3002348EA0308C0F80880C36919406E
:102790000162994202D1C66002E051E001B9C56010
:1027A0001A4042629A4201D1066101E002B9056114
:1027B00008EA0308C0F82880984501D1466103E083
:1027C000B8F1000F00D14561017C027D490001EBA9
:1027D0008201027B1144C9B280F82C1090F82D20A0
:1027E0008A422AD080F82D1094ED170A744884ED9F
:1027F000180A44F85C5FD0ED040A94ED021AB8EEB2
:10280000400A78EE601AB8EE411A21EE811A00EE05
:10281000801ABCEEC10A10EE100AA060A16F01EB95
:1028200081014900B1FBF0F094F920104843606247
:10283000397A90FBF1F0E06202E0E06D401CE06567
:102840009AED210A5446B8EEC00ADFED5E0A5E48F2
:10285000022280EE201A80ED021A9AF80010062952
:102860000AD2DFE801F0030AD2F5F4F33868016A0E
:1028700040F255529143016240E163780321062BF7
:1028800019D2DFE803F00319222E38A397ED030ACB
:10289000474987ED0F0A474809F0FCF9A560D4F8CD
:1028A000D400396948434FF47A71B0FBF1F0E0602D
:1028B0006670A570A5808FE0A068401CA060E168EC
:1028C000884201D9A560627086E0D4F8D4007A69A4
:1028D00050434FF47A72B0FBF2F0E0606170A67082
:1028E0007AE0A068401CA060E168884274D90420A6
:1028F000A560607070E0A278521CD2B2A270052A66
:1029000000D9A570A5606170F9883A7AD7ED031AED
:10291000514300EE101AD0ED040AD4F8D400B8EEFA
:10292000400A00EB8000400020EE210A60EE200A01
:1029300000EE100AB8EE401A81EE200AD4ED030A28
:10294000B8EE601AB4EEC10AF1EE10FA25D297ED96
:102950000F0A97ED071A30EE010A87ED0F0A97ED7F
:102960000D1AB4EEC10AF1EE10FA08D3B0EE001A57
:1029700021EE811AB4EEC10AF1EE10FA01DDB0EEDB
:10298000410A87ED0F0AB8EE600AD7ED060A20EE7D
:10299000200ABCEEC00A84ED030AA088411CA18075
:1029A000798C884218D906F0EDFE15E0AFF00008EA
:1029B0008070002060030020607100201008024039
:1029C000F001002000007042DC01002022706570E0
:1029D00097ED0D0A87ED0F0A9BF80100A1785E467E
:1029E00001280FD06248405CE070A56261496248EE
:1029F000256209F04FF97378E2785E495E4804F089
:102A000035FA7BE05A48801FEDE7B888012820D0CE
:102A10005A4822705A4990F82C0001EB8000554921
:102A200090ED000ABCEEC00A10EE100AA0745248E5
:102A300009F030F94F495048FFF73CFB9BF8013053
:102A4000A27C4C494C4804F04FFA57E04EE048E075
:102A50003EE0227D32B9A567A07CE074207CA074A2
:102A6000A5622562D4E9080188422ED25E469BF811
:102A70000130A27C3F49404804F017FAD4E91D0117
:102A8000814205D9A567A07CE074207CA074A56272
:102A9000D4E90A01884209D897F8260030B1737842
:102AA000A27C3449344804F000FA05E07378A27C33
:102AB0003049314804F0DAF92E492F4809F0EAF894
:102AC0002C492D48FFF7F6FA18E09BF80130EFE7A4
:102AD0002849294809F0DEF82649274800F058F827
:102AE0000CE02449244801F0DBF807E021492248A2
:102AF00009F0D0F81F49204805F0ECFC2149224894
:102B000091ED000A80ED000A91ED010A80ED010AC5
:102B100091ED020A1D4980ED020A94ED060A80ED4E
:102B2000030A91ED000A80ED040A91ED010A80ED9F
:102B3000050A91ED020A80ED060A94ED070A80ED80
:102B4000070A217800EE101AB8EE400A80ED080A54
:102B5000617800EE101A2C21B8EE400A80ED090AC7
:102B600003B0BDEC028BBDE8F04F00F071B800007F
:102B7000A2F0000880700020600300206071002037
:102B8000C0030020E871002050040020F4710020F0
:102B900010B503681A6A31F8D84FDC6204684B88B4
:102BA000636304684B88A36303684988D96340F270
:102BB00055518A43006840F244410A43026210BD05
:102BC000F0B500234C1E15E00022CE1A761E0DE053
:102BD00000EB420C30F81250BCF80270BD4203D931
:102BE00020F81270ACF80250521C92B29642EFDC00
:102BF0005B1C9BB2A342E7DBF0BDFEE70020704701
:102C00000020704710B500220449054807F034FA47
:102C10000449034807F023FA002010BD9014002057
:102C2000B4070020900C002070B50D460446014604
:102C3000054807F014FA044807F0EAF92046296825
:102C400008F0A8FF002070BDB407002000207047E6
:102C5000094A10B5D2F8BC22D2F814220AB10120D8
:102C600010BD0A460146044807F006FABDE81040C8
:102C7000014807F07BBA0000B407002090ED010A7C
:102C8000D0ED020AB6EE001A30EE200AD0ED000AAE
:102C900040EE410A9FED0A0A60EE800AC1ED000A8B
:102CA000D0ED010A90ED021A70EEC10A9FED051AEF
:102CB00060EE810A20EE800A81ED010A7047000073
:102CC000ABAA2A3FD7B35D3F044800219FED040A19
:102CD000017580ED060A417570470000CC6C00203C
:102CE0000000000010B504462DED048BB0EE609A94
:102CF000F0EE418ADFED1D0A20EE200AD0ED000A39
:102D000020EE808AB0EE480A09F0A6FDF0EE409A67
:102D1000B0EE480A09F0A0FDF0EE400AB7EE000A56
:102D200009EEA00A09F09DFEF0EE409AB0EE480AC6
:102D300009F092FD39EEC00AD4ED000A20EE080A2F
:102D400029EE001AC1EE201A28EE801A81EE200A20
:102D5000F0EE080AC4ED011A84ED020A20EE200A02
:102D600084ED040ABDEC048B10BD0000DB0FC940EC
:102D7000014801F07DBF0000AC060020014801F0D1
:102D800077BF00000C070020014801F071BF000070
:102D90004C06002001681823CAB2103AB2FBF3F2C5
:102DA000054B6FF30901032A9B5CC36500D9091D1C
:102DB00081650846704700007CF0000810B50146A8
:102DC00000208B698A6A4FF0C07453B1B3F5005F7D
:102DD00015D072B1012A0CD0022A0AD0032A09D1D7
:102DE00004E01AB1012A06D0022A03D1C96AC90136
:102DF00000D5012010BDC96AA142FAD010BD002A39
:102E0000F7D0012AF2D0022AF3D0032AF3D010BD62
:102E100030B50468256825F4802525600468636062
:102E20008368402B036803D099600068C26030BD9E
:102E30009A600068C16030BD31B3032900D304211A
:102E4000B0FBF1F000EE100AF8EE400A9FED431AD5
:102E500081EE200A9FED421A00EE902AF8EE600AF9
:102E600060EE011AF4EEE01AF1EE10FA0EDD00EE5B
:102E7000902AF8EE600A80EE801ABCEEC10A10EECD
:102E8000100A00F07F0070470121D9E7F0EE000A38
:102E900060EE200A60EE811A01EE102AB8EE411AA7
:102EA000F4EEC11AF1EE10FA12DD00EE102AB8EEBF
:102EB000401A81EE200ADFED2B0A30EE600ABCEEEC
:102EC000C00A10EE100A00F03F0040F0800070478A
:102ED000F2EE000A9FED241A60EE200A01EE902A1D
:102EE00020EE812AF8EE612ADFED201AB4EEE22A04
:102EF000F1EE10FA10DD00EE102AB8EE401A81EE65
:102F0000200A30EE610ABCEEC00A10EE100A00F092
:102F10001F0040F0C0007047F3EE000A20EE200AC8
:102F200000EE902A20EE011AF8EE600AB4EEE01AE4
:102F3000F1EE10FA10DD00EE902AB8EE601AC1EE44
:102F4000000A30EEE10ABCEEC00A10EE100A00F0F2
:102F50001F0040F0E0007047FF207047286B6E4E66
:102F60000000FE420000804200007C42000000425F
:102F7000A0FB010110B51446044A0023FDF702FA34
:102F800080B2002C00D0400810BD000000CA9A3B5F
:102F90007047000070B52DED028BFEF7E9FF254C60
:102FA00094ED030A09F0C2F9B0EE408A94ED030AE9
:102FB00009F052FCF0EE480A1F4805F009F81F4CD2
:102FC0006078062833D21E4E1B4D307AD5ED0A0AA2
:102FD00000EE100AB8EE400A20EE800A05F066F80E
:102FE000A4F1D0009FED171A80ED1E0A95ED0A0A94
:102FF00080ED1F0A95ED0B0A80ED200A307AD5EDA1
:10300000090A00EE100AB8EE400A20EE800A84EDAC
:103010000D0A84ED0E0A20EE010A84ED0B0A84ED00
:103020000C0A20EE810A84ED100A84ED110ABDEC31
:10303000028B70BDB0030020D86F0020FC6D002013
:1030400030020020000070422DE9F04F00272DEDE6
:10305000088BA9B0B0EE409A5A2478269FEDFE8ADC
:10306000182111A8F0EE488AFDF7F9FA04F0D0FA19
:10307000FA4D286A40F2555108432862E86A1790D1
:1030800017A9B0EE480A1FA805F0DAFB1898686384
:103090001998A8631A98E863DFF8C4B3DFEDF19AD2
:1030A000F14D0CE026A9F148FFF7E8FDB0EE480A23
:1030B00022A926A805F0E5F9012009F0D7FE2298FB
:1030C000A842EFDC33E026A9E848FFF7D7FD00EE81
:1030D000104A22A926A8F8EEC00A80EEA90A05F037
:1030E000D0F900EE104A17A91FA8F8EEC00A80EE2A
:1030F000A90A05F0A5FBD94818994163199981637C
:103100001A99C1639DED1F0ADFEDD90A30EE200A3E
:103110008DED1F0ADBED1B0AB4EEE00AF1EE10FAAA
:1031200002DDCDED1F0A09E0012009F09FFE9DEDB3
:10313000220AB4EEC90AF1EE10FAC4D34FF47A7041
:1031400009F094FE0025E84608EB4500FEF752FF23
:1031500008B16D1CEDB2012009F088FE202DF3D3DB
:1031600020216846FFF72CFD04204146C14631F876
:103170001020401C00EE102AC0B21C28B8EE400AF5
:1031800070EE288AF2D3F3EE08AA88EEAA0A9FED21
:10319000B9BAC0EE0B0A9FEDB8AA20EE8A0A04F075
:1031A00085FF8DED110ADFEDB5BADFF8B082F0EEE4
:1031B000488AC0EE2B0A0025BCEEE00A10EE100A89
:1031C00000F0FF0A641C00EE104A17A91FA8F8EED1
:1031D000C00A80EEA90A05F033FB1899C8F834102C
:1031E0001999C8F838101A99C8F83C100A2009F043
:1031F0003DFE6D1C2DB2B542E4DB4FF4FA7009F0D0
:1032000035FE002509EB4500FEF7F4FE08B16D1C04
:10321000EDB2012009F02AFE202DF3D320216846CB
:10322000FFF7CEFC0420494631F81020401C00EE88
:10323000102AC0B21C28B8EE400A70EE288AF3D3D8
:1032400088EEAA0AC0EE0B0A20EE8A0A04F02EFFCE
:103250008DED120AB0EE489A354616E0641E00EE77
:10326000104A17A91FA8F8EEC00A80EEA90A05F0B7
:10327000E7FA7A4818994163199981631A99C163E9
:103280000A2009F0F3FD6D1E2DB2002DE6DC4FF48F
:10329000FA7009F0EBFD4FF000084D4605EB4800D1
:1032A000FEF7A8FE18B108F1010808F0FF08012098
:1032B00009F0DCFDB8F1200FF0D320216846FFF7BC
:1032C0007FFC04202946A84631F81020401C00EE5F
:1032D000102AC0B21C28B8EE400A30EE099AF2D388
:1032E00089EE2A0AC0EE0B0A20EE8A0A04F0DEFEFE
:1032F000C0EE2B0A8DED130AF0EE488A3546BCEE7F
:10330000E00A10EE100A00F0FF0916E0641E00EE5D
:10331000104A17A91FA8F8EEC00A80EEA90A05F006
:103320008FFA4E4818994163199981631A99C163BC
:103330000A2009F09BFD6D1E2DB2002DE6DC4FF436
:10334000FA7009F093FD002508EB4500FEF752FEE8
:1033500008B16D1CEDB2012009F088FD202DF3D3DA
:1033600020216846FFF72CFC0420414631F810204C
:10337000401C00EE102AC0B21C28B8EE400A70EEC5
:10338000288AF3D388EEAA0AC0EE0B0A20EE8A0A36
:1033900004F08CFE8DED140A0025641C00EE104A2A
:1033A00017A91FA8F8EEC00A80EEA90A05F048FA8E
:1033B0002A4818994163199981631A99C1630A20AF
:1033C00009F054FD6D1C2DB2B542E6DB4FF4FA70E6
:1033D00009F04CFD0026454605EB4600FEF70AFEC7
:1033E00008B1761CF6B2012009F040FD202EF3D37F
:1033F00020216846FFF7E4FB5FF0040035F8101069
:10340000401C00EE101AC0B21C28B8EE400A30EE84
:10341000088AF3D388EE2A0AC0EE0B0A20EE8A0A45
:1034200004F044FEC0EE2B0A8DED150A9FED148AC0
:10343000BCEEE00ADDED120A10EE100A9DED110A55
:10344000C6B2FEF765FBDFED0F0AB4EEE00AF1EE5F
:1034500010FA1BD218E0000000000000000001403C
:1034600030020020E12E65420AD7233C0C72002076
:103470006F12833A00FC7F46DB0FC940DB0FC93F68
:10348000C2B8B23DC2B8323D47F48037DDED120A12
:103490009DED110A05F0E8F8414D012837D00120D3
:1034A000A870DDED130A9DED110AFEF731FBB4EEB5
:1034B000C80AF1EE10FA62D2DDED150A9DED130A8D
:1034C000FEF726FBB4EEC80AF1EE10FA57D2DDED96
:1034D000150A9DED110AFEF71BFBB4EEC80AF1EECA
:1034E00010FA4CD29DED110ADDED130ABAF1030F6B
:1034F00030EE200ADDED150A30EE200A8DED160AB9
:103500000ED0B9F1030F04D0032E02D014E0002036
:10351000C6E7BAF1000F03D130EE0A0A8DED160AA4
:10352000B9F1000F03D130EE0A0A8DED160A1EB96B
:1035300030EE0A0A8DED160AF0EE400AB0EE081AD7
:1035400080EE810A04F0B2FD00EE904A8DED160A7D
:10355000A878F8EEE00A00289BF8080080EEA91A87
:1035600000EE900AF8EE601AC1EE210A02D030EEA9
:10357000800A01E030EE600A85ED020A01E047F4BE
:1035800000370848016A40F255529143016204F045
:1035900037F829B03846BDEC088BBDE8F08F000045
:1035A000B00300200000014072B6FEE72DE9F04FA5
:1035B000FE4D2DED028B83B0686ADFF8F48380B294
:1035C000A8F808002968C90604D5EA6AC0EB4200D9
:1035D000A8F80800F74EDFF8E093A6F1D004707861
:1035E000042801D005282BD199F84E004F4688B108
:1035F000B06A401CB06297F8511088420AD300208C
:10360000B062D4ED200A94ED1D0AEC4804F0DCFE13
:1036100084ED1C0A97F84D0090B1706A401C7062EE
:1036200097F8501088420BD300207062E348D6ED23
:10363000110A94ED1C0A403803F0B8FC84ED1B0A13
:10364000686A474680B2A8F80A002968C90603D507
:10365000E96AC0EB41007881D649D948AC398A463D
:10366000FFF70CFBD349D748A4398B46FFF706FB7D
:10367000B9F80600C846B0F5805F01D3FFF78AFCB1
:10368000B8F80600102801D0202801D100F020FB56
:10369000B8F80600032801D805F0F4FA7078062877
:1036A00001D304F01FFDC34994ED1E0A9C39504616
:1036B00004F0E7FEBF4994ED1E0A9439584604F021
:1036C000E0FE696AA94689B2B9812868BB46C0068E
:1036D00005D5D9F82C20C1EB4201ABF80C10BA4942
:1036E000454691ED030A84ED2A0AD8ED1B0A20EE27
:1036F000800ADFEDB60AB24620EE200A84ED250AE4
:10370000D6ED0E0A9FEDB21AAA4820EE811AF0EE0D
:10371000E00AD03886ED0F1AC1ED020A727800F186
:103720005006311D4C30062ACDE9000112D0A0F11F
:103730004C0707F16C0068378046072A0CD094F8D4
:1037400090009FEDA48A05285AD2DFE800F02C5A99
:1037500066A7A10031461DE0014695ED030A3846F3
:1037600005F00AFA9348D4ED0F0A94ED1A0A543082
:1037700004F02AFE84ED130A9048D4ED100A94ED6B
:103780001B0A803804F020FE84ED140A94ED250A0B
:103790003146009805F0F0F994ED1E0ADDE90001CC
:1037A00003F0A0FE59E184ED1A8A95ED030AD4EDE9
:1037B0001B0AB1EE401AF4EEC10AF1EE10FA02D281
:1037C000B0EE410A06E0F4EEC00AF1EE10FA01DCB8
:1037D000B0EE600A84ED1B0A7848803890F83C000F
:1037E00070B194ED190AD5ED1E0AB4EEE00AF1EEBF
:1037F00010FA53DD95F8770010B1022084F890009C
:103800004CE06C496C48D03904F00BF895ED030A94
:103810004146384605F0B0F9DEE794ED191AD5EDCA
:103820001E0AB4EEE01AF1EE10FA1BDD94ED181A40
:1038300010EE201A94ED1A0ADFED670A01EE200A55
:1038400084ED1A0AD5ED0A0AD5ED061AB1EE601A12
:10385000C1EE210AB4EEE00AF1EE10FA18D2C4ED7E
:103860001A0A15E094ED1A0A10EE100AB0F17E5F04
:1038700006DDDFED5A0A20EE200A84ED1A0A07E081
:1038800084ED1A8A95F8760000B1012084F8900042
:1038900095ED030A4146384605F06EF99AED0F0A98
:1038A000D5ED070A94ED101A574660EE600A20EE37
:1038B000811A84ED211AD5ED060AD4ED0F1A60EEB7
:1038C000200A60EEA10AC4ED220AD5ED0A1A20EE04
:1038D000210A84ED230A95F87400012864D0022897
:1038E00063D003287ED084ED118A84ED128A00BF54
:1038F000304894ED250A543004F022FD2F4894ED11
:10390000250A803804F01CFD2A4894ED0F1AD4EDE6
:103910001A0A94ED110A543000F036F984ED130AB6
:10392000264894ED101AD4ED1B0A94ED120A803843
:1039300000F02AF984ED140A787805287ED094EDF9
:10394000250A3146009805F017F994ED1E0ADDE9C5
:10395000000103F0C7FD94ED130AD4ED140A20EE24
:10396000000A00BF00EEA00A09F07BF81C4884EDB5
:10397000170AB7EE000AD0ED020A94ED181A30EEDD
:10398000600A20EE010A94ED171A00EE810A84ED18
:10399000180AD4ED250A80EE201A84ED191A94ED48
:1039A000090A20EE000A1EE0B5E0B9E0000001407F
:1039B000906C0020FC6D002030020020106F002071
:1039C000F47100200C720020DC010020ABAA2A3F19
:1039D000DB0FC940000000006F12833AA4707D3FE6
:1039E000F00100209FE0D4ED0A0A00EEA00A09F0E1
:1039F00038F884ED260AD4ED250A80EE201A84EDED
:103A0000281A94ED0B0AD4ED0C0A20EE000A00EE01
:103A1000A00A09F026F884ED270AD5ED030A80EE06
:103A2000201A84ED291A94ED090AD4ED0B0A94EDBD
:103A30000C1A20EE200AD4ED0A0A00E07AE000EE2B
:103A4000810AF7EE080A20EE200A84ED2C0AD4ED54
:103A50002A0A80EE201A84ED2B1A95F84C0038B112
:103A6000454B464AA3F1A00002F1D00104F0D6FF75
:103A7000D9F824004D4680B2ABF80E00D9F80010FA
:103A80005E46C90603D5E96AC0EB4100F0813C48B7
:103A900094ED1A0A3B4A80ED000A94ED0F0A80ED7E
:103AA000010A94ED1B0A80ED020A94ED100A80EDE4
:103AB000030A94ED1E0A80ED040A9AED0E0A80EDC9
:103AC000050A92ED1B0A80ED060A92ED1A0A2A4AAF
:103AD00080ED070A127A00EE102AB8EE400A80ED57
:103AE000080A9AF8011000EE101A2C21B8EE400ACC
:103AF00080ED090AFFF7ACF8686A80B23082296865
:103B0000C90603D5E96AC0EB4100308203B0BDECC1
:103B1000028BBDE8F08F84ED111AC4ED120AE7E6BE
:103B200084ED118A03E030EE800A84ED111A84EDF1
:103B3000120ADDE6104ED4ED130A06F1280196EDC7
:103B4000081A081F074670EE810AC6ED090A86EDBD
:103B50000A0A94ED250A05F00FF894ED1E0A06F105
:103B60002C01384603F0BEFC96ED090AD6ED0A0A90
:103B700020EE000AF6E60000D00200202C6D0020A6
:103B800050040020506F0020D0ED0A2A70EEC11AB8
:103B9000C0ED0B2AC0ED0A1AD0ED010A20EEA13AC1
:103BA00080ED053AD0ED020AD0ED003A20EEA11AE0
:103BB000D0ED060A41EE230AC0ED060A90ED0E1A7A
:103BC000F4EEC10AF1EE10FA02D2F0EE410A08E07A
:103BD00090ED0D2AF4EEC20AF1EE10FA01DDF0EEDE
:103BE000420AC0ED060A71EEE21A90ED032A33EEA6
:103BF000000A21EE822A30EE200AC2EE231AC0ED1E
:103C0000071A70EE210AC0ED090AF4EEC10AF1EEBE
:103C100010FA02D2B0EE410A08E090ED0D0AF4EE7F
:103C2000C00AF1EE10FA01DCB0EE600A80ED080A7D
:103C3000B4EE600AF1EE10FA01D0012100E000219B
:103C400080F83C10704700002DE9F04391460026B3
:103C50000F464A1E804601253446314604F0A6FC34
:103C600018E000BF58F8261058F82500814209D105
:103C70006D1CBD420ED1A81BA0420BD90446C9F849
:103C8000001007E0A81BA04202D90446C9F80010A2
:103C90002E466D1CBD42E5D32046BDE8F0830000F2
:103CA0000A4A816C0368B2FBF1F18AB25108DA6208
:103CB00002685163026891630268D1630068016A17
:103CC00040F25552114301627047000000BD0105EA
:103CD00070B52DED048B9FED8F9A8F4801688F4C46
:103CE000C1F38012E2600168C1F3C0112161006874
:103CF0004900C0F30020606101EB8000811884F866
:103D00002C1094F82D20DFED868A2046854D006B1F
:103D10008A427DD1401C00EE100A2063B7EE081ADB
:103D2000F8EE400A94ED0D0AB8EE400A20EE010AC2
:103D3000F4EEC00AF1EE10FA1CDD94ED110AB5EEB6
:103D4000C00AF1EE10FA02D2BFEE000A01E0B7EEAF
:103D5000000A60EE280A00EE100A05EB8100B8EEBA
:103D6000400A80EE801A84ED111A90ED000A84ED6D
:103D70000E0A1CE094ED100AD4ED120A30EE200A6F
:103D800084ED100AD4ED0E0A30EEA81A70EEE80A9F
:103D9000B4EEE00AF1EE10FA02D2B0EE600A06E0EC
:103DA000B4EEC10AF1EE10FA01DDB0EE410A5E4D4B
:103DB00084ED100AB7EE000AD5ED0C0A94ED121A44
:103DC0005A4E30EE600A20EE010A94ED111A00EE10
:103DD000810A84ED120AD6ED150AF8EE600A20EE8B
:103DE000200ADFED538A20EE280ADFED520A80EE2A
:103DF000201A84ED131A94ED109AB0EE490A08F0D7
:103E000095FAB0EE408AB0EE490A08F025FD00E0D0
:103E100033E0F0EE480A284604F0DAF8A5F505701C
:103E20004178062926D295ED0A0AA0F1D00181ED4C
:103E30001E0AD5ED080AC0ED0D0A95ED090A60EEDF
:103E4000A80A80ED0E0A20EE281AC0ED0B0A80EDBC
:103E50000C1A317A00EE101AB8EE400AC0EE801A41
:103E600000EE101AB8EE400AC1EE000AC0ED101ABA
:103E7000C0ED110ABDEC048B70BD606305EB8100E1
:103E80002C34D0ED000A05EB820090ED000A04F01E
:103E9000EBFB08EE100A207805EB8000D0ED000A5D
:103EA000607805EB800090ED000AFDF731FE84EDAF
:103EB000040A217805EB810090ED000A84ED030AE5
:103EC00060682C3CF0B1B8EEC81AD4ED110A60EE6F
:103ED000810AF5EEC00AF1EE10FA0CDBF8EEC80A22
:103EE00020EEA81A00EE900AF8EE600AC1EE201A41
:103EF000C4ED111A08E0DFED100AC4ED110AC4ED9B
:103F0000120A01E084ED119A84F82D10002020633C
:103F10004DE7000000000000100802406071002022
:103F2000920A863F0004002010700020300200201A
:103F300000007042DB0FC940BD3786B52DE9F04F58
:103F40004FF000092DED048BD7B0B0EE408ACDF8CC
:103F5000F490CDF8F890CDF84491CDF84891CDF893
:103F60005091CDF84C91CDF81491CDF81891CDF831
:103F70001C91CDF8209103F04BFBFE4C206A40F2DF
:103F8000555108432062E06A45A9DFEDFB8A459060
:103F90003DA8B0EE680A04F053FC46986063479869
:103FA000A0634898E063F54EF54F0CE053A9F5483F
:103FB000FEF764FEB0EE680A51A953A804F061FA56
:103FC000012008F053FF5198B842EFDC9FEDEE9AC4
:103FD0004FEA040A9DED510AB4EEC80AF1EE10FA58
:103FE00027D253A9E748FEF749FEB0EE680A51A967
:103FF00053A804F046FA45A9B0EE680A3DA804F0BB
:104000001FFC4699CAF834104799CAF838104899E5
:10401000CAF83C109DED3D0A30EE090A8DED3D0ACF
:10402000D6ED1B0AB4EEE00AF1EE10FA2DDDCDED6F
:104030003D0A4FF47A7008F019FF02F073FFD3497C
:104040000868C0F38012D248C2600B68C3F3C01383
:10405000036109685B00C1F30021416103EB810149
:10406000114480F82C1080F82D1060216846FCF770
:10407000F6FA602120A8FCF7F2FA0026344637460B
:104080004FF4E16B9FEDC38A54E0012008F0EEFE8F
:10409000A0E738467F1C584502D949F480794FE0A3
:1040A00000EE104A45A93DA8F8EEC00A641C80EE57
:1040B000880A04F0C5FB4699CAF834104799CAF833
:1040C00038104899CAF83C10022008F0CFFEAF49DA
:1040D0000868C0F38012AE48C2600B68C3F3C01317
:1040E000036109685B00C1F30021416103EB8101B9
:1040F000114480F82C1090F82D208A421AD000EE3E
:10410000104A80F82D10E8462DF81510B8EEC00AB8
:1041100003F048FFBDEEC00A4FF4B47110EE100A70
:1041200090FBF1F201FB120008EB45016D1C0886C3
:1041300065F30F06B5B2182DABD3B7F5B46FA8D39E
:104140000027642008F092FE52E038467F1C584554
:1041500002D949F4807953E000EE104A45A93DA800
:10416000F8EEC00A641E80EE880A04F069FB4699E6
:10417000CAF834104799CAF838104899CAF83C1060
:10418000022008F073FE81490868C0F3801280485D
:10419000C2600B68C3F3C013036109685B00C1F31D
:1041A0000021416103EB8101114480F82C1090F84B
:1041B0002D208A421CD000EE104A20AA80F82D1033
:1041C00022F81810B8EEC00A03F0ECFEBDEEC00AEB
:1041D0004FF4B47010EE101A91FBF0F200FB1211C4
:1041E00020AA02EB4800018608F1010060F31F4697
:1041F0004FEA1648B8F1180FA7D3B7F5B46FA4D398
:1042000000224192429243924492189219921A9239
:10421000114641A818AC6E461B9211E036F81130D9
:1042200006EB410C30F813707F1C20F8137034F843
:104230001370BCF830C0491C674424F81370C9B22D
:104240008D42EBD85FF0000134F8113030F8116086
:10425000B3FBF6F324F81130491CC9B20829F3D393
:1042600038923A923B9239921C921D921E920023F0
:1042700038A91CAE0DF1800B1F9212E03BF81370B1
:104280000BEB430C5B1C31F81780DBB208F1010823
:1042900021F8178036F81780BCF830C0C44426F8DF
:1042A00017C09D42EAD8002336F8135031F8137036
:1042B000B5FBF7F526F813505B1CDBB2082BF3D3E4
:1042C0004C924D924E924F9200224CAF30F81250C9
:1042D00031F812302B4427F81230521CD2B2082A7F
:1042E000F4D3DFF8B480002536F8150000EE100A8C
:1042F00034F81500F8EE400A00EE100AB8EE400A55
:10430000FDF7A8FE03F04EFE08EB85006D1CEDB234
:1043100080ED000A082DE7D3DFF87CB000250BF113
:10432000200B00BF36F8150000EE100A34F8150017
:10433000B8EE400AC0EE080A00EE100AB8EE401AC5
:1043400081EE080A04F068F903F0B0FE0BEB85007B
:104350006D1CEDB280ED000A082DE3D300220E4D56
:1043600011464346203D4FF4B474002003EB800611
:1043700014E00000000001400000000030020020B6
:104380000AD7233C0C7200206F12833A10080240B7
:1043900060710020E12E6542E003002096ED000AE6
:1043A000BDEEC00A10EE106A8E4212D137F81060CE
:1043B0007EB1072A02D949F400690EE000EE102A06
:1043C00005EB8000521CB8EE400AD2B280ED000A24
:1043D00003E0401CC0B20828C8D3491C89B2A142DE
:1043E000C3D3DAF8201040F255529143CAF8201096
:1043F00003F006F957B04846BDEC048BBDE8F08FDA
:1044000070B590F83C20694D012A19D0012280F83E
:104410003C200A6807230468092A13D9E6680A3A87
:1044200002EB420293409E43E6600A788B680A3AA8
:1044300002EB420293400268D4682343D36010E049
:10444000022070BD266902EB420293409E43266122
:104450000A788B6802EB4202934002681469234396
:1044600013610268936B23F4401393630268936BA8
:104470000C8A4F4E06EB0454234393630A790B7C5A
:10448000D21AD21C02EB82021F2393400268946B63
:104490009C4394630A790B7CD21AD21C02EB8203F0
:1044A0000A8892B29A4003689C6B22439A638A6995
:1044B000AA420268936823F47023936002689368A9
:1044C0000CD08C69234393600268936823F44013F3
:1044D000936002689368CC69234301E023F440139E
:1044E00093604A7D002A0268536802D043F48063D7
:1044F00001E023F4806353600A7D002A0268536858
:1045000002D043F4805301E023F4805353604A689F
:10451000012A16D0022A1FD0032A026827D0136A64
:104520006FF30B0313620268136ACC6823431362B0
:10453000214B04681F4A9C4227D10C68122C20D0C2
:1045400023E0026853696FF30B03536102685369F8
:10455000CC6823435361EBE7026893696FF30B0365
:10456000936102689369CC6823439361E0E7D36960
:104570006FF30B03D3610268D369CC682343D36123
:10458000D6E7546844F48004546004689C4208D11F
:104590000968102901D0112903D1516841F40001A3
:1045A0005160002180F83C10084670BD01000F00EA
:1045B0000000F0FF002301400020014018B5002258
:1045C000009290F83C10012907D0012180F83C109E
:1045D00001688B68DB0702D011E0022018BD8B68F0
:1045E00043F001038B602A492A4B0968B1FBF3F1C0
:1045F00001EB410100E0491E00910029FBD1016857
:104600008B68DB073AD0036C42F20104A34343F406
:1046100080530364036CDB0500D4426480F83C20C3
:104620006FF004020A6001684A6842F080024A6042
:10463000194949680068C906816801F440110FD022
:10464000D1B100224168154B41F38021491C9842A9
:104650001CD1DAB1D1B1816841F48001816015E0EB
:1046600041B10021426842F38022521C71B1002AFC
:10467000F1D10BE00121F5E70122E3E7016C41F004
:1046800010010164416C41F001014164002018BD3A
:10469000C400002040420F000023014000200140E0
:1046A00010B590F83C20012A1FD0012200F83C2FC1
:1046B0000F4A536823F01F03536053680C68234369
:1046C0005360536823F44043536053684C6823435A
:1046D0005360536823F470635360536889680B43D5
:1046E000536000210170084610BD022010BD00007B
:1046F0000023014078B50024009490F83C20012A62
:1047000019D0012280F83C200A6807230568092A8D
:1047100013D9EE680A3A02EB420293409E43EE60E0
:104720000B788A680A3B03EB43039A400368DD6811
:104730002A43DA6010E0022078BD2E6902EB4202C3
:1047400093409E432E610B788A6803EB43039A40A3
:1047500003681D692A431A614A681F23072A13D276
:1047600005686E6B521E02EB820293409E436E639D
:104770000B790A885B1E92B203EB83039A400368AD
:104780005D6B2A435A6327E005680D2A12D22E6B0F
:10479000D21F02EB820293409E432E630B790A885C
:1047A000DB1F92B203EB83039A4003681D6B2A431D
:1047B0001A6311E0EE6A0D3A02EB820293409E43C7
:1047C000EE620B790A880D3B92B203EB83039A40A9
:1047D0000368DD6A2A43DA62164B0568144A9D4273
:1047E00006D10D68122D03D1556845F4800555603A
:1047F00005689D4218D10B68102B01D0112B13D1E5
:10480000536843F400035360096810290CD10A4926
:104810000A4A0968B1FBF2F101EB8101490000E0AD
:10482000491E00910029FBD180F83C40002078BD52
:104830000023014000200140C400002040420F003E
:1048400070477047704770B504004FF0000503D003
:10485000206C002610B107E0012070BD204600F05A
:104860001DF8666484F83C60206CC00610D4206C8F
:1048700020F4885040F0020020642046FDF7E4FA5E
:104880006664206C20F0020040F00100206400E02B
:10489000012584F83C60284670BD0000F0B587B063
:1048A000064614216846FBF7DAFE5648DFF850C189
:1048B00033680024534914380325534A534F634542
:1048C00021D10B6843F480730B60096801F4807197
:1048D0000591016841F004010160016801F00401E3
:1048E0000591016841F0010101600068694600F02E
:1048F000010005900920CDE900050294104600F062
:104900003BFB012024E0DFF808C1634531D10B688F
:1049100043F400730B60096801F4007105910168AC
:1049200041F004010160016801F004010591016892
:1049300041F0010101600068694600F00100059046
:104940000A20CDE900050294104600F015FB022074
:10495000CDE9000569460294384600F00DFB0022BF
:104960000521122000F092FC122000F081FC07B01B
:10497000F0BDDFF8A0C06345F9D10B6843F4806354
:104980000B60096801F480610591016841F0040140
:104990000160016801F004010591016841F0010125
:1049A00001600068694600F0010005900C20CDE927
:1049B00000050294104600F0DFFA0420CDE900055E
:1049C00069460294384600F0D7FA144D1248286020
:1049D0008005C5E901040014C5E903404000686191
:1049E0008000A8614011C5E9070428466C6200F008
:1049F0000FFA08B1FEF7D8FDB563AE63AFE700006C
:104A000000200140443802400008024000000240FB
:104A10000021014000220140106402404C060020A9
:104A200018B50021009190F83C20012A07D00122FE
:104A300080F83C2002689368DB0702D011E0022076
:104A400018BD936843F0010393602E4A2E4B126801
:104A5000B2FBF3F202EB420200E0521E0092002A87
:104A6000FBD102689368DB0742D0036C40F201641B
:104A7000A34343F48073036453685B0505D5036C5B
:104A800023F4005343F480530364036CDB0404D524
:104A9000436C23F00603436400E0416480F83C105B
:104AA0001A496FF02203136049680068CA06184962
:104AB00006D0884224D1816811F0405F13D01FE0F6
:104AC0008842F8D0134A904203D1D1F80423D20689
:104AD000F1D0114A904213D1D1F8041301F01F0113
:104AE0001029E8D30CE0816841F08041816007E043
:104AF000016C41F010010164416C41F0010141641D
:104B0000002018BDC400002040420F0000230140D7
:104B1000002001400021014000220140F8B5044678
:104B200000200E46009094F83C10012907D0012186
:104B300084F83C1021688B68DB0702D011E002206A
:104B4000F8BD8B6843F001038B604049404B096816
:104B5000B1FBF3F101EB410100E0491E0091002996
:104B6000FBD121688B68DB0503D58B6823F4807348
:104B70008B6021688B68DB075DD0236C40F2016598
:104B8000AB4343F4807323644968490505D5216C20
:104B900021F4005141F480512164216CC90404D5F1
:104BA000616C21F00601616400E0606484F83C00FF
:104BB000A16B2948274DC863A16B28480864A16BE5
:104BC0002748C86421686FF02200086020684168A7
:104BD00041F0806141602068816841F480718160AA
:104BE0002168134632464C31A06B00F07BF96868AF
:104BF0001C49C006206806D0884224D1816811F083
:104C0000405F13D01FE08842F8D0174A904203D18A
:104C1000D1F80423D206F1D0144A904213D1D1F82E
:104C2000041301F01F011029E8D30CE0816841F062
:104C30008041816007E0206C40F010002064606CCF
:104C400040F0010060640020F8BD0000C4000020B6
:104C500040420F0000230140591B0008DD1B0008E3
:104C6000C71B000800200140002101400022014034
:104C70002DE9F84304464FF00009CDF80090634851
:104C80004FF41651A56D0068B0FBF1F72E6894F84B
:104C90005C10082000FA01F131420FD021680A6847
:104CA00052070BD50A6822F004020A6094F85C10DF
:104CB0008840A860606D40F00100606594F85C1069
:104CC0004FF0010808FA01F0304208D02168496924
:104CD000090604D5A860606D40F00200606594F894
:104CE0005C1004208840304208D021680968890798
:104CF00004D5A860606D40F00400606594F85C1015
:104D000010208840304218D021680968090714D55E
:104D1000A86020680168490304D50068000308D52D
:104D2000A16C07E00168C90503D4016821F00801FE
:104D30000160216C09B12046884794F85C1020205E
:104D40008840304231D021680968C9062DD5A86055
:104D500094F8350005282068016806D0490347D536
:104D6000006800031DD4616C1CE021F01601016095
:104D70002068416921F080014161206C08B9A06C74
:104D800020B12068016821F00801016094F85C10EE
:104D90003F208840A86084F8358084F83490216DE5
:104DA0001FE0E16B09B120468847606D00282BD0D9
:104DB000606DC00714D0052084F8350020680168B4
:104DC00021F0010101600098401C0090B84203D816
:104DD00020680068C007F6D184F8358084F83490E4
:104DE000E16C002910D001B02046BDE8F04308472F
:104DF0000168C905D5D4016821F01001016084F86B
:104E0000358084F83490CCE7BDE8F883C4000020F6
:104E10002DE9F041044600F0ADF906465CB10220F0
:104E200084F83500002584F834502068016821F0AA
:104E3000010101600DE00120BDE8F08100F09AF968
:104E4000801B052805D920206065032084F83500E3
:104E5000F2E720680068C007F0D122681168204896
:104E60000140D4E901031843D4E90336334318431E
:104E700063691843A3691843E3691843236A184315
:104E80000843616A042903D1D4E90B131943084389
:104E9000106020684069666A20F0070130460E43C2
:104EA000012704280CD1A06A0643E06A40B12046DD
:104EB000FDF784FF20B14020606584F83570BAE7C3
:104EC000206846612046FDF765FF94F85C203F218D
:104ED00091408160656584F835700020ACE7000082
:104EE0003F8010F02DE9F0410446866D90F83400C3
:104EF000002501280DD0012084F8340094F8357085
:104F00000020012F07D084F8340002252846BDE890
:104F1000F0810220FBE7022784F8357060652046A7
:104F2000FDF776FF94F85C103F208840B060206861
:104F3000016841F016010160206C20B12068016811
:104F400041F0080101602068016841F00101016041
:104F5000DCE7000070B5044600F00CF90546601C63
:104F600002D004480078044400F004F9401BA04239
:104F7000FAD370BDB80000202DE9F84FDFF8BCA1CE
:104F80000022012503264FF00F090AF1040BAAF1B4
:104F9000040E00BF0B6805FA02F42340A34270D14F
:104FA0000F7907F00307012F01D0022F16D1876870
:104FB0004FEA420806FA08FC27EA0C07D1F80CC0B1
:104FC0000CFA08FC4CEA070CC0F808C04768A74375
:104FD0000C79C4F3001494403C4344600C79E443DE
:104FE000A4070AD0C4684FEA420C06FA0CF7BC4387
:104FF0008F6807FA0CF72743C7600C7904F00304A5
:10500000022C12D1D40800EB840CDCF820405707A6
:10501000FF0E09FA07F824EA0804D1F8108008FA0C
:1050200007F848EA0408CCF8208004684FEA420CEC
:1050300006FA0CF7BC430F7907F0030707FA0CF7E1
:10504000274307604C6814F4403F70D03C4C2768FD
:1050500047F480472760246822F0030704F4804463
:105060000094384C07EB040CDCF8084897074FEA2B
:10507000177809FA08F7BC43334FB84202D100272A
:1050800024E054E0314FB84201D101271EE0304FF7
:10509000B84201D1022719E02E4FB84201D10327AF
:1050A00014E02D4FB84201D104270FE02B4FB84236
:1050B00001D105270AE02A4FB84201D1062705E0B1
:1050C000284FB84201D1072700E0082707FA08F760
:1050D0002743CCF80878DAF800405746D1F804C0E6
:1050E0009C435FEACC2C00D51C433C60DBF80040BD
:1050F0005F46D1F804C09C435FEA8C2C00D51C436A
:105100003C60DEF800407746D1F804C09C435FEA7B
:105110008C3C00D51C433C60084F083F3C68D1F8EC
:1051200004C09C435FEACC3C00D51C433C60521C4D
:10513000102AFFF42FAFBDE8F88F0000083C0140B3
:1051400044380240003001400000024000040240A8
:1051500000080240000C024000100240001402400F
:1051600000180240001C02400AB181617047090426
:10517000FBE700000148806870470000B80000208D
:10518000024881680278114481607047B8000020AD
:105190000B4810B5016841F400710160016841F4E9
:1051A00080610160016841F480710160032000F0BA
:1051B0008DF80F2000F006F800F03EF8002010BD3A
:1051C000003C024010B5014688B00022372000F0B4
:1051D0005DF8372000F04CF813480024016841F0D6
:1051E00020010160006805A900F0200006906846D3
:1051F00000F052FE00F076FE0C494000B0FBF1F1E9
:105200000C480B4A491E026040F2E732C0E9032411
:10521000C0E9011401F0E4F910B1012008B010BD9B
:10522000044801F0FFFAF9E74038024040420F001D
:10523000001400406C0700200C4882B0016841F463
:1052400080410160006800F4804000900748001F22
:10525000016841F0805101600068002200F0805038
:1052600000900F21901E02B000F010B844380240A8
:10527000002809DB00F01F02012191404009800055
:1052800000F1E020C0F8001170470000F0B40E4BB0
:105290001B680C46C3F30223C3F10705042D00D994
:1052A0000425191D072901D2002300E0DB1E012679
:1052B00006FA05F1491E214099409E40761E16408F
:1052C0003143F0BC06F04DBE0CED00E0064900F0A5
:1052D000070208684FF6FF03184040EA0220034A1D
:1052E00010430860704700000CED00E00000FA0574
:1052F00070470068416200207047F0B50368586A43
:1053000039B19C6A4FF4827600EB144400204D1EA4
:105310000AE040EA024098620FE006EB8007DF599E
:10532000401C04EB1744C0B2A842F6D344EA024042
:105330004FF4807202EB810158500020F0BDD0F88C
:10534000080505F099B901EBC10200EB8202D0F823
:105350000805D26C05F0EEB801EBC10200EB820249
:10536000D0F80805D2F88C2205F03FB9D0F808052E
:1053700005F084B90A0601F00F0101EBC10100EB51
:10538000810101D53C3101E001F51F71006806F093
:10539000B9B870B504460B0601F00F0000EBC00170
:1053A00004EB81014FF001024FF0000503D581F8B5
:1053B0003D203C3103E081F87D5201F51F710870FA
:1053C00094F8BC04012808D084F8BC24206805F0B7
:1053D00053FD84F8BC54002070BD022070BD70B530
:1053E000044601F00F006268904201D9012070BDAF
:1053F0000B0601F00F0101EBC10104EB81014FF03D
:1054000001024FF0000503D581F83D203C3103E057
:1054100081F87D5201F51F718D70087094F8BC04FD
:10542000012808D084F8BC24206805F021FF84F806
:10543000BC54002070BD022070BD01F00F0101EBD3
:10544000C10100EB8100D0F89C0270472DE9F041CA
:1054500004460F0601F00F0000EBC00104EB8101D0
:105460004FF001064FF0000503D581F83D603C3157
:1054700003E081F87D5201F51F710870CA600B715D
:105480004A7802B10881022B00D14D7194F8BC0416
:10549000012809D084F8BC64206805F045FC284642
:1054A00084F8BC54BDE8F0810220FBE770B50C46DF
:1054B00001F00F0505EBC50100EB8101C1F8943245
:1054C000C1F88C220023C1F89C3281F87D3281F82A
:1054D0007C52036901F51F71012B00D14A6122073B
:1054E000027C006803D005F01BFF002070BD05F0B2
:1054F00005FEFAE770B504460D4601F00F0061683D
:10550000884201D9012070BD29064FF000064FF0F6
:10551000010207D500EBC00104EB810181F83D20B9
:105520003C3107E005EBC50104EB810181F87D62A8
:1055300001F51F718A70087094F8BC04012807D027
:1055400084F8BC24206805F0BFFE280702D007E0DD
:10555000022070BD217C04F2C442206805F05CFE8C
:1055600084F8BC64002070BD70B50C4601F00F05D6
:1055700005EBC50100EB81014B65CA640023CB65D7
:10558000012381F83D3001F83C5F0369012B00D114
:105590004A612207027C006803D005F0C1FE0020AA
:1055A00070BD05F0ABFDFAE72DE9FC5F0568044628
:1055B000284606F048F800287DD1206806F06FF8EC
:1055C000002878D0D5F80808C0F30D20C4F8FC04F2
:1055D000206806F064F8800704D52068416901F06E
:1055E00002014161206806F05AF8C10604F2C44085
:1055F000009034D52068816921F0100181612F6A03
:1056000007F00F0000EBC00004EB8006C7F3434037
:1056100006F51F76022802D0062811D01AE047F6B8
:10562000F070074216D0C7F30A12174628463169B0
:1056300006F039F8306938443061306A384408E09F
:1056400008222846009906F02EF8306AC7F30A119E
:10565000084430622068816941F01001816120684E
:1056600006F01DF800034FF0080B4FF0000A4FF052
:1056700001097CD50026206805F0F0FF074674E09C
:10568000F80770D0F1B2206806F001F88046C00734
:1056900007D005EB4611C1F8089B3146204602F0C1
:1056A0005DFD5FEA087024D505EB4611C1F808BB23
:1056B0002068016C00E025E200EB46100191D0F873
:1056C000082BFC4B994205D9110403D54FF4004136
:1056D000C0F8081B204600F005FBF64901988842F7
:1056E00007D92069012804D120680121009A05F01A
:1056F00093FD5FEAC86004D505EB46111020C1F8A0
:10570000080B5FEA88701DD56869000605D5D5F8D5
:10571000040840F48061C5F8041806EBC60004EBE9
:10572000800090F87F1200F51F70012905D180F8E4
:1057300003A0F1B2204600F0EBF905EB4611022080
:10574000C1F8080B5FEA886004D505EB46102021FC
:10575000C0F8081B5FEA884005D505EB46104FF4FA
:105760000051C0F8081B7F08761C002F88D12068E4
:1057700005F095FF40036FD5206805F068FF0746E8
:10578000002667E0F80763D0F1B2206805F06DFFEE
:105790008046C00723D006F00F0209FA02F0D5F8C0
:1057A00034288243C5F8342805EB4610C0F8089920
:1057B000206901280FD106EBC60004EB8000D0E978
:1057C00012211144C16436B9606D20B920680121ED
:1057D000009A05F021FDF1B22046FFF7B4FD5FEA23
:1057E000087003D505EB4611C1F808B95FEAC86037
:1057F00004D505EB46111020C1F808095FEA48609E
:1058000004D505EB46104021C0F808195FEA8870FE
:1058100017D53146284605F0E9FE06EBC60004EB35
:10582000800090F83F103C30012905D180F803A09A
:10583000F1B2204600F068F905EB46110220C1F8EC
:1058400008095FEA086003D53146204602F0ECFC07
:105850007F08761C002F95D1206805F020FF0028D6
:1058600011DAD5F8040820F00101C5F8041894F8FD
:10587000F40401282BD0204600F018FA2068416972
:1058800001F000414161206805F009FF00050BD5DA
:10589000D5F80808C00702D0204600F04BFA20686F
:1058A000416901F400614161206805F0F8FEC0041F
:1058B00066D5D5F8040820F00100C5F804081021C9
:1058C000206805F093FE00214FF67F321FE084F838
:1058D000F4A400212046FFF70BFDCFE705EB4110B4
:1058E000C0F80829D0F8003923F40013C0F80039B3
:1058F000C0F8082BD0F8003B23F40013C0F8003B9D
:10590000D0F8003B43F00063C0F8003B491C6068DE
:105910008842E3D8D5F81C0840F00111C5F81C18DE
:10592000206B002828460DD0D0F8840840F00B01E9
:10593000C5F88418D5F8440840F00B012846C5F88E
:1059400044180DE0D0F8140842F22B010843C5F8C2
:105950001408D5F8100840F00B012846C5F81018B7
:10596000D0F8000820F4FE61C5F80018217C2068FA
:10597000009A05F051FC2068416901F480514161B1
:10598000206805F08CFE800415D5206805F00CFA1F
:10599000206805F04BFEE06000F09EFA0146227B95
:1059A000206805F0DFFE204600F06AF920684169B2
:1059B00001F400514161206805F071FE000707D530
:1059C000204600F077F92068416901F00801416143
:1059D000206805F064FE000616D5A86920F0800056
:1059E000A86101260DE000BF06EBC60004EB8000B5
:1059F00090F87F02012803D1F1B22046FFF7BAFCEC
:105A0000761C6068B042EFD8206805F048FEC002FE
:105A100021D501264F4616E005EB4610D0F80019B7
:105A200006EBC60004EB800090F84020012A09D163
:105A3000002907DA80F83F70F0B240F0800120467C
:105A4000FFF798FC761C6068B042E5D82068416991
:105A500001F480114161206805F021FE800234D5F7
:105A600001204B4629E000BF05EB4011D1F8001B97
:105A700000EBC00204EB820696F88022012A1BD1BB
:105A8000002919DA94F8FC2401F4803102F00102B3
:105A9000914211D186F87F32A96941F08002AA6152
:105AA0006969090608D4D5F8040840F40070C5F8FF
:105AB000040805E00A30544F401C61688142D3D885
:105AC0002068416901F400114161206805F0E7FD9B
:105AD000400007D52046FFF732FC2068416901F0FD
