:020000040800F2
:10000000D86F0120290300087D760008A16B000845
:1000100065760008CD190008BDBC0008000000008E
:10002000000000000000000000000000690200085D
:10003000171C000800000000C5020008C58C00085D
:100040004303000843030008430300084303000878
:100050004303000843030008430300084303000868
:10006000430300084303000843030008DD1A0008A7
:100070004303000843030008ED1A00084303000887
:100080004303000843030008F10700084303000886
:100090004303000843030008430300084303000828
:1000A00043030008B98D0008A58D0008430300082C
:1000B00043030008DD8D0008E98D000843030008B4
:1000C00043030008430300084303000843030008F8
:1000D00043030008430300084303000843030008E8
:1000E00043030008430300084303000843030008D8
:1000F00043030008430300084303000843030008C8
:1001000043030008430300084303000843030008B7
:10011000430300084303000843030008598E000806
:10012000FD1A0008430300084303000843030008C6
:100130004303000800000000000000004303000823
:10014000430300084303000843030008BD7600088A
:100150004303000843030008430300084303000867
:100160004303000843030008430300084303000857
:1001700043030008430300080000000000000000E3
:10018000430300084303000800F002F800F05CF8A5
:100190000AA090E8000C82448344AAF10107DA45E2
:1001A00001D100F051F8AFF2090EBAE80F0013F0D8
:1001B000010F18BFFB1A43F001031847FCF20000BF
:1001C0001CF300000A444FF0000C10F8013B13F040
:1001D000070408BF10F8014B1D1108BF10F8015BA0
:1001E000641E05D010F8016B641E01F8016BF9D193
:1001F00013F0080F1EBF10F8014BAD1C0C1B09D1EA
:100200006D1E58BF01F801CBFAD505E014F8016B5B
:1002100001F8016B6D1EF9D59142D6D370470000ED
:100220000023002400250026103A28BF78C1FBD8FF
:10023000520728BF30C148BF0B6070471FB50EF092
:10024000B5FF1FBD10B510BD00F010FA1146FFF745
:10025000F5FF0CF0E7FC00F02EFA03B4FFF7F2FF15
:1002600003BC00F031FA00002C4B19680868B0E8B4
:10027000F04F80F30988BFF36F8F4FF0000080F3D9
:10028000118870470000000008480068006880F38B
:1002900008884FF0000080F3148862B661B6BFF39F
:1002A0004F8FBFF36F8F00DF00BF00BF08ED00E08E
:1002B000DFF80C00016841F470010160704700BF75
:1002C00088ED00E0EFF30980BFF36F8F134B1A68DE
:1002D0001EF0100F08BF20ED108A20E9F04F1060CB
:1002E00009B44FF0500080F31188BFF34F8FBFF374
:1002F0006F8F0DF0B1FE4FF0000080F3118809BC44
:1003000019680868B0E8F04F1EF0100F08BFB0EC95
:10031000108A80F30988BFF36F8F704704020020B2
:10032000EFF30580704700000948804709480047FF
:10033000FEE7FEE7FEE7FEE7FEE7FEE7FEE7FEE795
:10034000FEE7FEE704480549054A064B70470000F2
:10035000918D000889010008D86F0020D86F012016
:10036000D8EF0020D8EF002053EA020C00F069809B
:100370002DE9F04B4FF00006002B1FBFB3FA83F5B9
:1003800003FA05F424FA05F65E4012BF1643B2FAEA
:1003900082F502FA05F4C5F120051EBF22FA05FC1C
:1003A00044EA0C04203556EA044C4FEA144418BFC2
:1003B000641C4FF000084FF00009904271EB030CF1
:1003C00039D3002919BFB1FA81F701FA07F6B0FA5B
:1003D00080F700FA07F6C7F120071EBF20FA07FCD6
:1003E00046EA0C062037B6FBF4FCA7EB0507103FE6
:1003F00007F01F0BCBF120060CFA0BFB2CFA06F6CC
:1004000044BFB3460026202FA4BF5E464FF0000B2A
:100410005BEA060C08BF4FF0010B19EB0B09ABFBB5
:10042000027C48EB0608C01B06FB02CC0BFB03CC8E
:1004300071EB0C01C1E70B46024641464846BDE858
:10044000F08B13B54FF000004FF00001AFF30080C8
:10045000BDE81C40704740EA010310B59B070FD16F
:10046000042A0DD310C808C9121F9C42F8D020BA24
:1004700019BA884201D9012010BD4FF0FF3010BDDC
:100480001AB1D30703D0521C07E0002010BD10F8AA
:10049000013B11F8014B1B1B07D110F8013B11F870
:1004A000014B1B1B01D1921EF1D1184610BD032A2E
:1004B00040F2308010F0030C00F0158011F8013B81
:1004C000BCF1020F624498BF11F801CB00F8013B68
:1004D00038BF11F8013BA2F1040298BF00F801CB2C
:1004E00038BF00F8013B11F0030300F02580083A03
:1004F000C0F0088051F8043B083A51F804CBA0E85A
:100500000810F5E7121D5CBF51F8043B40F8043BAE
:10051000AFF30080D20724BF11F8013B11F801CBE3
:1005200048BF11F8012B24BF00F8013B00F801CBB4
:1005300048BF00F8012B704710B5203AC0F00B807F
:10054000B1E81850203AA0E81850B1E81850A0E8D7
:100550001850BFF4F5AF5FEA027C24BFB1E8185031
:10056000A0E8185044BF18C918C0BDE810405FEAA1
:10057000827C24BF51F8043B40F8043B08BF70471D
:10058000D20728BF31F8023B48BF11F8012B28BF22
:1005900020F8023B48BF00F8012B704702F0FF0330
:1005A00043EA032242EA024200F037B84FF0000269
:1005B00000B5134694469646203922BFA0E80C5059
:1005C000A0E80C50B1F12001BFF4F7AF090728BF34
:1005D000A0E80C5048BF0CC05DF804EB890028BFB0
:1005E00040F8042B08BF704748BF20F8022B11F0D9
:1005F000804F18BF00F8012B704770477047704755
:1006000010B500F02BF8006810BD10B5044600F0DE
:1006100025F8046010BD4FF000020429C0F01280DC
:1006200010F0030C3FF4C4AFCCF1040CBCF1020F8A
:1006300018BF00F8012BA8BF20F8022BA1EB0C017A
:10064000FFF7B6BF5FEAC17C24BF00F8012B00F8BA
:10065000012B48BF00F8012B70470000004870478D
:10066000746F002000487047746F00207546FFF7D4
:10067000F9FFAE4605006946534620F0070085465F
:1006800018B020B5FFF75EFEBDE820404FF0000631
:100690004FF000074FF000084FF0000B21F007016A
:1006A000AC46ACE8C009ACE8C009ACE8C009ACE8AD
:1006B000C0098D46704710B50446AFF30080204650
:1006C000BDE81040FFF7C9BD01491820ABBEFEE7E9
:1006D000260002007047000010B52DED048BB0EE2F
:1006E000409AB0EE608A9FED150AF0EE409A39EE1E
:1006F000480AB0EEC00AF0EE408AB0EE490A06F0B1
:10070000BFFFB0EE409AB0EE480A06F0B9FFB0EE77
:10071000408A9FED0B0AF4EEC08AF1EE10FA02D285
:10072000F0EE689A05E09FED070A30EE680AF0EEF9
:10073000409AB0EE690ABDEC048B10BD00000000C9
:10074000DB0F4940DB0FC94070B50546AC6B206C30
:1007500000F0500050BB206C40F400702064206812
:10076000806800F04050E8B9207ED8B92068C06A9F
:1007700000F4700020B12068806800F4806088B9BF
:100780002068406820F0200021684860206C20F438
:1007900080702064206C00F4805018B9206C40F008
:1007A00001002064204603F04FF80BE0206C00F0BD
:1007B000100018B1204603F049F803E0A06BC16CAB
:1007C0002846884770BD70B50546AC6B4020206454
:1007D000606C40F004006064204603F037F870BDA0
:1007E00070B50446A56B284603F02FF870BD0000D5
:1007F00000B52DED028B87B00120A54908600020CF
:10080000A4490860A4490860A249C1F8000208464A
:10081000C06B00EE100AB8EE400AA04880ED000A56
:100820009D483C30006800EE100AB8EE400A9B4834
:1008300080ED010A9A48006800EE100AB8EE400AFE
:10084000964880ED020A0846006C00EE100AB8EEE9
:10085000400A924880ED030A8F484030006800EE5D
:10086000100AB8EE400A8D4880ED040A8C48001D3D
:10087000006800EE100AB8EE400A884880ED050ACC
:1008800090ED000ADFED870A20EE200A864880ED11
:10089000000A824890ED010ADFED820A20EE200A6C
:1008A000814880ED010A7D4890ED020ADFED7D0A66
:1008B00020EE200A7C4880ED020A784890ED030A79
:1008C000BDEEC00A10EE100A784991ED040ABDEEA3
:1008D000C00A10EE101A401A00EE100AB8EEC00A54
:1008E000DFED730A20EE200A724880ED000A6B48A3
:1008F00090ED040ABDEEC00A10EE100A6B4991EDAE
:10090000050ABDEEC00A10EE101A401A00EE100AD9
:10091000B8EEC00ADFED660A20EE200A654880EDD9
:10092000010A5E4890ED050ABDEEC00A10EE100AFD
:100930005E4991ED060ABDEEC00A10EE101A401A8B
:1009400000EE100AB8EEC00ADFED590A20EE200AC8
:10095000584880ED020A5848006890ED000A8DED75
:10096000040A5548406890ED000A8DED050A52488A
:10097000806890ED000A8DED060A5048006890ED01
:10098000000A8DED010A4D48406890ED000A8DED9A
:10099000020A4A48806890ED000A8DED030A484833
:1009A00090ED010AB8EE400AF7EE000A80EE801AD8
:1009B000B0EE418AF0EE480A9FED420A032204A9F4
:1009C000414806F07BFA3E4890ED010AB8EE400A35
:1009D000F7EE000A80EE801AB0EE418AF0EE480A87
:1009E0009FED380A032201A9384806F067FA384813
:1009F000008800EE100AB8EE400ADFED2A0A20EE69
:100A0000200ABCEEC00A2E4880ED030A314890ED62
:100A1000020AF7EE000A70EEC00A294890ED040AB7
:100A2000B8EE400A20EE800A2A4890ED021A2448C7
:100A3000D0ED030AF8EE600A01EE200ABCEEC00A0F
:100A400080ED040A0220124908602348007801283A
:100A500014D12248007805280FD2DFE800F0030601
:100A6000090A0B0000F03CF907E001F0C3FD04E0C7
:100A700003E000BF06F0BAF900BF00BF4FF400303A
:100A8000034908604010086007B0BDEC028B00BD50
:100A9000180402400020014000210140500A0020BB
:100AA0003C22014017777141680A00201C01002098
:100AB0000FF00041800A00203C0100204801002086
:100AC000A400002000409C45740A00208C0A0020ED
:100AD00038010020BC00002084010020B800002064
:100AE00055494A6822F440324A604A6843681A43CA
:100AF0004A600268526822F4807203685A60026891
:100B00005368026943EA022203685A600268526825
:100B100022F0407203685A600268526883681A4380
:100B200003685A600268926822F4006203689A605F
:100B300002689268C3681A4303689A603F4B826AEE
:100B40009A4218D00268926822F0706203689A6034
:100B500002689268836A1A4303689A60026892681E
:100B600022F0405203689A6002689268C36A1A438E
:100B700003689A600BE00268926822F07062036872
:100B80009A600268926822F0405203689A60026894
:100B9000926822F0020203689A6002689368027EFB
:100BA00043EA420203689A602022125CA2B1026802
:100BB000526842F4006203685A600268526822F484
:100BC000604203685A6002685368426A521E43EAF0
:100BD000423203685A6005E00268526822F40062FB
:100BE00003685A600268D26A22F470020368DA620B
:100BF0000268D36A828B521E43EA02520368DA62A9
:100C00000268926822F4007203689A60026893682E
:100C100090F8302043EA422203689A6002689268A2
:100C200022F4806203689A6002689368426943EA2A
:100C3000822203689A607047002301400100000F80
:100C400010B52DED028B00F02FF81449888008466E
:100C5000808800EE100AB8EE400A9FED111AC0EE2F
:100C6000010A084690ED020A9FED0E1A10EE810A65
:100C7000B0EE408A06F004FD084880ED030A807853
:100C800040B1064890ED030ADFED060A30EEC00AD7
:100C900080ED030ABDEC028B10BD00005401002062
:100CA00000FC7F46DB0FC9404FF6FF7100224FF476
:100CB0008010094B98610948C160C06882B200BFCA
:100CC0000648806800F080000028F9D11020024B0F
:100CD0009861C2F30D0070470000024000300140EF
:100CE00010B52DED048BFE48007800287ED1FD481C
:100CF00090ED000AD0ED010A30EE200AD0ED020A94
:100D000030EE200AF0EE080A80EE201AF64880ED58
:100D1000051AF34890ED0D0AF7EE000A30EEC00A0E
:100D2000F148D0ED060A20EE200AED48D0ED0D0A7C
:100D3000ED4890ED051A00EE810A80ED060A007874
:100D4000012830DDE848806E44F62061884207DDE6
:100D5000E548406B012803D001200AF077FF22E02C
:100D6000E148806E42F21071884207DDDE48406B38
:100D7000022803D002200AF069FF14E0DA48806EEE
:100D800041F28831884207DDD748406B042803D000
:100D900004200AF05BFF06E0D348406B082802D02D
:100DA00008200AF053FFD048C0694000CE49C8610E
:100DB0000846006A4100CC480162406A4100CA48C6
:100DC0004162007818B1C8480078032818DBC6488B
:100DD00090ED060ADFEDC50AB4EEE00AF1EE10FA76
:100DE0000ED20020C0498864C86400E04CE2086567
:100DF0004866C866C8610021BB480162416238E0AC
:100E0000B84890ED000AB848D0ED060AB4EEE00A02
:100E1000F1EE10FA01DD012000E00020B249C969BD
:100E20000843B149C861AF4890ED010A0846D0EDCA
:100E3000060AB4EEE00AF1EE10FA01DD012000E04E
:100E40000020A949096A0843A7490862A54890ED0E
:100E5000020A0846D0ED060AB4EEE00AF1EE10FAF6
:100E600001DD012000E000209F49496A08439E49B6
:100E700048629D48C0699C49896B08409A49C8638B
:100E80000846C06B896B884203D10120964988626D
:100E900005E09548C06B10B90020934988629248DC
:100EA000006A9149896B08408F4908640846006CC4
:100EB000896B884203D101218B48C16205E08A48D1
:100EC000006C10B900218848C1628748406A864991
:100ED000896B0840844948640846406C896B8842A5
:100EE00003D101218048016305E07F48406C10B9BF
:100EF00000217D4801637C4890F8281090F82C0070
:100F000001EB4001784890F8300001EB8000764911
:100F100008740846C06D401CC8650846407C097CC2
:100F200088427DD07048007C6F4948740846806CC8
:100F3000C864002088646E4890ED040AF7EE000A49
:100F400070EEC00A084690ED140AB8EE400A20EE92
:100F5000800A674890ED041A0846D0ED130AF8EEAF
:100F6000600A01EE200ABCEEC00A80ED140A5C485B
:100F7000407950B10846006D5949497948433C21B0
:100F8000B0FBF1F05849486502E000205649486539
:100F90005548007C5749095C534890F87A207430D2
:100FA00081547438C16C90F87A207C3040F822105B
:100FB0007C3890F87A00401CC0B24B4981F87A0026
:100FC00006282BDB002081F87A000846D0F8A8001C
:100FD000C0EB00108000C96DB0FBF1F0424991F9FF
:100FE0006010484340494866486E002801DB0146CE
:100FF00000E041423C4A91661046406E384909790A
:1010000090FBF1F01146C8660846806E34490979B4
:1010100090FBF1F0114608670020C865324800E0F7
:1010200006E1C16FD0F8800001442F48D0F8840059
:1010300001442D48D0F8880001442B48D0F88C009A
:1010400001442948D0F8900008442749C1F8940089
:101050000846D0F89400062190FBF1F02249C1F82F
:1010600098000846C06FD1F89810401A40431E49B6
:10107000D1F880101C4AD2F898208A1A1A49D1F85F
:101080008010194BD3F89830C91A02FB0101164899
:10109000D0F88400144AD2F89820821A1248D0F866
:1010A0008400114BD3F89830C01A02FB00110E488F
:1010B000D0F888000C4AD2F89820821A0A48D0F852
:1010C0008800094BD3F89830C01A02FB001106487B
:1010D000D0F88C00044AD2F89820821A02480BE01B
:1010E0002C000020740A0020EC0600200000C842FA
:1010F000BC00002048F30008D0F88C00F74BD3F870
:101100009830C01A02FB0011F448D0F89000F34A5E
:10111000D2F89820821AF148D0F89000EF4BD3F81B
:101120009830C01A02FB0010EC49C1F89C00084638
:10113000D0F89C00062190FBF1F0E849C1F89C0032
:10114000D1F89C000DF0BBFE41EC190BB0EE490A42
:10115000F0EE690A0BF004FCB0EE408AF0EE608A13
:1011600051EC180B0DF07CFEDC49C1F89C0000240A
:101170005AE004EB4401DA4A02EB41000622D74967
:101180007431FFF768F910BBD4480078012812D1F8
:10119000D248D0F89C00D349098C88420BDACF485A
:1011A0008088D049898B884205DD0520CB4948706D
:1011B00000208860C860C948D0F89C00C949C98C23
:1011C000884203DA0120C54981F860002EE004EB73
:1011D0004401C54A02EB41000622C0497431FFF7C1
:1011E0003AF9F8B9BD48007801280FD1BB48D0F8CA
:1011F0009C00BC49098C884208DAB8488088B94903
:10120000898B884202DD0520B4494870B348D0F884
:101210009C00B449C98C884203DAFF20AF4981F8A9
:10122000600003E0601CC4B2062CA2DB00BF04E037
:10123000AA48806C401CA9498864A848C07CA7497A
:10124000097C884204D0A548806D401CA34988656C
:10125000A248D0F8A800A349498C48434FF47A71BA
:10126000B0FBF1F09D49896C88420CD200209B496B
:101270008864C86408654866C8660846007802281D
:1012800001D107F0BBFCD4E09448406E42F21071EB
:10129000884207DD95488069012803D901200AF0BA
:1012A000D5FC06E091488069022802D902200AF0A4
:1012B000CDFC8E48006840008C49086008464068B4
:1012C0004000486008468068400088600846006822
:1012D00087490968C1F380110843844908600846BA
:1012E000406883490968C1F3C01108437F494860D9
:1012F000084680687E490968C1F3002108437B499C
:10130000886008460068C96908407849086208464C
:10131000006AC969884203D101207449C86005E0A8
:101320007248006A10B900207049C8606F48406870
:101330006E49C96908406D4948620846406AC969F2
:10134000884203D101216948016105E06748406A8C
:1013500010B9002165480161644880686349C96922
:101360000840624988620846806AC969884203D198
:1013700001215E48416105E05C48806A10B90021A6
:101380005A4841615948017B007C01EB40015748B4
:10139000007D01EB8000554981F82C00084690F84B
:1013A0002D0091F82C1088423ED0504890F82C0027
:1013B0004E4981F82D004948806C4849C864002096
:1013C00088644C4890ED040AF7EE000A70EEC00AFB
:1013D000084690ED140AB8EE400A20EE800A45480F
:1013E00090ED041A0846D0ED130AF8EE600A01EEFB
:1013F000200ABCEEC00A80ED140AD0F8A80000EB69
:1014000080004000096DB0FBF1F0344991F96010A3
:101410004843324948660846406E3249097990FB94
:10142000F1F02E49C86604E02C48806C401C2B4922
:1014300088642A4890ED1A0AB8EEC00ADFED2E0A39
:1014400080EE201A2D4880ED021A244800780628E4
:101450000BD2DFE800F0030BFEFDFCFB2848006A1E
:1014600040F25551884326490862DCE11B48407828
:1014700006287AD2DFE800F0034858697AEE9FED3B
:10148000210A184880ED0C0A0AF020FC1348B0F835
:10149000AC0000EE100AB8EE400A1248D0ED020A85
:1014A00020EE200ABCEEC00A10EE100A0B49A1F88B
:1014B000AE00002088600846D0F8A8000949C96835
:1014C00048434FF47A71B0FBF1F00449C860012041
:1014D00048700020887088803CE10000EC06002005
:1014E0004FF300082C00002073F30008E8090020E7
:1014F00010080240BC00002000007042A400002040
:101500000000014000000000FE488068401CFD49CA
:10151000886008468068C968884204D90020F94973
:1015200088600220487015E1F648D0F8A800F64916
:10153000096948434FF47A71B0FBF1F0F149C86092
:10154000032048700120887004E1EE488068401C48
:10155000EC49886008468068C968884204D9002040
:10156000E849886004204870F4E0F2E0E5488078BB
:10157000401CE449887008468078052801DD002079
:1015800088700020DF49886003204870DE4840886A
:10159000DD490979484300EE100AB8EEC00ADA487E
:1015A000D0ED020A60EE200AD84890ED040AB8EEA9
:1015B000400A20EE800ADFEDD60A80EE201AD148DC
:1015C000D0F8A80000EB8000400000EE100AB8EE52
:1015D000400AC0EE010ACB4890ED030AB8EE400A7B
:1015E000F4EEC00AF1EE10FA7ED20246B2F8AE2056
:1015F00000EE102AB8EE400A0246B2F8AC2000EE27
:10160000902AF8EE600AC04A92ED061A00EE810AAE
:10161000BCEEC00A10EE102A0346A3F8AE20024624
:1016200092ED030AB8EE400AB74AD2ED050A20EE61
:10163000200ABCEEC00A024682ED030AB2F8AC20D2
:1016400000EE102AB8EE400AAF4A04E0E6E0E2E01D
:10165000DCE098E072E0D2ED020A20EE200AF0EE23
:10166000000A20EE200AB5EEC00AF1EE10FA02D20E
:101670001FED5C0A29E0A34AB2F8AC2000EE102A64
:10168000B8EE400AA04AD2ED020A20EE200AF0EE9F
:10169000000A20EE200ADFED9F0AB4EEE00AF1EE28
:1016A00010FA02DD9FED9B0A0FE0964AB2F8AC20DB
:1016B00000EE102AB8EE400A934AD2ED020A20EE5C
:1016C000200AF0EE000A20EE200ABCEEC00A10EE5E
:1016D000102A90B28B4AB2F8AC2000EE102AB8EE75
:1016E000400ADFED8D0A00E01BE020EE200ABCEE90
:1016F000C00A10EE102A91B2824AB2F8AE208A4295
:1017000001DA0A4609E07F4AB2F8AE20824201DDE2
:10171000024602E07B4AB2F8AE207A4BA3F8AE2034
:1017200000BF784881888088401C764A908076483F
:10173000C08B814201DD07F061FA0BE002207149A4
:10174000087000204870704890ED0A0A80ED0C0A7D
:1017500000E000BF00BF71484078012806D1694809
:1017600080786F49085C6749C87005E065488078F3
:101770006C49085C6349C8700AF0A8FA6149C878E6
:1017800005F0B6F84FE060480078C8B95D48806D54
:101790005C49496D88420ED900205A49886508463F
:1017A000007CC8740846007C88740AF08FFA55499A
:1017B000887C05F09DF85349887C05F00DF824E0FD
:1017C00002205049087050480078022808D1564835
:1017D00090F82C00401E5549085C4A4988740AE07C
:1017E00049480078032806D14F4890F82C0050490A
:1017F000085C444988740AF069FA4249887C05F01B
:10180000D7F84049887C05F05FF90CE00AF05EFAF1
:1018100000F0C4F807E001F0C5F804E00AF056FA59
:1018200006F050F900BF00BF424890ED000A424860
:1018300080ED000A3F4890ED010A3F4880ED010A23
:101840003C4890ED020A3C4880ED020A2D4890ED9C
:10185000050A394880ED030A384890ED000A3648F9
:1018600080ED040A354890ED010A334880ED050A01
:10187000324890ED020A304880ED060A214890ED8A
:10188000060A2D4880ED070A1E48007800EE100A6F
:10189000B8EE400A284880ED080A1A48407800EE61
:1018A000100AB8EE400A244880ED090A1548C078AD
:1018B00000EE100AB8EE400A1F4880ED0A0A1148EF
:1018C000007C00EE100AB8EE400A1B4880ED0B0ABF
:1018D0000C48807C00EE100AB8EE400A164880EDF5
:1018E0000C0A084890ED130AB8EE400A124880ED41
:1018F0000D0A044890ED140AB8EE400A0E4880ED37
:101900000E0A1DE0EC0600202C000020A4000020A0
:1019100000007A4400FF7F47CDCCCC3DB8000020CA
:101920003CF3000842F30008E8090020DC00002036
:10193000E2000020680A002050060020740A0020FF
:10194000144890ED270AB8EEC00A134880ED0F0A3C
:10195000104890ED170AB8EE400A0F4880ED100AC3
:101960000C4890ED280A0C4880ED110A094890EDCA
:10197000290A094880ED120A064890ED2A0AB8EEB5
:10198000400A054880ED130A542100F06BF8BDECC5
:10199000048B10BDEC06002050060020094BB3F864
:1019A000AC20B3F8AE00084B196ADA62586398634A
:1019B000D86340F25553994340F244431943024BD4
:1019C00019627047EC0600200000014000BFFEE7EE
:1019D0000346042B15D007DC7BB1012B0ED0022B64
:1019E0000DD0032B12D10BE0202B0BD0212B0AD0D2
:1019F000222B09D0232B09D107E008E007E006E0FD
:101A000005E004E003E002E001E000E000BF00BF09
:101A1000002070470020704710B500220449054897
:101A200007F0BDFE0449034807F0AAFE002010BDE0
:101A300074170020980A0020740F002070B5044627
:101A40000D462146034807F09BFE024807F064FE5E
:101A5000002070BD980A002010B503460C460021F6
:101A6000084610BD2DE9F04104460D4600260A48FF
:101A7000D0F8BC72D7F8140210B10120BDE8F08193
:101A80002A462146044807F08AFE034807F03AFF39
:101A900006463046F2E70000980A002030EE812A20
:101AA000F6EE002AF0EE401A42EEC21A9FED092A25
:101AB00061EE821AC0ED001A70EEC11A9FED062A7F
:101AC00061EE821A9FED032A61EE821AC1ED001ABF
:101AD00070470000AAAA2A3FD7B35D3F10B502485D
:101AE00002F098F910BD00009005002010B50248E2
:101AF00002F090F910BD0000F005002010B502487A
:101B000002F088F910BD0000EC03002001460878BF
:101B100010381823B0FBF3F20848805CC865032A2C
:101B200005D908686FF30900001D886503E008689F
:101B30006FF309008865886D7047000018F400088D
:101B4000014600208A6A8B69CBB932B1012A0DD0D7
:101B5000022A03D0032A10D10EE000BFCB6A03F0A3
:101B60008073B3F1807F00D1012007E0CB6AB3F12D
:101B7000C07F00D1012001E000E000BF34E08B69AC
:101B8000B3F5005F1AD132B1012A07D0022A03D07F
:101B9000032A11D10AE000BF01200EE0CB6A03F056
:101BA0008073B3F1807F00D1012006E0CB6AB3F1EE
:101BB000C07F00D1012000E000BF15E032B1012A52
:101BC00005D0022A04D0032A0CD103E000BF00BFD5
:101BD000012008E0CB6A03F08073B3F1807F00D16D
:101BE000012000E000BF00BF704730B504682468E2
:101BF00024F4802405682C60046863608468402CA9
:101C000004D10468A2600468E16003E00468A16094
:101C10000468E26030BD7047F0B52DED068B99B0D9
:101C2000B0EE409A00269FEDFE0AF0EE408A5A245C
:101C300078259FEDFB0AB0EE408A182103A8FEF735
:101C4000B5FC00200190029005F08EF9F548006A7D
:101C500040F255510843F349086256E0F248D0ED8E
:101C6000021AB0EE611AD0ED011AF0EE610AD0ED61
:101C7000001AB0EE610AED49081FFFF70FFF00EEF2
:101C8000104AB8EEC00ADFEDEA0A80EE201AF0EE44
:101C9000419AE648303890ED0C1AF0EE410A90ED8A
:101CA0000B1AB0EE410AB0EE691A00F140013C3067
:101CB00005F0DFFE00EE104AB8EEC00ADFEDDC0AE8
:101CC00080EE201AF0EE419AB0EE692ADFEDD41AC8
:101CD000B0EE681ADFEDD20A9FEDD10A06F0C2F924
:101CE0009FEDD40A38EE800AF0EE408A9FEDD20ACA
:101CF000F4EEC08AF1EE10FA04DD9FEDCF0AF0EEAB
:101D0000408A0BE001200BF003F8C848303890ED12
:101D10000F0AB4EEC90AF1EE10FA9FD300BF4FF4D8
:101D20007A700AF0F5FF002709E0FEF7BDFF09A968
:101D300021F8170001200AF0EBFF781CC7B2202F12
:101D4000F3DB202109A80AF02DFF04200CE009A9EB
:101D500031F8101000EE101AB8EE400A30EE080A02
:101D6000B0EE408A411CC8B21C28F0DBB3EE080A72
:101D7000C8EE000AB0EE608ADFEDB00A88EE200AF5
:101D8000DFEDAF0A20EE200AF0EE409A05F078FC75
:101D90008DED030A9DED030ADFEDAA0A80EE201AFD
:101DA000BCEEC10A10EE100AC0B28DF804009FED1F
:101DB0009C0AB0EE408A002721E000EE104A641C25
:101DC000B8EEC00ADFED9A0A80EE201AB0EE41AA02
:101DD000B0EE4A0A05F054FCF0EE409AB0EE692AE3
:101DE000DFED8F1AB0EE681ADFED8D0A9FED8C0AD9
:101DF00006F038F90A200AF08BFF781C07B2AF42D0
:101E0000DBDB4FF4FA700AF083FF002709E0FEF7EE
:101E10004BFF09A921F8170001200AF079FF781C6F
:101E2000C7B2202FF3DB202109A80AF0BBFE042053
:101E30000CE009A931F8101000EE101AB8EE400AB3
:101E400030EE080AB0EE408A411CC8B21C28F0DB14
:101E5000B3EE080AC8EE000AB0EE608ADFED770A3A
:101E600088EE200ADFED760A20EE200AF0EE409A96
:101E700005F006FC8DED040A9DED040ADFED710A04
:101E800080EE201ABCEEC10A10EE100AC0B28DF826
:101E900005009FED630AB0EE408A2FB221E000EE0C
:101EA000104A641EB8EEC00ADFED610A80EE201A07
:101EB000B0EE41AAB0EE4A0A05F0E2FBF0EE409A1D
:101EC000B0EE692ADFED561AB0EE681ADFED540A5B
:101ED0009FED530A06F0C6F80A200AF019FF781E93
:101EE00007B2002FDBDC4FF4FA700AF011FF002775
:101EF00009E0FEF7D9FE09A921F8170001200AF030
:101F000007FF781CC7B2202FF3DB202109A80AF0B5
:101F100049FE04200CE009A931F8101000EE101A57
:101F2000B8EE400A30EE080AB0EE408A411CC8B252
:101F30001C28F0DBB3EE080AC8EE000AB0EE608A97
:101F40009FED3E0AC8EE000A9FED3D0A20EE800A92
:101F5000F0EE409A05F094FB8DED050A9DED050A23
:101F6000DFED380A80EE201ABCEEC10A10EE100A2E
:101F7000C0B28DF806009FED2A0AB0EE408A2FB25B
:101F800021E000EE104A641EB8EEC00ADFED280A18
:101F900080EE201AB0EE41AAB0EE4A0A05F070FBBE
:101FA000F0EE409AB0EE692ADFED1D1AB0EE681A25
:101FB000DFED1B0A9FED1A0A06F054F80A200AF01A
:101FC000A7FE781E07B2002FDBDC4FF4FA700AF090
:101FD0009FFE002709E0FEF767FE09A921F8170018
:101FE00001200AF095FE781CC7B2202FF3DB2021D8
:101FF00009A80AF0D7FD04200CE009A931F8101057
:1020000000EE101AB8EE400A30EE080AB0EE408A30
:10201000411CC8B21C28F0DBB3EE080A14E0000033
:1020200000000000000001408C0A00204008002051
:10203000E12E65426F12833AD7B35D3F00FC7F46C5
:10204000DB0FC940DB0FC93FC8EE000AB0EE608A63
:102050005FED060A88EE200A5FED070A20EE200AEF
:10206000F0EE409A05F00CFB8DED060A9DED060A98
:102070005FED0C0A80EE201ABCEEC10A10EE100AC9
:10208000C0B28DF807001FED1A0AB0EE408A002793
:1020900021E000EE104A641CB8EEC00A5FED1C0A95
:1020A00080EE201AB0EE41AAB0EE4A0A05F0E8FA36
:1020B000F0EE409AB0EE692A5FED271AB0EE681A8A
:1020C0005FED290A1FED2A0A05F0CCFF0A200AF06D
:1020D0001FFE781C07B2AF42DBDB4FF4FA700AF048
:1020E00017FE002709E0FEF7DFFD09A921F8170018
:1020F00001200AF00DFE781CC7B2202FF3DB20214F
:1021000009A80AF04FFD04200CE009A931F81010CD
:1021100000EE101AB8EE400A30EE080AB0EE408A1F
:10212000411CC8B21C28F0DBB3EE080AC8EE000A56
:10213000B0EE608A5FED3F0A88EE200A5FED400A4C
:1021400020EE200AF0EE409A05F09AFA8DED070A8B
:102150009DED070A5FED450A80EE201ABCEEC10A2C
:1021600010EE100AC0B28DF808001FED530AB0EE51
:10217000408A9FED810AB0EE408A9DED041AF0EE90
:10218000410A9DED031AB0EE410AFEF7A5FAF0EE02
:10219000000A88EE201AB4EEC10AF1EE10FA01D25C
:1021A00046F480369DED040ADDED030A30EE600A48
:1021B000B0EEC00ADFED710AB4EEE00AF1EE10FAFB
:1021C00010DD9DED030ADFED6D0AB4EEE00AF1EEDD
:1021D00010FA03D201206A49887013E00020684990
:1021E00088700FE09DED040ADDED030AB4EEE00A0D
:1021F000F1EE10FA03DD00206149887002E0012051
:102200005F4988709DED051AF0EE410A9DED031AB5
:10221000B0EE410AFEF760FAB4EEC80AF1EE10FA29
:102220007DD29DED071AF0EE410A9DED051AB0EE44
:10223000410AFEF751FAB4EEC80AF1EE10FA6ED276
:102240009DED071AF0EE410A9DED031AB0EE410A2A
:10225000FEF742FAB4EEC80AF1EE10FA7BD29DED19
:10226000030ADDED050A30EE200ADDED070A30EE47
:10227000200A8DED080A9DF80400032807D09DF878
:102280000600032803D09DF80800032820D19DF8FC
:10229000040038B99DED080A5FED970A30EE200A78
:1022A0008DED080A9DF8060038B99DED080A5FED2E
:1022B0009C0A30EE200A8DED080A9DF8080038B916
:1022C0009DED080A5FEDA20A30EE200A8DED080AA6
:1022D0009DED080AF0EE080A80EE201AF0EE419A11
:1022E000B0EE690A05F0CCF98DED080A2448807833
:1022F000C8B100EE104AB8EEC00A1FEDB31AC0EE26
:10230000010A2048007F00EE100AB8EE401A80EE65
:10231000810ADDED080A30EE200A194800E01AE0D3
:1023200080ED020A19E000EE104AB8EEC00A1FED77
:10233000C01AC0EE010A1348007F00EE100AB8EE82
:10234000400A80EE801A9DED080A30EE410A0C48E2
:1023500080ED020A01E046F400360B48006A40F2C4
:10236000555188430849086204F0F4FD304619B01D
:10237000BDEC068BF0BD0000C2B8B23DDB0F49409A
:1023800054010020700000200000014072B600BF20
:10239000FEE7000010B5044670212046FEF706F95E
:1023A0009FED120A84ED110A9FED100A84ED120AC6
:1023B0009FED0F0A84ED000A9FED0E0A84ED010ADD
:1023C0009FED0D0A84ED020A9FED0C0A84ED030ACD
:1023D0009FED060A84ED040A9FED090A84ED050AC3
:1023E0009FED080A84ED060A10BD0000CDCC4C3DDF
:1023F0006822543FF7587A3A97C4713C17B751385E
:102400000AD7233C0050434770B52DED028B04469C
:102410000D4694ED000AD5ED0B0A20EE200A84ED5E
:10242000070A94ED000AD5ED0C0A20EE200A84ED8F
:10243000080A95ED090AD4ED070A30EE600AD4EDDA
:102440000D0A94ED0F1A60EE810A94ED041A00EE65
:10245000810A94ED031AD4ED090A40EE010AC4ED95
:10246000090A95ED0A0AD4ED080A30EE600AD4EDA7
:102470000E0A94ED0F1A60EE810A94ED041A00EE34
:10248000810A94ED031AD4ED0A0A40EE010AC4ED64
:102490000A0A94ED010AD5ED0B0A20EE200A84ED1C
:1024A0000B0A94ED010AD5ED0C0A20EE200A84ED0A
:1024B0000C0A94ED090AD4ED0B0A30EE600A84EDA3
:1024C0000D0A94ED0A0AD4ED0C0A30EE600A84ED90
:1024D0000E0A94ED0D0A20EE000AD4ED0E0A94EDDA
:1024E0000E1A00EE810AD4ED020A94ED021A10EEE3
:1024F000810A84ED0F0A94ED0D1AF0EE410A94ED75
:102500000E1AB0EE410A09F0E1FDB0EE408A05F086
:10251000B7F884ED100AD4ED180AB0EE600A09F09D
:102520002BFFD4ED0E0A20EE208AD4ED180AB0EE6F
:10253000600A0AF04DF9D4ED0D0A00EEC08A84ED70
:10254000158A94ED130AD4ED150A94ED121A00EED3
:10255000810A84ED130A94ED130AD4ED150A94ED63
:10256000111A00EE810A84ED140A94ED140AD4EDD8
:10257000030A9FED1C1A60EE810A80EE201A84ED9A
:10258000161A94ED170ADFED180A20EE200AD4ED92
:10259000160A9FED161A01EE200A84ED170A94ED33
:1025A000180AD4ED140A30EE200A84ED180AD4ED8E
:1025B000180AB0EE600A05F063F884ED180A94ED8D
:1025C000180A84ED190A94ED170A84ED1A0A94ED9D
:1025D0001A0ADFED070A20EE200A84ED1B0ABDEC83
:1025E000028B70BDDB0FC940643B7F3FA69B443B21
:1025F0000000704210B5DD48D0ED021AB0EE611A4D
:10260000D0ED011AF0EE610AD0ED001AB0EE610AC9
:10261000D749081FFFF742FAD648D0ED021AB0EEAC
:10262000611AD0ED011AF0EE610AD0ED001AB0EE99
:10263000610ACF490831081FFFF730FACE48007809
:10264000052801D105F0D4FACB480078022803D040
:10265000C9480078032801D100F0DAF9C6480078AB
:1026600008B905F0F3FDC4480078012801D104F051
:102670001FF8C24890ED0B0AB0EEC00AC04880EDCA
:10268000020ABB482838D0ED1E1AB0EE611AD0ED10
:102690000C1AF0EE610AD0ED0B1AB0EE610A00F1EF
:1026A00040013C3005F0E5F9B1482838D0ED1E1A5C
:1026B000B0EE611AD0ED0A1AF0EE610AD0ED091AF7
:1026C000B0EE610A00F13801343005F0D2F9AA48C1
:1026D000407F10B3A9480078F8B1A548283890ED9C
:1026E0000F1AF0EE410A90ED1B1AB0EE410AA54810
:1026F00005F062F99E48283880ED130A90ED101A13
:10270000F0EE410A90ED1C1AB0EE410A9E4805F029
:1027100053F99748283880ED140A95482838D0EDA9
:102720001E1AB0EE611AD0ED141AF0EE610AD0ED67
:10273000131AB0EE610A00F14801443004F02FFB97
:102740009FED920A8A492031081F0BF075F99FED21
:102750008F0A87492831081F0BF06EF98448283802
:10276000D0ED090A60EEA00A90ED0A1AD0ED0A1A1F
:1027700041EE210AB0EE600A0AF02FF97C482838B1
:1027800080ED170A90ED180ADFED810A20EE200A8D
:10279000D0ED170A9FED7F1A01EE200A80ED180A8E
:1027A000D0ED130A60EEA00A90ED141AD0ED141AC1
:1027B00041EE210AB0EE600A0AF00FF96C482838A1
:1027C00080ED150A90ED160ADFED710A20EE200A61
:1027D000D0ED150A9FED6F1A01EE200A80ED160A62
:1027E000D0ED0F0A60EEA00A90ED101AD0ED101A8D
:1027F00041EE210AB0EE600A0AF0EFF85C48283892
:1028000080ED190A90ED1A0ADFED610A20EE200A28
:10281000D0ED190A9FED5F1A01EE200A80ED1A0A29
:10282000564890ED0B0ADFED5C0A80EE201A504806
:10283000283890ED1E0A31EE000A80ED1E0AD0ED18
:102840001E0AB0EE600A04F01BFF4948283880EDEC
:102850001E0A4A480078B8B145482838D0ED1E2AEB
:10286000B0EE622AD0ED142AF0EE621AD0ED132AEF
:10287000B0EE621AD0ED122AF0EE620AD0ED112A03
:10288000B0EE620A05F0EEFB3948283890ED1B0ADD
:10289000424880ED000A3648283890ED0F0A3F483C
:1028A00080ED010A3248283890ED1C0A3B4880ED43
:1028B000020A2F48283890ED100A384880ED030AA4
:1028C0002B48283890ED0B0A344880ED040A28483C
:1028D000283890ED0C0A314880ED050A2448283844
:1028E00090ED1E0A2D4880ED060A2148283890ED0B
:1028F000110A2A4880ED070A1D48283890ED120A6F
:10290000264880ED080A1A48283890ED130A234813
:1029100080ED090A1648283890ED140A1F4880ED0A
:102920000A0A1348283890ED150A1C4880ED0B0A56
:102930000F48283890ED160A184880ED0C0A0C480C
:10294000283890ED1D0A154880ED0D0A0B4890EDD2
:10295000090A124880ED0E0A114890ED090A0F4845
:1029600080ED130A5421FFF77DF810BD740A002092
:10297000380800208C0A002070000020A0080020E9
:10298000A4000020E408002020090020D7B35D3F08
:102990003333333F9A99993E00409C4650060020BD
:1029A000540100200A4AD26B0A4BB3FBF2F290B2F8
:1029B000024600EBD2735910074AD062516391630B
:1029C000D163126A40F255531A43034B1A6270479F
:1029D0002C00002000BD01050000014070B50A4830
:1029E0000468001D0568001D0668344454B10822BF
:1029F0000649204604F0B4F904220449103128465F
:102A000004F0AEF970BD0000107AFF1FC60100206F
:102A100070B52DED028B002400259FEDFD0AB0EE70
:102A2000408A9FEDFB0AF0EE408AFA480068C0F346
:102A30008010F949C860F7480068C0F3C011F64833
:102A40000161F4480068C0F30021F3484161017B53
:102A5000007C01EB4001F048007D01EB8000EE4975
:102A600081F82C00084690F82D0091F82C1088422F
:102A700074D1E948006B401CE7490863E748806B64
:102A800000EB80004000E6498969B0FBF1F0E249C3
:102A9000096B884263D2E04890ED100AB5EEC00A97
:102AA000F1EE10FA01D2601E0AE0DB4890ED100A48
:102AB000B5EEC00AF1EE10FA01DD012000E00020C1
:102AC00000EE100AB8EEC00ADFEDD60A60EE200A6A
:102AD000D14890ED0C0AB8EE400A80EE801A80EDE5
:102AE000101AD14890ED040AF7EE000A30EEC00A41
:102AF000C948D0ED110A20EE200ACB48D0ED040AD7
:102B0000C54890ED101A00EE810A80ED110A90F888
:102B10002C00401EC549085C441E012C05D19FEDC8
:102B2000BC0ABD4880ED0D0A12E0C14800EB8400EC
:102B300090ED000ABF4800EB8400D0ED000A30EEB3
:102B4000200AF0EE000A80EE201AB34880ED0D1A3C
:102B5000B14890ED0D0A80ED0F0AF2E034E0AE4886
:102B600090ED0F0AD0ED110A30EE200A80ED0F0A29
:102B700090ED0D0ADFEDAB0A30EE200AB0EE408A90
:102B800090ED0D0ADFEDA70A30EE600AF0EE408A04
:102B900090ED0F0AB4EEE80AF1EE10FA02D2B0EEB0
:102BA000680A0DE09C4890ED0F0AB4EEC80AF1EEF9
:102BB00010FA02DDB0EE480A02E0974890ED0F0AE5
:102BC000954880ED0F0ABCE0934890F82C00401E19
:102BD0009649085C441E904890F82D00401E085C01
:102BE000451E934800EB8400D0ED000A904800EBAE
:102BF000850090ED001A70EEC10AB0EE600A04F094
:102C00003FFD854880ED0E0A90ED0E0ADFED8A0A41
:102C1000B4EEE00AF1EE10FA43DD864800EB8400E2
:102C200090ED000A7C4880ED0D0A006B90B37A4865
:102C300090ED100AB5EEC00AF1EE10FA08DB9FED38
:102C40007F0A80ED100A9FED7D0A80ED110A6BE08E
:102C5000714890ED0C0AB8EE400ADFED790A80EE7B
:102C6000801A80ED101A704890ED040AF7EE000A01
:102C700030EEC00A6848D0ED110A20EE200A6A48FA
:102C8000D0ED040A644890ED101A00EE810A80ED40
:102C9000110A49E0FFE79FED5E0A5F4880ED100AE8
:102CA00042E0634800EB840090ED000A5A4880ED52
:102CB0000D0A006B90B3584890ED100AB5EEC00AAB
:102CC000F1EE10FA08D89FED5F0A80ED100A9FED33
:102CD0005D0A80ED110A27E04F4890ED0C0AB8EE2E
:102CE000400ADFED500A80EE801A80ED101A4E483F
:102CF00090ED040AF7EE000A30EEC00A4648D0ED27
:102D0000110A20EE200A4848D0ED040A424890ED0E
:102D1000101A00EE810A80ED110A05E0FFE79FED31
:102D20003C0A3D4880ED100A3B4890F82C003A4997
:102D300081F82D0000200863084690ED0D0A80ED13
:102D40000F0A3548D0ED110A344890ED0E0AB8EE5E
:102D5000400A20EE800ADFED3C0A20EE200ADFED7B
:102D60003B0A80EE201A2C4880ED121AD0ED0F0A93
:102D7000B0EE600A04F084FC354880ED1E0A274856
:102D8000C069401C2549C8610846C069244991F8BA
:102D9000201088427ED300202049C8611E4890ED53
:102DA000120A084680ED080A1F4890ED040AF7EE63
:102DB000000A30EEC00A0846D0ED090A20EE200ACB
:102DC0001948D0ED040A084690ED081A00EE810A71
:102DD00080ED090AD0ED080A1148007F00EE100AC4
:102DE000B8EE400A80EE801A084680ED0C1AD0ED4D
:102DF000090A0B48007F00EE100AB8EE400A80EE88
:102E0000801A084680ED0D1A90ED080A22E00000B5
:102E10000000000010080240E8090020A00800207F
:102E200070000020920A863FBC000020DC000020D9
:102E3000EC00002004010020DB0F4940BD3786B5BF
:102E4000920A86BFBD37863500007042DB0FC9404D
:102E5000100800205FED040A80EE201A80ED0A1AA7
:102E600090ED090A5FED080A80EE201A80ED0B1A3A
:102E70000D48807F70B108464078042811D108467B
:102E800090ED091AF0EE410A084890ED1D1AB0EED7
:102E9000410A00E005E0064804F08EFD034880ED9D
:102EA0001C0ABDEC028B70BD7000002010080020D1
:102EB0005C09002030B52DED048BBDB0F0EE408AEA
:102EC00000249FEDF90AB0EE408A04F04DF8F7486F
:102ED000006A40F255510843F449086220E09FED32
:102EE000F22ADFEDF11AB0EE481ADFEDEF0A9FED9E
:102EF000EE0A05F0B7F89FEDEE0A38EE000AB0EEE4
:102F0000408A9FEDEC0AB4EEC08AF1EE10FA04DDBF
:102F10009FEDE80AB0EE408A0CE0012009F0F8FECF
:102F2000E54890ED000AB0EEC00AB4EEE80AF1EE12
:102F300010FAD4D300BF4FF47A7009F0E9FE03F021
:102F400023FEDE480068C0F38010DD49C860DB481E
:102F50000068C0F3C011DA480161D8480068C0F3C6
:102F60000021D7484161017B007C01EB4001D4483E
:102F7000007D01EB8000D24981F82C00084690F8D2
:102F80002C0081F82D00602125A8FDF70FFB6021A2
:102F90000DA8FDF70BFB00200C90002570E000EE63
:102FA000105AB8EEC00ADFEDC70A80EE201AF0EE24
:102FB000419AB0EE690A04F063FBB0EE409AB0EEBD
:102FC000492ADFEDB91AB0EE481ADFEDB70A9FEDD6
:102FD000B60A05F047F8022009F09AFEB7480068E3
:102FE000C0F38010B649C860B4480068C0F3C0118F
:102FF000B3480161B1480068C0F30021B0484161A5
:10300000017B007C01EB4001AD48007D01EB8000BD
:10301000AB4981F82C00084690F82D0091F82C104F
:1030200088421DD0A64890F82C00A54981F82D00B3
:10303000084690F82C00BDF8301025AA22F811009F
:103040004FF4B47095FBF0F100FB115081B2BDF864
:103050003020501C80B2ADF8300031A820F812109A
:103060003C2095FBF0F100FB115038B93C2095FB5A
:10307000F0F109A8924A92F82C204254681C05B23B
:10308000B5F5347F8BDB642009F042FE40F2CF259A
:1030900070E000EE105AB8EEC00ADFED8A0A80EE4A
:1030A000201AF0EE419AB0EE690A04F0E9FAB0EEA7
:1030B000409AB0EE492ADFED7C1AB0EE481ADFEDF7
:1030C0007A0A9FED790A04F0CDFF022009F020FE74
:1030D0007A480068C0F380107949C8607748006872
:1030E000C0F3C0117648016174480068C0F3002144
:1030F00073484161017B007C01EB40017048007D19
:1031000001EB80006E4981F82C00084690F82D00F4
:1031100091F82C1088421DD0694890F82C0068491D
:1031200081F82D00084690F82C00BDF832100DAA49
:1031300022F811004FF4B47095FBF0F100FB115030
:1031400081B2BDF83220501C80B2ADF8320019A80F
:1031500020F812103C2095FBF0F100FB115038B91B
:103160003C2095FBF0F006A9554A92F82C200A5411
:10317000681E05B2002D8CDA00201BE009A90A5C4C
:1031800009AB811D595C8A4201D044F4807406A9C0
:103190000A5C06AB811D595C8A4201D044F48074FC
:1031A00009A9095C06AA125C914201D044F480741A
:1031B000411CC8B20528E1DB002C46D1DDE909013C
:1031C000CDE90401062104A809F00FFD3E4903C919
:1031D000CDE90201062102A809F007FD3B4801687C
:1031E00000918088ADF804000621684609F0FDFCD6
:1031F000052202A904A8FDF72EF938BB344800784F
:1032000048B934480078022805D0022031490870B6
:1032100044F400740CE02E480078012808D12E48B0
:103220000078022804D002202B49087044F400746E
:10323000002008E024490A5C09A9095C491E274BC3
:103240005A54411CC8B20628F4DB4DE005226946F9
:1032500004A8FDF700F930BB1D48007848B91D48A7
:103260000078032805D003201A49087044F400743C
:103270000CE017480078012808D117480078032887
:1032800004D003201449087044F40074002007E0BF
:103290000E49095C09AA125C114B9954411CC8B231
:1032A0000628F5DB20E01DE00000000000000140E2
:1032B0006F12833AD7B35D3F8C0A0020100802409A
:1032C000E8090020E12E6542D0000020D600002051
:1032D000B80000202C00002070000020DC0000203E
:1032E000E200002044F480640648006A40F2555130
:1032F00088430449086203F02DFE20463DB0BDEC32
:10330000048B30BD0000014030B50246854C886911
:10331000A04200D000BF00BF92F83C00012801D1BC
:10332000022030BD012082F83C0000BF0868092857
:1033300016D91068C0680C780A3C04EB44050724D1
:10334000AC40A0431468E0600C780A3C04EB4404F1
:103350008868A0401468E46820431468E06013E0C3
:10336000106800690C7804EB44050724AC40A043C6
:10337000146820610C7804EB44048868A040146849
:1033800024692043146820611068806B20F4401089
:103390001468A0631068846B088A401E44EA0050D9
:1033A0001468A0630879C01C0C7C001B00EB80042F
:1033B0001F20A0401468A46B8443106884630879BC
:1033C000C01C0C7C001B00EB8004088880B2A0406D
:1033D0001468A46B20431468A063524C8869A0420F
:1033E00018D01068806820F470201468A0601068FD
:1033F00080688C6920431468A0601068806820F49D
:1034000040101468A06010688068CC69204314687C
:10341000A0600BE01068806820F470201468A06041
:103420001068806820F440101468A060487D30B1B6
:103430001068406840F480601468606005E01068BF
:10344000406820F4806014686060087D30B11068C6
:10345000406840F480501468606005E0106840687F
:1034600020F48050146860604868012804D0022865
:103470000FD0032827D119E0106840696FF30B00C3
:103480001468606110684069CC682043146860610A
:1034900026E0106880696FF30B001468A061106863
:1034A0008069CC6820431468A06119E01068C06985
:1034B0006FF30B001468E0611068C069CC682043AA
:1034C0001468E0610CE01068006A6FF30B00146888
:1034D00020621068006ACC6820431468206200BF34
:1034E00000BF114B114C1068A04206D10868122889
:1034F00003D1586840F4800058600C4C1068A0421A
:1035000009D10868102802D00868112803D158682A
:1035100040F40000586000BF002082F83C0000BF6B
:1035200000BFFEE601000F00002301400020014023
:1035300038B50146002000900022002300BF91F81A
:103540003C00012801D1022038BD012081F83C0057
:1035500000BF0868806800F00100A0B908688068B2
:1035600040F001000D68A86038480068384DB0FB95
:10357000F5F000EB4000009002E00098401E009043
:1035800000980028F9D10868806800F00100002840
:1035900051D0086C42F20105A84340F48050086401
:1035A000086C00F4807008B90020486400BF002057
:1035B00081F83C0000BF401F0D6828600868406823
:1035C00040F080000D686860224C606800F01F00C9
:1035D000B0B90868806800F4401008B9012000E024
:1035E0000020024608684068012525EA90230AB3B6
:1035F00003B30868806840F480000D68A86022E08A
:103600000868806800F4401008B9012000E000203C
:10361000024608684068012525EA90230E4D086897
:10362000A84210D132B12BB10868806840F4800004
:103630000D68A86007E0086C40F010000864486C52
:1036400040F00100486400207EE7000000020020F6
:1036500040420F00002301400020014010B5024607
:103660000B4600BF92F83C00012801D1022010BD9A
:10367000012082F83C0000BF0F49486820F01F007D
:10368000486048681C6820434860486820F440400F
:10369000486048685C6820434860486820F470606F
:1036A000486048689C682043486000BF002082F85A
:1036B0003C0000BF00BFDAE70023014038B50246F6
:1036C0000020009000BF92F83C00012801D10220A8
:1036D00038BD012082F83C0000BF0868092816D9CF
:1036E0001068C0680C780A3C04EB44050724AC4021
:1036F000A0431468E0600C780A3C04EB440488683A
:10370000A0401468E46820431468E06013E0106887
:1037100000690C7804EB44050724AC40A04314680E
:1037200020610C7804EB44048868A0401468246984
:103730002043146820614868072817D21068406B3E
:103740000C79641E04EB84051F24AC40A04314686C
:103750006063088880B20C79641E04EB8404A04086
:103760001468646B20431468606331E048680D2876
:1037700017D21068006B0C79E41F04EB84051F243A
:10378000AC40A04314682063088880B20C79E41F21
:1037900004EB8404A0401468246B20431468206365
:1037A00016E01068C06A0C790D3C04EB84051F24F8
:1037B000AC40A0431468E062088880B20C790D3CEC
:1037C00004EB8404A0401468E46A20431468E062B7
:1037D000194B1A4C1068A04206D10868122803D170
:1037E000586840F480005860144C1068A0421CD106
:1037F0000868102802D00868112816D1586840F4CB
:1038000000005860086810280FD10D4800680D4C62
:10381000B0FBF4F000EB80004000009002E0009864
:10382000401E009000980028F9D100BF002082F8C7
:103830003C0000BF00BF4BE70023014000200140D7
:103840000002002040420F007047704770470000A0
:1038500070B5044600250CB9012070BD1549A06A59
:10386000884200D000BF206C30B9204600F024F818
:103870000020606484F83C00206C00F0100088B9DF
:10388000206C20F4885040F0020020642046FDF7B0
:1038900027F900206064206C20F0020040F0010055
:1038A000206400E0012500BF002084F83C0000BF38
:1038B0002846D2E70100000F10B586B00446142157
:1038C00001A8FCF773FE8B49206888424DD100BFE8
:1038D000002000908848006840F4807086490860A5
:1038E0000846006800F48070009000BF00BF00BF71
:1038F0000020009080481438006840F004007E49A1
:10390000143908600846006800F00400009000BF09
:1039100000BF00BF002000900846006840F0010092
:1039200008600846006800F00100009000BF00BF7A
:1039300009200190032002900020039001A96F4804
:1039400000F05CFC01200190032002900020039015
:1039500001A96B4800F052FC00220521122000F062
:10396000FDFD122000F0EAFDC1E0664920688842B2
:103970004DD100BF002000905F48006840F4007007
:103980005D4908600846006800F40070009000BFC0
:1039900000BF00BF0020009057481438006840F076
:1039A00004005549143908600846006800F0040016
:1039B000009000BF00BF00BF0020009008460068D4
:1039C00040F0010008600846006800F00100009027
:1039D00000BF00BF0A200190032002900020039046
:1039E00001A9464800F00AFC022001900320029041
:1039F0000020039001A9424800F000FC00220521AC
:103A0000122000F0ABFD122000F098FD6FE03E495F
:103A1000206888426BD100BF0020009036480068C3
:103A200040F48060344908600846006800F4806013
:103A3000009000BF00BF00BF002000902E48143847
:103A4000006840F004002C491439086008460068FA
:103A500000F00400009000BF00BF00BF00200090F5
:103A60000846006840F0010008600846006800F061
:103A70000100009000BF00BF0C20019003200290C5
:103A80000020039001A91D4800F0B8FB042001901C
:103A9000032002900020039001A9194800F0AEFB1A
:103AA0001A481B4908608005486000211848816059
:103AB000C1604FF480610161490041618900816109
:103AC0004911C16100210162416200F0C3FA08B1ED
:103AD000FEF75CFC00BF0E48A063846300BF0022B9
:103AE0000521122000F03AFD122000F027FD06B05B
:103AF00010BD000000200140443802400008024090
:103B000000000240002101400022014010640240F8
:103B1000EC03002008B501460020009000BF91F89A
:103B20003C00012801D1022008BD012081F83C00A1
:103B300000BF0868806800F00100A0B908688068CC
:103B400040F001000B6898603F4800683F4BB0FBB5
:103B5000F3F000EB4000009002E00098401E00905F
:103B600000980028F9D10868806800F0010000285A
:103B700060D0086C40F20163984340F480700864A0
:103B80000868406800F4806028B1086C20F4005098
:103B900040F480500864086C00F48050B0F5805FF9
:103BA00004D1486C20F00600486401E0002048641D
:103BB00000BF002081F83C0000BF254A6FF02200C2
:103BC0000B681860506800F01F0018BB214B086894
:103BD000984213D0204B0868984204D1101D006809
:103BE00000F01F0050B11D4B086898422AD11848B8
:103BF000001D006800F01F00102823D208688068AC
:103C000000F04050F0B90868806840F080400B68D0
:103C1000986017E00F4B0868984213D108688068D5
:103C200000F0405070B90868806840F080400B6830
:103C3000986007E0086C40F010000864486C40F0A1
:103C40000100486400206FE70002002040420F009E
:103C500000230140002001400021014000220140DA
:103C6000F8B504460D4616460020009000BF94F8B3
:103C70003C00012801D10220F8BD012084F83C005D
:103C800000BF2068806800F00100A0B9206880684B
:103C900040F0010021688860554800685549B0FB34
:103CA000F1F000EB4000009002E00098401E009010
:103CB00000980028F9D12068806800F48070B0F581
:103CC000807F05D12068806820F48070216888603A
:103CD0002068806800F0010000287ED0206C40F24F
:103CE0000161884340F4807020642068406800F4DB
:103CF000806028B1206C20F4005040F48050206493
:103D0000206C00F48050B0F5805F04D1606C20F02E
:103D10000600606401E00020606400BF002084F8B9
:103D20003C0000BF344F3548A16BC8633448A16BD9
:103D300008643448A16BC8646FF0220021680860F1
:103D40002068406840F08060216848602068806892
:103D500040F4807021688860226802F14C0133468B
:103D60002A46A06B00F0ECF9786800F01F0018BB41
:103D700025492068884213D024492068884204D10C
:103D8000381D006800F01F0050B1214920688842AA
:103D90002BD11948001D006800F01F00102824D204
:103DA0002068806800F04050F8B92068806840F0D2
:103DB00080402168886018E013492068884214D147
:103DC0002068806800F0405078B92068806840F032
:103DD00080402168886008E0FFE7206C40F0100018
:103DE0002064606C40F001006064002044E7000043
:103DF0000002002040420F00002301404907000854
:103E0000E1070008C7070008002001400021014029
:103E100000220140F8B50446002000908C4800685C
:103E20004FF41651B0FBF1F7A56D2E6894F85C10B5
:103E300008208840304098B12068006800F00400F5
:103E400070B12068006820F004002168086094F8D0
:103E50005C1008208840A860606D40F0010060653B
:103E600094F85C1001208840304068B120684069B7
:103E700000F0800040B194F85C1001208840A860F8
:103E8000606D40F00200606594F85C10042088408A
:103E9000304068B12068006800F0020040B194F83A
:103EA0005C1004208840A860606D40F004006065EC
:103EB00094F85C1010208840304078B32068006887
:103EC00000F0080050B394F85C1010208840A860FF
:103ED0002068006800F4802080B12068006800F449
:103EE000002028B9206CC8B12046216C884715E015
:103EF000A06C98B12046A16C88470FE0206800684C
:103F000000F4807028B92068006820F0080021685B
:103F10000860206C10B12046216C884794F85C1032
:103F2000202088403040002865D02068006800F0DC
:103F3000100000285FD094F85C1020208840A86012
:103F400094F83500052828D12068006820F0160074
:103F5000216808602068406920F08000216848617D
:103F6000206C08B9A06C28B12068006820F0080017
:103F70002168086094F85C103F208840A860012008
:103F800084F8350000BF002084F8340000BF206DA5
:103F900010B12046216D8847F8BD2068006800F404
:103FA000802080B12068006800F4002028B9606C8F
:103FB00010B12046616C88471DE0E06BD8B1204607
:103FC000E16B884717E02068006800F4807068B9EA
:103FD0002068006820F0100021680860012084F843
:103FE000350000BF002084F8340000BFE06B10B142
:103FF0002046E16B8847606D38B3606D00F00100CA
:10400000F0B1052084F835002068006820F0010038
:104010002168086000BF0098401C0090B84200D999
:1040200005E02068006800F001000028F3D100BF1F
:10403000012084F8350000BF002084F8340000BF60
:10404000E06C10B12046E16C884700BFA4E7000097
:10405000000200202DE9F0410446002500F0CEF9D1
:10406000074614B90120BDE8F081606A00B100BFC5
:10407000022084F8350000BF002084F8340000BF1F
:104080002068006820F00100216808600AE000F064
:10409000B5F9C01B052805D920206065032084F8E8
:1040A0003500E0E72068006800F001000028EED14C
:1040B0002068056821480540D4E901010843E1680A
:1040C00008432169084361690843A1690843E1691C
:1040D0000843216A08430543606A042803D1D4E9F0
:1040E0000B0108430543206805602068456925F0F9
:1040F0000705606A0543606A04280DD1A06A05437C
:10410000E06A48B12046FDF71BFD28B140206065FC
:10411000012084F83500A6E7206845612046FDF7B8
:10412000F5FC064694F85C103F208840B060002003
:104130006065012084F83500002094E73F8010F08E
:104140002DE9F04704460D4616461F464FF000087D
:10415000D4F8589000BF94F83400012802D102200E
:10416000BDE8F087012084F8340000BF94F83500E2
:10417000012825D1022084F83500002060653B46E7
:10418000324629462046FDF730FD94F85C103F206A
:104190008840C9F808002068006840F016002168CF
:1041A0000860206C28B12068006840F00800216891
:1041B00008602068006840F001002168086006E09F
:1041C00000BF002084F8340000BF4FF002084046D2
:1041D000C6E7000070B5044600F010F90646254613
:1041E000681C10B104480078054400BF00F006F9CF
:1041F000801BA842FAD370BDFC010020F8B502462E
:104200000B460025002400200021D6E0012606FAF6
:1042100001F51E6806EA0504AC4274D11E7906F069
:104220000306012E04D01E7906F00306022E13D1D8
:1042300090684F000326BE40B0434F00DE68BE408A
:1042400030439060506801268E40B0431E79C6F31B
:1042500000168E40304350601E7906F00306032E90
:1042600009D0D0684F000326BE40B0434F009E687F
:10427000BE403043D0601E7906F00306022E13D1F3
:10428000CF0802F1200656F827004E07F70E0F263A
:10429000BE40B0434F07FF0E1E69BE403043CF08FB
:1042A00002F1200646F8270010684F000326BE40A2
:1042B000B0431E7906F003064F00BE403043106045
:1042C0005E6806F44036002E76D000BF00260096C9
:1042D0003C4E366846F480463A4F3E603E4636686D
:1042E00006F48046009600BF00BF374E8F0856F890
:1042F00027008E07370F0F26BE40B043334EB24221
:1043000002D1002624E057E0314EB24201D101260D
:104310001EE0304EB24201D1022619E02E4EB242CA
:1043200001D1032614E02D4EB24201D104260FE044
:104330002B4EB24201D105260AE02A4EB24201D1EB
:10434000062605E0284EB24201D1072600E00826E5
:104350008F073F0FBE4030431B4E8F0846F82700A3
:10436000224E3068A0435E6806F4801606B12043F2
:104370001E4E3060361D3068A0435E6806F400169D
:1043800006B12043194E361D3060184E361F306876
:10439000A0435E6806F4003606B12043134E361F74
:1043A0003060361F3068A0435E6806F4803606B180
:1043B00020430E4E083E3060491C1029FFF426AF02
:1043C000F8BD0000443802400838014000000240B7
:1043D0000004024000080240000C024000100240AD
:1043E0000014024000180240001C0240083C01403A
:1043F0000AB1816101E00B048361704701480068E4
:1044000070470000F4010020034800680349097860
:104410000844014908607047F4010020FC010020B5
:1044200010B50D48006840F400700B49086008465C
:10443000006840F4806008600846006840F48070BE
:104440000860032000F0C8F80F2000F007F800F023
:104450004BF8002010BD0000003C024070B588B051
:1044600004460025002600222146372000F076F879
:10447000372000F063F800BF002001901648006864
:1044800040F02000144908600846006800F0200051
:10449000019000BF00BF02A903A801F059F801F084
:1044A0007FF845000D48B5FBF0F0461E0C480D495D
:1044B000086040F2E7310B48C160466000210161AD
:1044C000816001F0D9FC20B9064801F055FE08B022
:1044D00070BD0120FBE700004038024040420F0061
:1044E00000140040A406002008B500BF0020009082
:1044F0001148006840F480400F4908600846006891
:1045000000F48040009000BF00BF00BF002000907A
:10451000081F006840F08050091F086008460068C6
:1045200000F08050009000BF00BF00220F21901EBD
:1045300000F014F808BD0000443802400146084667
:10454000002809DB00F01F0301229A4043099B0069
:1045500003F1E023C3F8002100BF70472DE9F05FAD
:1045600080460D461646002707F090FD074639465F
:104570002A46334601F00700C0F1070ABAF1040FDA
:1045800002D94FF0040A01E0C0F1070AD14600F158
:10459000040ABAF1070F02D24FF0000A01E0A0F1BD
:1045A000030AD4464FF0010A0AFA09FAAAF1010AED
:1045B0000AEA020A0AFA0CFA4FF0010B0BFA0CFB9A
:1045C000ABF1010B0BEA030B4AEA0B042146404610
:1045D00007F064FDBDE8F09F00BF00F00702064B46
:1045E00019684FF6FF031940044B0B4343EA0221BD
:1045F000014B196000BF70470CED00E00000FA05A8
:10460000704702461068416200207047F0B50346CB
:1046100015461868446A21B944EA05401E68B0622C
:1046200019E01868806A04EB1044002208E018685A
:1046300000F5827050F8220004EB1044501CC2B206
:10464000481E9042F3D844EA0547186800F5827086
:104650004E1E40F826700020F0BD10B50446D4F878
:10466000080505F0BAFD10BD70B504460D4605EB12
:10467000C50304F13C0101EB83010A692946D4F822
:10468000080505F0A5FC70BD70B504460D4605EBA8
:10469000C50304F51F7101EB83010A692946D4F8AB
:1046A000080505F019FD70BD10B50446D4F80805DD
:1046B00005F096FD10BD2DE9F04104460D4605F0CC
:1046C0008000802808D105F00F0000EBC00104F144
:1046D0003C0000EB810607E005F00F0000EBC00195
:1046E00004F51F7000EB81063146206807F06AF878
:1046F00007463846BDE8F08170B504460E4606F020
:10470000800080280AD106F00F0000EBC00104F100
:104710003C0000EB81050120687009E006F00F0005
:1047200000EBC00104F51F7000EB810500206870EC
:1047300006F00F00287000BF94F8BC04012801D1D6
:10474000022070BD012084F8BC0400BF2946206807
:1047500006F018FB00BF002084F8BC0400BF00BFB7
:10476000EFE770B504460E4606F00F006168884218
:1047700001D9012070BD06F0800080280AD106F022
:104780000F0000EBC00104F13C0000EB81050120AB
:10479000687009E006F00F0000EBC00104F51F701F
:1047A00000EB8105002068700020A87006F00F0063
:1047B000287000BF94F8BC04012801D10220D9E779
:1047C000012084F8BC0400BF2946206806F0C2FD21
:1047D00000BF002084F8BC0400BF00BFCAE7024647
:1047E00001F00F0000EBC00302F51F7000EB830027
:1047F000006A70472DE9F04705460E4690461F4671
:104800004FF0000906F0800080280AD106F00F0062
:1048100000EBC00105F13C0000EB81040120607059
:1048200009E006F00F0000EBC00105F51F7000EB7A
:1048300081040020607006F00F002070C4F80C8026
:104840002771607808B120782081022F01D10020E3
:10485000607100BF95F8BC04012802D10220BDE8B8
:10486000F087012085F8BC0400BF2146286806F0C7
:104870009FF900BF002085F8BC0400BF4846EEE762
:104880002DE9F04104460E461746984606F00F0003
:1048900000EBC00104F51F7000EB81052F61C5F826
:1048A000188000202862687006F00F0028702069C8
:1048B000012800D16F6106F00F0028B9227C29463B
:1048C000206806F021FC04E0227C2946206806F0DE
:1048D000D5FD0020BDE8F08170B504460D4605F019
:1048E0000F006168884201D9012070BD05F0800089
:1048F00080280AD105F00F0000EBC00104F13C0054
:1049000000EB81060120707007E005EBC50104F59E
:104910001F7000EB8106002070700120B07005F060
:104920000F00307000BF94F8BC04012801D10220B0
:10493000DBE7012084F8BC0400BF3146206806F0A4
:1049400050FD05F00F0028B9217C04F2C442206814
:1049500006F0C8FC00BF002084F8BC0400BF00BF04
:10496000C3E72DE9F04104460E461746984606F087
:104970000F0000EBC00104F13C0000EB81052F614A
:10498000C5F81880002028620120687006F00F002A
:1049900028702069012800D16F6106F00F0028B946
:1049A000227C2946206806F0AFFB04E0227C2946E1
:1049B000206806F063FD0020BDE8F0812DE9FE4F80
:1049C0000446D4F800B05E46206806F0E2FF0028F6
:1049D00074D1206807F01CF808B9BDE8FE8F40F6D6
:1049E00008008059C0F30D20C4F8FC04206807F0CB
:1049F0000FF800F00200022805D12068406900F09D
:104A0000020021684861206807F002F800F01000F9
:104A1000102845D12068806920F010002168886145
:104A2000DBF8209009F00F0000EBC00104F51F70C7
:104A300000EB810AC9F3434002281AD147F6F0700F
:104A400009EA000030B3C9F30A125846DAF8101028
:104A500006F0E3FFC9F30A11DAF810000844CAF8B7
:104A60001000C9F30A11DAF820000844CAF820003F
:104A700010E0C9F3434006280CD1082204F2C441D7
:104A8000584606F0CAFFC9F30A11DAF820000844B4
:104A9000CAF820002068806940F010002168886111
:104AA000206806F0B5FF00F40020B0F5002F7BD1A0
:104AB0000025206806F07CFF029072E0E1E2029897
:104AC00000F00100002868D0E9B2206806F093FFEA
:104AD000804608F0010048B1012106F5306000EB86
:104AE000451081602946204602F022FE08F00800A9
:104AF000082809D1082106F5306000EB45108160D7
:104B00002946204602F0E2FD08F01000102805D1E9
:104B1000102106F5306000EB4510816008F00200BE
:104B2000022824D1DBF8140000F08000802807D18F
:104B300040F60400805940F4806140F60400815141
:104B400005EBC50104F51F7000EB810A9AF803001C
:104B5000012806D100208AF80300E9B2204600F0BF
:104B60009BFA022106F5306000EB4510816008F0E9
:104B70002000202805D1202106F5306000EB4510EB
:104B8000816008F40050B0F5005F06D14FF4005189
:104B900006F5306000EB451081606D1C02984008FE
:104BA0000290029800288AD1206806F031FF00F4B4
:104BB0008020B0F5802F7DD1206806F0EFFE0290B6
:104BC00000259AE0029800F00100002873D0E9B2B5
:104BD000206806F0F7FE804608F00100F0B305F00B
:104BE0000F0101208840019040F63400815901985E
:104BF00021EA000040F634018851012106F51060D9
:104C000000EB451081602069012824D105EBC50126
:104C100004F13C0000EB810005EBC502016904F1E1
:104C20003C0000EB8200C068014405EBC50204F1C2
:104C30003C0000EB820001616DB905EBC50104F198
:104C40003C0000EB8100806928B904F2C4420121D4
:104C5000206806F047FBE9B2204600E001E0FFF7DC
:104C600003FD08F00800082805D1082106F51060AA
:104C700000EB4510816008F01000102805D11021CC
:104C800006F5106000EB4510816008F040004028F8
:104C900005D1402106F5106000EB4510816008F059
:104CA000020002281DD12946584606F033FE05EBC6
:104CB000C50101E025E01CE004F13C0000EB810AA5
:104CC0009AF80300012806D100208AF80300E9B20F
:104CD000204600F0D8F9022106F5106000EB4510DF
:104CE000816008F08000802803D12946204602F028
:104CF000C1FD6D1C029840080290029800287FF4C4
:104D000061AF206806F084FE00F00040B0F1004F73
:104D10001CD140F60400805920F0010140F6040047
:104D2000815194F8F404012807D1002084F8F40498
:104D300000212046FFF764FC02E0204600F0D4FA90
:104D40002068406900F0004021684861206806F052
:104D50005FFE00F40060B0F5006F0ED140F6080071
:104D6000805900F0010010B1204600F015FB2068CA
:104D7000406900F4006021684861206806F048FE40
:104D800000F48050B0F5805F7ED140F60400805979
:104D900020F0010140F6040081511021206806F046
:104DA000B9FD002732E04FF67F3106F5106000EBC9
:104DB0004710816006F5106000EB4710006820F492
:104DC000001106F5106000EB471001604FF67F31CF
:104DD00006F5306000EB4710816006F5306000EBAF
:104DE0004710006820F4001106F5306000EB471012
:104DF000016006F5306000EB4710006840F000618C
:104E000006F5306000EB471001607F1C6068B84217
:104E1000C9D840F61C00805940F0011140F61C0032
:104E20008151206B70B1D6F8840840F00B01C6F8B0
:104E3000841840F64400805940F00B0140F64400CD
:104E400081510FE040F61400805942F22B010843D3
:104E500040F614018851081F805940F00B014FF4AF
:104E600001608151D6F8000820F4FE60C6F8000801
:104E7000217C04F2C442206806F034FA20684069BC
:104E800000F48050216800E000E04861206806F0EE
:104E9000BFFD00F40050B0F5005F17D1206805F0A9
:104EA000EFFE206806F062FDE06000F073FB00900A
:104EB000227B2068009906F033FE204600F0FCF9C2
:104EC0002068406900F4005021684861206806F0BD
:104ED0009FFD00F00800082808D1204600F00BFADA
:104EE0002068406900F0080021684861206806F0E9
:104EF0008FFD00F08000802818D1DBF8180020F02A
:104F00008000CBF8180001250DE005EBC50104F584
:104F10001F7000EB8100C078012803D1E9B2204660
:104F2000FFF7C9FB6D1C6068A842EED8206806F048
:104F30006FFD00F48010B0F5801F2DD1012522E017
:104F400006F5106000EB4510D0F8009005EBC501A8
:104F500004F13C0000EB81000079012812D109F036
:104F60000040B0F1004F0DD1012105EBC50204F165
:104F70003C0000EB8200C170E8B240F080012046A6
:104F8000FFF799FB6D1C6068A842D9D8206840697A
:104F900000F4801021684861206806F039FD00F4B3
:104FA0000010B0F5001F44D1012538E006F530604F
:104FB00000EB4510D0F8009005EBC50104F51F701B
:104FC00000EB81000079012828D109F00040B0F100
:104FD000004F23D109F4803094F8FC1401F0010152
:104FE00088421BD1012105EBC50204F51F7000EBBF
:104FF0008200C170DBF8180040F08000CBF8180088
:10500000DBF8140000F0800040B940F6040080593D
:1050100040F4007140F60400815103E06D1C6068AB
:10502000A842C3D800BF2068406900F4001021687E
:105030004861206806F0ECFC00F08040B0F1804F41
:1050400008D12046FFF709FB2068406900F0804046
:1050500021684861206806F0DBFC00F004000428A9
:105060000FD12068D0F8049009F00400042802D180
:105070002046FFF719FB2068406840EA09002168D4
:10508000486000BFA9E470B504460D462946D4F82F
:10509000080505F011F970BD70B504460D462946A6
:1050A000D4F8080505F02CF970BD70B58AB0044637
:1050B00014B901200AB070BD266894F8BD0428B95F
:1050C000002084F8BC04204600F0A2F8032084F8F5
:1050D000BD04F06B00F4807008B9002121612068E4
:1050E00006F00AF8282204F110016846FBF724FABA
:1050F00094E80F0005F0D8FD20B1022084F8BD042B
:105100000120D7E70021206806F0B7FC002531E038
:10511000012105EBC50204F13C0000EB8200417067
:1051200005EBC50104F13C0000F8215005EBC50179
:1051300000EB81000581002105EBC50204F13C0074
:1051400000EB8200017105EBC50204F13C0000EBAD
:105150008200C16005EBC50204F13C0000EB820057
:10516000016105EBC50204F13C0000EB82008161A6
:10517000681CC5B26068A842CAD800252AE0002190
:1051800005EBC50204F51F7000EB8200417005EBD2
:10519000C50104F51F7000F82150002105EBC50280
:1051A00000EB8200017105EBC50204F51F7000EBF6
:1051B0008200C16005EBC50204F51F7000EB8200A0
:1051C000016105EBC50204F51F7000EB82008161EF
:1051D000681CC5B26068A842D1D8282204F1100129
:1051E0006846FBF7A9F994E80F0005F095FE20B199
:1051F000022084F8BD0401205CE7002084F8380018
:10520000012084F8BD04206805F074FE002051E7F9
:1052100010B586B00446142101A8FBF7C7F9206831
:10522000B0F1A04F42D100BF00200090204800689C
:1052300040F001001E4908600846006800F00100C7
:10524000009000BF00BF4FF4C050019002200290B8
:1052500000200390032004900A20059001A915481E
:10526000FEF7CCFF00BF1248001D006840F0800030
:105270000F49091D086000BF002000900C48143041
:10528000006840F480400A4914310860084600680C
:1052900000F48040009000BF00BF00BF0022052145
:1052A0004320FFF75BF94320FFF748F906B010BD34
:1052B000303802400000024070B504460125E06825
:1052C00008B9002506E0E068022801D1012501E0C7
:1052D000FDF75CF82946D4F8080505F0BAF8D4F8CB
:1052E000080505F061F870BD10B50446D4F808054E
:1052F00005F090F810BD10B50446D4F8080505F087
:1053000094F810BD70B504460D4600BF94F8BC0477
:10531000012801D1022070BD012084F8BC0400BF27
:1053200084F838502946206806F0DBFB00BF0020D7
:1053300084F8BC0400BF00BFEDE710B5044604F2DA
:10534000C441D4F8080505F09BF810BD70B50446BB
:10535000256800BF94F8BC04012801D1022070BD6B
:10536000012084F8BC0400BFA06A012806D1A0690E
:10537000012803D0A86B40F48030A863206806F0B1
:1053800097FA206805F0A4FD00BF002084F8BC0453
:1053900000BF00BFE3E7000010B50446D4F80805DD
:1053A00005F0CBF82068D0F8000E40F0010021682D
:1053B000C1F8000E206A28B10348006840F00600DA
:1053C0000149086010BD000010ED00E070B5044612
:1053D0000D460CB9012070BD5848006800F0070068
:1053E000A84209D255490D700846006800F0070030
:1053F000A84201D00120EEE7207800F00200022848
:105400001DD1207800F00400042805D14C48006824
:1054100040F4E0504A490860207800F0080008286D
:1054200005D14748006840F4604045490860444859
:10543000006820F0F000A168084341490860207826
:1054400000F00100A8B36068012807D13C48083883
:105450000068C0F34040B8B90120BCE7606802288A
:1054600002D06068032807D1354808380068C0F3C7
:10547000406048B90120AEE7314808380068C0F301
:10548000400008B90120A6E72D48006820F003007D
:10549000616808432A490860FEF7B0FF064609E044
:1054A000FEF7ACFF801B41F28831884202D903200D
:1054B00091E707E02248006800F00C006168B0EB5B
:1054C000810FEDD11D48006800F00700A84209D9FE
:1054D0001A490D700846006800F00700A84201D084
:1054E000012078E7207800F00400042807D1144850
:1054F000006820F4E050E168084311490860207812
:1055000000F00800082808D10D48006820F4604029
:10551000216940EAC1000A49086000F051F80849D1
:105520000968C1F30311074A515CC8400649086085
:1055300006480068FEF792FF00204CE7003C02405E
:105540000838024020F4000800020020F801002082
:105550000F2202600D4A126802F0030242600B4AF9
:10556000126802F0F0028260084A126802F4E05207
:10557000C260064A126802F46042D2080261044A1C
:10558000126802F007020A60704700000838024003
:10559000003C024001480068704700000002002003
:1055A00000B5FFF7F7FF04490968C1F38221034AF8
:1055B000515CC84000BD00000838024030F40008CB
:1055C0002DE9F047002400250026A1462548006863
:1055D00000F00C0020B1042805D008283AD105E0DD
:1055E000DFF8849039E0DFF8849036E01D48001F32
:1055F000006800F03F041B48001F006800F48000B2
:1056000078B11A481749091F0968C1F38811A0FB2E
:1056100001700146224600233846FAF7A5FE0546EA
:105620000EE011480F49091F0968C1F38811A0FB5A
:1056300001700146224600233846FAF795FE0546DA
:105640000848001F0068C0F30140401C4600B5FB3D
:10565000F6F902E0DFF8109000BF00BF4846BDE851
:10566000F0870000083802400024F40000127A009D
:10567000F8B504460CB90120F8BD207800F001000F
:10568000002874D0F948006800F00C0004280DD000
:10569000F648006800F00C00082813D1F348001FFA
:1056A000006800F48000B0F5800F0BD1EF48083897
:1056B0000068C0F34040002859D06068002856D1E7
:1056C0000120D9E700BF6068B0F5803F08D1E74806
:1056D0000838006840F48030E449083908601EE06A
:1056E0006068B0F5A02F0DD1E0480838006840F49C
:1056F0008020DE49083908600846006840F48030A0
:1057000008600CE0D9480838006820F48030D74998
:10571000083908600846006820F48020086000BF4F
:10572000606890B1FEF76AFE054606E0FEF766FE89
:10573000401B642801D903209EE7CC480838006844
:10574000C0F340400028F1D011E0FEF757FE0546B7
:1057500006E0FEF753FE401B642801D903208BE7C7
:10576000C24808380068C0F340400028F1D12078D2
:1057700000F0020002285FD1BC48006800F00C0075
:1057800058B1BA48006800F00C0008281CD1B7488E
:10579000001F006800F48000B0B9B4480838006801
:1057A000C0F3400020B1E068012801D0012063E788
:1057B000AE480838006820F0F800216940EAC100CE
:1057C000AA490839086037E0E06800B30120A84919
:1057D0000860FEF713FE054606E0FEF70FFE401BCD
:1057E000022801D9032047E7A04808380068C0F321
:1057F00040000028F1D09D480838006820F0F800EB
:10580000216940EAC10099490839086014E0002084
:1058100097490860FEF7F2FD054606E0FEF7EEFD4B
:10582000401B022801D9032026E790480838006869
:10583000C0F340000028F1D1207800F008000828CB
:105840002CD16069A8B101208A490860FEF7D6FD15
:10585000054606E0FEF7D2FD401B022801D90320D1
:105860000AE782486C300068C0F340000028F1D09D
:1058700014E000207F490860FEF7C0FD054606E001
:10588000FEF7BCFD401B022801D90320F4E677484F
:105890006C300068C0F340000028F1D1207800F09F
:1058A0000400042870D1002770483830006800F0E8
:1058B000805090B900BF002000906C4838300068DC
:1058C00040F080506949383108600846006800F0AF
:1058D0008050009000BF00BF01276748006800F4B7
:1058E0008070B0B96448006840F480706249086014
:1058F000FEF784FD054606E0FEF780FD401B02280A
:1059000001D90320B8E65C48006800F480700028E4
:10591000F2D000BFA068012808D154486830006860
:1059200040F001005149683108601DE0A068052879
:105930000DD14E486830006840F004004B49683192
:1059400008600846006840F0010008600CE0474825
:105950006830006820F0010044496831086008465A
:10596000006820F00400086000BFA068A8B1FEF73E
:1059700045FD054609E0FEF741FD401B41F2883137
:10598000884202D9032077E626E03848683000686C
:10599000C0F340000028EED013E0FEF72FFD0546CF
:1059A00008E0FEF72BFD401B41F28831884201D907
:1059B000032061E62D4868300068C0F340000028ED
:1059C000EFD1012F07D129483830006820F08050EE
:1059D00026493831086000BFA069002845D0234817
:1059E000006800F00C0008285DD0A069022845D1AD
:1059F00000201F490866FEF701FD054606E0FEF798
:105A0000FDFC401B022801D9032035E61748083861
:105A10000068C0F340600028F1D1D4E907010843D1
:105A2000616A40EA81110122A06AC2EB500041EA9A
:105A300000412C20005D41EA00600C49091F08600C
:105A400001200B490866FEF7D9FC054606E0FEF783
:105A5000D5FC401B022801D903200DE60348083875
:105A60000068C0F340600028F1D049E008380240E7
:105A700000004742800E474200700040002021494C
:105A80000866FEF7BBFC054606E0FEF7B7FC401BC8
:105A9000022801D90320EFE51B480068C0F34060ED
:105AA0000028F2D12CE0A069012800D1E4E51648D5
:105AB000001D0668A069012820D006F48001E06975
:105AC00081421BD106F03F01206A814216D147F680
:105AD000C0703040616AB0EB811F0FD106F44031D5
