:020000040800F2
:10000000F0700120290300086D5E00080D540008FF
:10001000595E000845140008F19100080000000036
:10002000000000000000000000000000690200085D
:10003000D915000800000000C5020008157100086D
:100040004303000843030008430300084303000878
:100050004303000843030008430300084303000868
:100060004303000843030008430300081115000878
:1000700043030008430300081D150008430300085C
:100080004303000843030008B107000843030008C6
:100090004303000843030008430300084303000828
:1000A00043030008E9710008D97100084303000800
:1000B0004303000809720008157200084303000892
:1000C00043030008430300084303000843030008F8
:1000D00043030008430300084303000843030008E8
:1000E00043030008430300084303000843030008D8
:1000F00043030008430300084303000843030008C8
:1001000043030008430300084303000843030008B7
:100110004303000843030008430300085D7200081E
:10012000291500084303000843030008430300089F
:100130004303000800000000000000004303000823
:100140004303000843030008430300089D5E0008C2
:100150004303000843030008430300084303000867
:100160004303000843030008430300084303000857
:1001700043030008430300080000000000000000E3
:10018000430300084303000800F002F800F05CF8A5
:100190000AA090E8000C82448344AAF10107DA45E2
:1001A00001D100F051F8AFF2090EBAE80F0013F0D8
:1001B000010F18BFFB1A43F0010318470CC20000DF
:1001C0002CC200000A444FF0000C10F8013B13F061
:1001D000070408BF10F8014B1D1108BF10F8015BA0
:1001E000641E05D010F8016B641E01F8016BF9D193
:1001F00013F0080F1EBF10F8014BAD1C0C1B09D1EA
:100200006D1E58BF01F801CBFAD505E014F8016B5B
:1002100001F8016B6D1EF9D59142D6D370470000ED
:100220000023002400250026103A28BF78C1FBD8FF
:10023000520728BF30C148BF0B6070471FB50BF095
:100240003DFF1FBD10B510BD00F010FA1146FFF7BD
:10025000F5FF0AF051F800F02EFA03B4FFF7F2FFB1
:1002600003BC00F031FA00002C4B19680868B0E8B4
:10027000F04F80F30988BFF36F8F4FF0000080F3D9
:10028000118870470000000008480068006880F38B
:1002900008884FF0000080F3148862B661B6BFF39F
:1002A0004F8FBFF36F8F00DF00BF00BF08ED00E08E
:1002B000DFF80C00016841F470010160704700BF75
:1002C00088ED00E0EFF30980BFF36F8F134B1A68DE
:1002D0001EF0100F08BF20ED108A20E9F04F1060CB
:1002E00009B44FF0500080F31188BFF34F8FBFF374
:1002F0006F8F0BF00FF84FF0000080F3118809BCEE
:1003000019680868B0E8F04F1EF0100F08BFB0EC95
:10031000108A80F30988BFF36F8F7047A000002018
:10032000EFF30580704700000948804709480047FF
:10033000FEE7FEE7FEE7FEE7FEE7FEE7FEE7FEE795
:10034000FEE7FEE704480549054A064B70470000F2
:10035000C971000889010008F0700020F0700120C8
:10036000F0F00020F0F0002053EA020C00F0698069
:100370002DE9F04B4FF00006002B1FBFB3FA83F5B9
:1003800003FA05F424FA05F65E4012BF1643B2FAEA
:1003900082F502FA05F4C5F120051EBF22FA05FC1C
:1003A00044EA0C04203556EA044C4FEA144418BFC2
:1003B000641C4FF000084FF00009904271EB030CF1
:1003C00039D3002919BFB1FA81F701FA07F6B0FA5B
:1003D00080F700FA07F6C7F120071EBF20FA07FCD6
:1003E00046EA0C062037B6FBF4FCA7EB0507103FE6
:1003F00007F01F0BCBF120060CFA0BFB2CFA06F6CC
:1004000044BFB3460026202FA4BF5E464FF0000B2A
:100410005BEA060C08BF4FF0010B19EB0B09ABFBB5
:10042000027C48EB0608C01B06FB02CC0BFB03CC8E
:1004300071EB0C01C1E70B46024641464846BDE858
:10044000F08B13B54FF000004FF00001AFF30080C8
:10045000BDE81C40704740EA010310B59B070FD16F
:10046000042A0DD310C808C9121F9C42F8D020BA24
:1004700019BA884201D9012010BD4FF0FF3010BDDC
:100480001AB1D30703D0521C07E0002010BD10F8AA
:10049000013B11F8014B1B1B07D110F8013B11F870
:1004A000014B1B1B01D1921EF1D1184610BD032A2E
:1004B00040F2308010F0030C00F0158011F8013B81
:1004C000BCF1020F624498BF11F801CB00F8013B68
:1004D00038BF11F8013BA2F1040298BF00F801CB2C
:1004E00038BF00F8013B11F0030300F02580083A03
:1004F000C0F0088051F8043B083A51F804CBA0E85A
:100500000810F5E7121D5CBF51F8043B40F8043BAE
:10051000AFF30080D20724BF11F8013B11F801CBE3
:1005200048BF11F8012B24BF00F8013B00F801CBB4
:1005300048BF00F8012B704710B5203AC0F00B807F
:10054000B1E81850203AA0E81850B1E81850A0E8D7
:100550001850BFF4F5AF5FEA027C24BFB1E8185031
:10056000A0E8185044BF18C918C0BDE810405FEAA1
:10057000827C24BF51F8043B40F8043B08BF70471D
:10058000D20728BF31F8023B48BF11F8012B28BF22
:1005900020F8023B48BF00F8012B704702F0FF0330
:1005A00043EA032242EA024200F037B84FF0000269
:1005B00000B5134694469646203922BFA0E80C5059
:1005C000A0E80C50B1F12001BFF4F7AF090728BF34
:1005D000A0E80C5048BF0CC05DF804EB890028BFB0
:1005E00040F8042B08BF704748BF20F8022B11F0D9
:1005F000804F18BF00F8012B704770477047704755
:1006000010B500F02BF8006810BD10B5044600F0DE
:1006100025F8046010BD4FF000020429C0F01280DC
:1006200010F0030C3FF4C4AFCCF1040CBCF1020F8A
:1006300018BF00F8012BA8BF20F8022BA1EB0C017A
:10064000FFF7B6BF5FEAC17C24BF00F8012B00F8BA
:10065000012B48BF00F8012B70470000004870478D
:100660008C700020004870478C7000207546FFF7A2
:10067000F9FFAE4605006946534620F0070085465F
:1006800018B020B5FFF75EFEBDE820404FF0000631
:100690004FF000074FF000084FF0000B21F007016A
:1006A000AC46ACE8C009ACE8C009ACE8C009ACE8AD
:1006B000C0098D46704710B50446AFF30080204650
:1006C000BDE81040FFF7C9BD01491820ABBEFEE7E9
:1006D000260002007047000010B52DED028BF0EEF1
:1006E000608A05F0C5FBB0EE408AB0EE680A05F0FE
:1006F000BFFBF0EE400A084938EE600AB0EEC00ACF
:1007000010EE100A884203DBDFED040A30EEC00A67
:10071000BDEC028B10BD0000DB0F4940DB0FC94070
:1007200010B50146806B026C12F0500F05D0026CC0
:10073000D20626D502F0A8FA10BD016C41F4007172
:10074000016401688A6812F0405F17D1027EAAB97D
:10075000CA6A12F4700F02D08A6852050ED44A6831
:1007600022F020024A60016C21F480710164016C66
:10077000C90403D4016C41F00101016402F082FA62
:1007800010BD806BC26CBDE810400846104710B524
:10079000806B40210164416C41F00401416402F02E
:1007A00073FA10BD10B5806B02F06DFA10BD000039
:1007B00030B57C4D01202DED028B87B028607A4842
:1007C00000210160C0F80011C0F80012C16B00EEFA
:1007D000101A7649F8EE402AC1ED002AD0F83C21E3
:1007E00000EE102AB8EE402A81ED012AD0F83C2212
:1007F00000EE102AF8EE401AC1ED021A026C00EE6B
:10080000102AB8EE400A81ED030AD0F8402100EE2C
:10081000902AB8EE601A81ED041AD0F8400200EE7A
:10082000900AF8EE600AC1ED050A9FED618A614801
:10083000BDEEC00A62EE882A22EE082A61EE881A0E
:10084000C0ED002A80ED012AC0ED021A5A4810EED0
:10085000101A90ED040ABDEEC00A10EE102A891A93
:1008600000EE101AF8EEC01A9FED540A5449BDEE7E
:10087000C11A61EE801AFDEEE00A11EE102AC1EDF8
:10088000001A90ED051A514CBDEEC11A11EE103A46
:10089000D21A01EE102A10EE902AB8EEC11A21EEFB
:1008A000001A81ED011AD0ED060AFDEEE00A10EE05
:1008B000900A101A00EE900A4248F8EEE00A20EE84
:1008C000800A81ED020A016891ED000A8DED000AAF
:1008D000416891ED000A8DED010A806890ED000AF3
:1008E00039488DED020A016891ED000A8DED030A89
:1008F000416891ED000A8DED040A806890ED000AD0
:100900008DED050AD4ED010ADFED318A0322694637
:10091000B0EE680A2F4804F055FFD4ED010AB0EE9E
:10092000680A032203A92C4804F04CFF2B48B7EEB9
:10093000001A008800EE100A2948B8EE400A20EE9E
:10094000080A84ED030AD0ED020AD4ED041A02204D
:1009500031EE601A21EE211A00EE801A84ED041A9D
:10096000286020480078012813D11F480078062805
:100970000FD2DFE800F003060E09090C00F024F99D
:1009800007E001F0BDF904E004F0D6FE01E008F054
:1009900035FC4FF4003028604010286007B0BDECF3
:1009A000028B30BD1804024000200140447000203A
:1009B000A742773C5C7000204C0300204108043CB7
:1009C000747000206C03002078030020B401002024
:1009D00000401C46687000208070002068030020E2
:1009E000CC01002040030020B0010020464910B592
:1009F0004A6822F440324A604A6843681A434A60AF
:100A000001684A6822F480724A6001684A68036992
:100A100042EA03224A6001684A6822F040724A6052
:100A200001684A6883681A434A6001688A6822F448
:100A300000628A6001688A68C3681A438A60816AB2
:100A40006FF07062D14201688A6822F070628A6039
:100A500001688A680CD0836A1A438A6001688A68D0
:100A600022F040528A6001688A68C36A1A4301E032
:100A700022F040528A6001688A6822F002028A608D
:100A800001688A68037E42EA43028A6090F8201077
:100A9000002901684A680FD042F400624A60016888
:100AA0004A6822F460424A6001684A68174C436A07
:100AB00004EB43331A4301E022F400624A60016808
:100AC000CA6A22F47002CA620168CA6A838B104C37
:100AD00004EB03531A43CA6201688A6822F4007265
:100AE0008A6001688A6890F8303042EA43228A605E
:100AF00001688A6822F480628A6001688A684069B5
:100B000042EA8020886010BD0023014000E0FFFF22
:100B10000000F0FF10B52DED028B82B0684600F0AA
:100B200029F8114C10B1BDF80000A080A0889FEDFD
:100B30000F1A00EE100A9FED0E8AB8EE400AC0EEC2
:100B4000010A94ED020A10EE880A05F091F984ED8D
:100B5000030AA078002803D038EE400A84ED030A87
:100B600002B0BDEC028B10BDE402002000FC7F4609
:100B7000DB0FC94070B50546114C0120002203056A
:100B80004FF6FF71A3610F4BD960D96889B29E6897
:100B90003606FCD41023A361C1F30D032B804B0454
:100BA00000D500200023CC0701D0521CD2B25B1C20
:100BB0004908DBB2102BF6D3D10700D0002070BD5E
:100BC00000000240003001402DE9F04FFF4D0127A9
:100BD0002DED028B83B02878DFF8F4A3DFF8F493CF
:100BE000B7EE008A4FF47A7B002460B15046D9F802
:100BF000741042F2107280694E46914277DD0128EE
:100C000075D9002000E2F448016A40F255500140D5
:100C1000F248B6EE000A552990EC021AD0ED020A0D
:100C200031EE212A21D0A1F5A061053923D04B292D
:100C300024D032EE200AB0EE082A4846C0EE022A3E
:100C4000C9ED052A95ED0E2AD0ED062A38EE420AA6
:100C500020EE220AD0ED052A02EE220A80ED060AD5
:100C6000017871B1022922D027E022EE000A48461D
:100C700089ED050AE6E731EE202AF6E731EEA02AF3
:100C8000F3E710EE101AD64A914216DA046544656D
:100C90008465C4650466446644678467C467C0F8B5
:100CA000804044628462C4620463446345E0C16975
:100CB000491CC161026A914240D9416AB4EEC01A2E
:100CC0004E004662816A49008162C26A5200F1EEBA
:100CD00010FAC26201DD012300E00023F4EEC01A25
:100CE0003343F1EE10FA436202DD012601E088E1B0
:100CF0000026F4EEC00A0E43F1EE10FA866201DD22
:100D0000012100E000211143C162026C13404364E1
:100D1000934201D1076301E003B90463164086647E
:100D2000964201D1476301E006B944631140C164B2
:100D3000914201D1876301E001B9846390F83410D6
:100D400090F83820490001EB820190F830201144DE
:100D5000C9B20174C26D521CC26599F81100884273
:100D600048467CD0417490ED140A9E4A80ED150AE5
:100D70000465D2ED040AD0ED161AB8EE400A38EE3A
:100D8000601AF8EE611A61EE211A40EE801ABCEE8C
:100D9000E10A10EE102A82656B792BB15A433C238D
:100DA000B2FBF3F2826600E084668F4A90F88A30E4
:100DB000525C8849843100915A5490F88A20416DE0
:100DC00000EB8202C2F88C1090F88A10491CC9B25C
:100DD00080F88A1006294DD380F88A4090ED170AD2
:100DE00080ED180AC465D0ED191AB8EE400AF8EE85
:100DF000611A21EE211A00EE801ABCEEC10A10EE33
:100E0000101A416695F8233001FB03F24FF4B473D6
:100E1000B2FBF3F2C2631F2A00D91F22724EC263D3
:100E2000503656F82220026495F8226001FB06F243
:100E3000B2FBF3F20262C1B1D0F8B820C2EB0212E9
:100E40009200B2FBF1F190F9702051430A464167DC
:100E500000D5494281672B7992FBF3F200E095E0DF
:100E600091FBF3F1C0E91F2104E044678467C46784
:100E7000C0F880400646F6E9233803EB0800D6E9BF
:100E8000022102EB010C6044D6F810C0E646604433
:100E9000D6F814C0CDF804C060444FF0060CB06121
:100EA00090FBFCF01B1A121A5B43A8EB000C524398
:100EB000091A0CFB0C3301FB0121AEEB0002F061BF
:100EC0001944DDF804C002FB0211ACEB000000FB8A
:100ED0000010062190FBF1F030620AF078FF41EC3F
:100EE000100B09F0AFF851EC100B0AF041FF306223
:100EF0005FF000063C4906EB4608C91D01EB4800BF
:100F000006220099FFF7A7FA68B1374906222B316C
:100F100001EB48000099FFF79EFAF0B1761CF6B29B
:100F2000062EE7D336E099F80010484601290CD187
:100F30002A8CD0F8AC10914207DA8188AA8B9142B2
:100F400003D9052141708460C4602A8DD0F8AC10AB
:100F500091421FDA89F870701CE099F80010484639
:100F600001290AD12A8CD0F8AC10914205DA818887
:100F7000AA8B914201D9052141702A8DD0F8AC107D
:100F8000914207DAFF2189F8701003E0016D491CD6
:100F9000C9F8501099F8131099F81020484691425A
:100FA00002D0C16E491CC166A98CD0F8B820036D6F
:100FB0004A43B2FBFBF29A4222D209B3046544656C
:100FC0008465C4650466446644670FE09C020020A3
:100FD000F06F00202C6F002000000140687000209E
:100FE0000000C842CC01002078C200088467C467B2
:100FF000C0F8804099F80000022801D106F006F8F8
:101000007EE0022802D9012008F0C8F8DAF80010C2
:10101000F54B4FEA4108DAF80410D3F800C04A0053
:10102000DAF808105046CCF3801C48EA0C08CAF8DD
:101030000080D3F800C0CCF3C01C42EA0C02CAF80E
:1010400004201B68C3F3002343EA41018160C369A4
:1010500008EA0308C0F82080984501D1C76003E082
:10106000B8F1000F00D1C4601A4042629A4201D127
:10107000076101E002B9046119408162994201D11E
:10108000476101E001B94461017C4A00017D02EB46
:101090008102017B1144C9B280F82C1090F82D20F8
:1010A0008A422AD08AF82D1096ED140ACF4886ED90
:1010B000150A3465D0ED040A96ED161AB8EE400A0A
:1010C00078EE601AB8EE411A21EE811A00EE801A0D
:1010D000BCEEC10A10EE100AB065D6F8B81001EBEC
:1010E00081014900B1FBF0F096F970104843706738
:1010F000297990FBF1F0F06702E0306D401C30651B
:1011000099ED1E0A4E46B8EEC00ADFEDB90AB9489D
:10111000022280EE201A80ED021A99F800100629AA
:101120000AD2DFE801F0030AB5E1E6E9B248016A54
:1011300040F2555291430162E2E073780321062B9D
:1011400015D2DFE803F003151E28328D95ED020A53
:1011500085ED0D0A08F0B4F9B460D6F8B800E96876
:101160004843B0FBFBF0F0607770B470B4807DE072
:10117000B068401CB060F168884277D9B460727082
:1011800074E0D6F8B8002A695043B0FBFBF0F06079
:101190007170B7706AE0B068401CB060F168884256
:1011A00064D90420B460707060E0B278521CD2B28E
:1011B000B270052A00D9B470B460717069882A7958
:1011C000D5ED021A514300EE101AD0ED040AD6F8FC
:1011D000B800B8EE400A00EB8000400020EE210A83
:1011E00060EE200A00EE100AB8EE401A81EE200AE6
:1011F000D6ED030AB8EE601AB4EEC10AF1EE10FAA9
:1012000025D295ED0D0A95ED061A30EE010A85ED11
:101210000D0A95ED0B1AB4EEC10AF1EE10FA08D3DF
:10122000B0EE001A21EE811AB4EEC10AF1EE10FA06
:1012300001DDB0EE410A85ED0D0AB8EE600AD5ED8C
:10124000050A20EE200ABCEEC00A86ED030AB0882B
:10125000411CB180E98B884208D905F0D7FE05E032
:101260003270747095ED0B0A85ED0D0A6348407875
:101270000128B07809D06249085CF070F46108F088
:101280001FF9F07804F020F83AE05D49891FF3E790
:10129000287828B13270032814D0042816D01AE018
:1012A000D6E91A01814209D9F466307CF074B07431
:1012B000F46108F005F9B07C04F006F8B07C03F0A6
:1012C000C5FF1DE09AF82C104E4802E09AF82C0059
:1012D0004D49085CB07408F0F3F8B07C04F020F8D5
:1012E000B07C04F05BF80BE008F0EAF800F094F84A
:1012F00006E000F013FF03E008F0E2F804F0B8FFA6
:101300004249434891ED000A80ED000A91ED010A3F
:1013100080ED010A91ED020A3E4980ED020A96ED48
:10132000050A80ED030A91ED000A80ED040A91EDB3
:10133000010A80ED050A91ED020A80ED060A96ED9C
:10134000060A80ED070A317800EE101AB8EE400A5E
:1013500080ED080A717800EE101AB8EE400A80EDB0
:10136000090AF17800EE101AB8EE400A80ED0A0A78
:10137000317C00EE101AB8EE400A80ED0B0AB17C09
:1013800000EE101A5421B8EE400A80ED0C0A96EDDA
:10139000150AB8EE400A80ED0D0A96ED160AB8EE71
:1013A000400A80ED0E0A96ED2B0AB8EEC00A80EDD9
:1013B0000F0A96ED180AB8EE400A80ED100A96ED75
:1013C000190AB8EE400A80ED110A96ED2C0A80ED5C
:1013D000120A96ED2D0A80ED130A03B0BDEC028BC4
:1013E000BDE8F04F00F054B810080240CC010020D6
:1013F00000007042B401002000000140C80100203C
:1014000072C20008FF020020060300205C7000206A
:101410008403002068700020084830F8BC3F4188F1
:101420000748026AC36241638163C16340F2555158
:101430008A4340F244410A43026270472C6F002005
:1014400000000140FEE700207047002070470000C8
:1014500010B500220449054806F0A2FA04490348E1
:1014600006F091FA002010BDEC13002010070020B8
:10147000EC0B002010B50146034806F084FA024840
:1014800006F05AFA002010BD100700200020704717
:10149000094A10B5D2F8BC22D2F814220AB10120B0
:1014A00010BD0A460146044806F07AFABDE810402D
:1014B000014806F0EFBA00001007002070EE811A14
:1014C000B6EE002A01EEC20ADFED081A20EE210A6C
:1014D00080ED000A30EEC10ADFED050A20EE200A99
:1014E00020EE210A81ED000A70470000ABAA2A3FD6
:1014F000D7B35D3F044800219FED040A017580EDDC
:10150000060A417570470000146C002000000000BE
:10151000014801F0CFBD000008060020014801F09D
:10152000C9BD000068060020014801F0C3BD0000ED
:10153000A805002001681823CAB2103AB2FBF3F2E2
:10154000054B6FF30901032A9B5CC36500D9091D94
:1015500081650846704700004CC2000810B501467E
:1015600000208B698A6A4FF0C07453B1B3F5005FF5
:1015700015D072B1012A0CD0022A0AD0032A09D14F
:1015800004E01AB1012A06D0022A03D1C96AC901AE
:1015900000D5012010BDC96AA142FAD010BD002AB1
:1015A000F7D0012AF2D0022AF3D0032AF3D010BDDB
:1015B00030B50468256825F48025256004686360DB
:1015C0008368402B036803D099600068C26030BD17
:1015D0009A600068C16030BD704700002DE9F04F8F
:1015E00000272DED0A8BA3B0F0EE40AADFEDFE8AB6
:1015F0005A247826B0EE688A8DED128A8DED138A12
:10160000F0EE489AB0EE48AA182114A8FEF7CEFFD3
:1016100004F014F9DFF8D4B3DBF8201040F255528F
:101620001143CBF82010F24D9FEDF29A43E0F248BF
:10163000EF49303190EC030A081FFFF73FFF00EE3F
:10164000104AEB49D5ED0C0AB8EEC00A4031081F2C
:1016500080EE091A95ED0B0A04F0E4FD00EE104A45
:1016600013A912A8B8EEC00AF0EE690A80EE091AB2
:10167000B0EE480A04F03AF800EE104AF0EE691AAB
:10168000B0EE481AB8EEC00ADDED130A80EE092A62
:101690009DED120A04F0A0FF9FEDD80A38EE008AF3
:1016A00018EE100AB0F17E5F02DDB7EE008A09E0A5
:1016B000012008F0ABFE95ED0F0AB4EEEA0AF1EE58
:1016C00010FAB4D34FF47A7008F0A0FE0025E84673
:1016D00008EB4500FFF74EFA08B16D1CEDB2012092
:1016E00008F094FE202DF3D32021684608F0CCFDAD
:1016F0000420414631F81020401C00EE102AC0B2F0
:101700001C28B8EE400A30EE0AAAF3D3B3EE08BAAA
:101710008AEE0B0ADFEDBABAC0EE2B0A9FEDB9AA2A
:1017200020EE8A0A04F0A4FB8DED140ADFEDB6AAC0
:10173000B0EE68CA5FF00005C0EE2A0ABCEEE00A0F
:1017400010EE100A00F0FF0A00EE104A13A912A8CA
:10175000B8EEC00AF0EE690A641C80EE091AB0EE19
:10176000480A03F0C3FF00EE104AF0EE691AB0EE2B
:10177000481AB8EEC00ADDED130A80EE092A9DED85
:10178000120A04F029FF0A2008F040FE6D1C2DB259
:10179000B542D9DB4FF4FA7008F038FE5FF000056F
:1017A00008EB4500FFF7E6F908B16D1CEDB201202A
:1017B00008F02CFE202DF3D32021684608F064FDAC
:1017C00004204146C14631F81020401C00EE102A8A
:1017D000C0B21C28B8EE400A30EE0CCAF2D38CEE30
:1017E0000B0AC0EE2B0A20EE8A0A04F041FB8DEDB5
:1017F000150AB0EE68CA354624E000BF00EE104A74
:1018000013A912A8B8EEC00AF0EE690A641E80EEB1
:10181000091AB0EE480A03F069FF00EE104AF0EE34
:10182000691AB0EE481AB8EEC00ADDED130A80EE70
:10183000092A9DED120A04F0CFFE0A2008F0E6FD09
:101840006D1E2DB2002DD9DC4FF4FA7008F0DEFDCC
:101850004FF000084FEA090505EB4800FFF78AF949
:1018600018B108F1010808F0FF08012008F0CEFDCA
:10187000B8F1200FF0D32021684608F005FD0420C0
:101880002946A84631F81020401C00EE102AC0B2AC
:101890001C28B8EE400A30EE0CCAF2D38CEE0B0ACC
:1018A000C0EE2B0A20EE8A0A04F0E2FAC0EE2A0A01
:1018B0008DED160AB0EE68CA3546BCEEE00A10EEB1
:1018C000100A00F0FF0923E000EE104A13A912A845
:1018D000B8EEC00AF0EE690A641E80EE091AB0EE96
:1018E000480A03F003FF00EE104AF0EE691AB0EE6A
:1018F000481AB8EEC00ADDED130A80EE092A9DED04
:10190000120A04F069FE0A2008F080FD6D1E2DB257
:10191000002DD9DC4FF4FA7008F078FD5FF0000577
:1019200008EB4500FFF726F908B16D1CEDB2012068
:1019300008F06CFD202DF3D32021684608F0A4FCAC
:101940000420414631F81020401C00EE102AC0B29D
:101950001C28B8EE400A30EE0CCAF3D38CEE0B0A0A
:10196000C0EE2B0A20EE8A0A04F082FA8DED170AE7
:101970005FF0000500EE104A13A912A8B8EEC00AE5
:10198000F0EE690A641C80EE091AB0EE480A03F012
:10199000ADFE00EE104AF0EE691AB0EE481AB8EE4D
:1019A000C00ADDED130A80EE092A9DED120A04F04B
:1019B00013FE0A2008F02AFD6D1C2DB2B542D9DBBA
:1019C0004FF4FA7008F022FD0026454605EB46006C
:1019D000FFF7D0F808B1761CF6B2012008F016FD2A
:1019E000202EF3D3202111E0000000000000014070
:1019F000EC6C0020E12E6542807000206F12833A6B
:101A000000FC7F46DB0FC940DB0FC93F684608F08A
:101A10003BFC042035F81010401C00EE101AC0B238
:101A20001C28B8EE400A70EE288AF3D388EE8B0AA1
:101A3000C0EE2B0A20EE8A0A04F01AFAC0EE2A0A37
:101A40008DED180ABCEEE00A10EE100AC6B29FED4A
:101A5000538ADDED150A9DED140AFEF73DFEDFED1C
:101A6000500AB4EEE00AF1EE10FA01D247F48037E2
:101A7000DDED150A9DED140A4A49012230EEC01A27
:101A8000494DB0EEC11A11EE100A884204DD10EE85
:101A9000100A884208DB04E0F4EEC00AF1EE10FA06
:101AA00002DD0020A87000E0AA70DDED160AFEF746
:101AB00013FEB4EEC80AF1EE10FA5ED2DDED180A9C
:101AC0009DED160AFEF708FEB4EEC80AF1EE10FA14
:101AD00053D2DDED180A9DED140AFEF7FDFDB4EEBC
:101AE000C80AF1EE10FA48D29DED140ADDED160A8F
:101AF000BAF1030F30EE200ADDED180A30EE200AAD
:101B00008DED190A0BD0B9F1030F01D0032E12D1BC
:101B1000BAF1000F03D130EE0A0A8DED190AB9F1BE
:101B2000000F03D130EE0A0A8DED190A1EB930EE0E
:101B30000A0A8DED190AF0EE400AB0EE081A80EE9E
:101B4000810A04F095F900EE904A18488DED190AC3
:101B5000F8EEE00A007FA97880EE891A00EE900A7C
:101B6000F8EE601AC1EE210A11B130EE800A01E0F0
:101B700030EE600A85ED020A01E047F40037DBF839
:101B8000201040F255529143CBF8201003F04EFE46
:101B900023B03846BDEC0A8BBDE8F08FC2B8B23D29
:101BA000C2B8323DDB0F4940E402002008020020A9
:101BB00072B6FEE710B504462DED028BB0EE608ADA
:101BC000F0EE408A7821FEF7F1FC9FED110AF0EE6D
:101BD000481A84ED000A9FED0F0AB0EE681A84EDF2
:101BE000010A9FED0D0A04F13C0084ED020A9FED0D
:101BF0000B0A84ED038A84ED040ADFED090A9FEDE8
:101C0000090ABDEC028BBDE8104004F081BA000067
:101C10006822543FF7587A3A97C4713C00504347C2
:101C20000000C8420000484210B5D0ED000A91ED16
:101C30000B0A044620EE800A80ED050A91ED0C1A8D
:101C400020EE812A80ED062AD1ED090AD0ED0D1A89
:101C500090ED031A70EEC02A90ED0B0A60EE210A97
:101C600090ED040A04F13C0040EE802AD4ED070A0E
:101C700042EE810AC4ED070AD1ED0A2A32EEC22AE9
:101C8000D4ED0C2A62EEA11A01EE802A94ED080A26
:101C900002EE010A84ED080A94ED011AD1ED0B1A47
:101CA00061EE211AC4ED091A91ED0C2A70EEE10AD9
:101CB00021EE021A84ED0A1A30EE410A20EEA01A33
:101CC000C4ED0B0A84ED0C0AD4ED021A00EE001AE2
:101CD00011EEA11A84ED0D1A04F054FA94ED190ACC
:101CE000DFED060A84ED1B0A94ED180A84ED1C0A48
:101CF00020EE200A84ED1D0A10BD00000000704295
:101D00002DE9F041BF4DC04E00272DED028BA5F10E
:101D1000A804286A401C286296F8221088420FD333
:101D20002F62F07F60B16878042809D1D4ED250ACC
:101D300094ED220A04F5D27004F0A8F984ED210A8A
:101D4000E869401CE86196F8211088420FD3EF61E2
:101D5000B07F60B16878042809D1AA48D5ED0E0A91
:101D600094ED210AC03004F091F984ED200AA748CF
:101D7000A449803990EC030A081FFFF79FFBA44891
:101D8000A049783990EC030A081FFFF797FB3078D9
:101D9000062801D104F0CEFA3078032801D00428B7
:101DA00001D100F0D3F93078022801D804F0ACFC5E
:101DB00095ED0C0A974F9349B0EEC00A87ED020AE1
:101DC000683994ED231AD4ED0C0A94ED0B0A081F20
:101DD00004F028FA8B4994ED231A7039D4ED0A0ADD
:101DE00094ED090A081F04F01DFA707F00287DD0C9
:101DF00095ED0C0ADFED880A60EE200A9FED870A58
:101E000094ED101AD7ED041A20EE800A20EE011A84
:101E10009FED830A61EE801A81EE210A84ED170A94
:101E200094ED0F1ADFED7F2A9FED7F2A01EE222A23
:101E300062EE200A80EEA12A84ED182A687805282F
:101E400007D07048D4ED1F0A483000F0F7F884ED51
:101E5000150A6C4894ED101AD4ED200A94ED180A76
:101E6000843000F0EBF8674984ED160A5839F0EE3B
:101E7000400A081F94ED231A94ED150A8846074678
:101E800003F034FC96ED090A4146384608F0D4FFC9
:101E90005C4996ED090A5039081F08F0CDFF94ED12
:101EA000090AD4ED0A0A20EE000A00EEA00A08F0A2
:101EB00006F984ED1B0AD4ED1C0A9FED5C8A60EEE6
:101EC000880ADFED5B8A40EE280AC4ED1C0A94ED17
:101ED000150AD4ED160A20EE000A00EEA00A08F05A
:101EE000EEF884ED190AD4ED1A0A00E031E060EE54
:101EF000880A40EE280AC4ED1A0A94ED0F0AD4EDC0
:101F0000100A20EE000A00EEA00A08F0D8F884EDCE
:101F10001D0AD4ED1E0A60EE880A40EE280AC4EDC0
:101F20001E0AD5ED0C0A9FED431A80EE810AD4ED0E
:101F3000230A30EE200A84ED230A03F099FF84ED92
:101F4000230A04F14C00B0EE402A90EC040A04F09D
:101F500043FB394894ED1F0A542180ED000A94EDAB
:101F60000F0A80ED010A94ED200A80ED020A94ED3B
:101F7000100A80ED030A94ED0B0A80ED040A94ED3B
:101F80000C0A80ED050A94ED230A80ED060A95ED12
:101F90000C0A80ED070A94ED090A80ED080A94ED19
:101FA0000A0A80ED090A94ED130A80ED0A0A94EDFD
:101FB000140A80ED0B0A94ED0D0A80ED0C0A94EDE5
:101FC0000E0A80ED0D0A94ED150A80ED0E0A94EDCF
:101FD000160A80ED0F0A94ED1B0A80ED100A94EDAD
:101FE0001C0A80ED110A94ED190A80ED120A94ED95
:101FF0001A0A80ED130ABDEC028BBDE8F041FFF731
:1020000047BA0000946D002008020020687000208C
:1020100080700020B4010020DB0FC940FA6184BA4F
:10202000ABAA2A3FFAED6B3A97C4713C3333333F86
:102030009A99993E00409C468403002070EEC10AA4
:10204000C0ED0A0A90ED011A61EE201AC0ED051AE2
:1020500090ED022A90ED0C1AD0ED002A31EE800AA4
:1020600022EE012A22EE222A80ED062A30EE020A12
:1020700080ED090AD0ED0D1AB4EEE10AF1EE10FA86
:1020800007DDF5EEC00AC0ED081AF1EE10FA0ED326
:1020900011E0D0ED0E1AB4EEE10AF1EE10FA0DD215
:1020A000F5EEC00AC0ED081AF1EE10FA03DD31EECC
:1020B000200A80ED0C0A90ED080A704780ED080AAE
:1020C000F5E700002DE9F043914600260F464A1E31
:1020D000804601253446314608F078FE18E000BFFE
:1020E00058F8261058F82500814209D16D1CBD42D0
:1020F0000ED1A81BA0420BD90446C9F8001007E076
:10210000A81BA04202D90446C9F800102E466D1C37
:10211000BD42E5D32046BDE8F083000008480949E8
:10212000006CB1FBF0F082B207485108C262416313
:102130008163C163016A40F25552114301627047E5
:102140009C02002000BD0105000001402DE9F04186
:102150002DED048BDFEDA98AA9480168A94CC1F3D4
:102160008011E1600268C2F3C0122261006852006F
:10217000C0F30020606102EB8000431884F82C302B
:1021800094F82D609FEDA08A2046A04FA049006BD7
:10219000A04A9E427DD1401C00EE100A2063F8EE5A
:1021A000400A94ED0D0AB8EE400A9FED9B1A20EE0E
:1021B000010AF4EEC00AF1EE10FA6BDD94ED110A9B
:1021C000B5EEC00AF1EE10FA02D24FF0FF3507E08B
:1021D000B5EEC00AF1EE10FA01DD012500E00025A0
:1021E00000EE105AB8EEC00A60EE080A00EE100ABF
:1021F000B8EE400A80EE801A84ED111A985C401EF9
:10220000012879D001EB800107EB800091ED000AF5
:10221000D0ED000A30EE200AF6EE000A20EE200A89
:1022200084ED0E0A7D4884ED100AB7EE000AD0ED69
:10223000040A94ED121A7A4D30EE600A20EE010A7B
:1022400094ED111A00EE810A84ED120AD5ED0F0A01
:10225000F8EE600A20EE200A9FED728A20EE080A4E
:10226000DFED710A80EE201A84ED131A94ED100A46
:1022700003F0FEFDB0EE409A07F0F0FBF0EE408A6E
:10228000B0EE490A07F016FEF0EE680A05F5B470E4
:1022900001E054E035E003F075FF05F5B470A0F5FA
:1022A000047190ED0A0A81ED230AD0ED080AC5ED0C
:1022B0000B0A90ED090A20EE881A85ED0C0A60EEF3
:1022C000080A5A4885ED091AC5ED0A0A007F00EE92
:1022D000100AB8EE400AC1EE001A00EE100AB8EE7D
:1022E000400A80EE801AC5ED0D1A85ED0E1ABDEC80
:1022F000048BBDE8F081FFE7C4ED0E8AB0EE680AFA
:1023000090E794ED100AD4ED120A30EE200A84ED25
:10231000100A94ED0E1A71EE080A31EE481AB4EE66
:10232000C10AF1EE10FA02D2B0EE410A7AE7B4EE39
:10233000E00AF1EE10FAE3DDB0EE600A72E76063E6
:102340009D5CB05C6D1E401E01EB850601EB8000BC
:1023500096ED000AD0ED000A30EE600A03F088FD29
:1023600010EE100A324984ED0F0A88421CDD07EB9B
:10237000850090ED000A84ED0E0A206B88B394ED81
:10238000110AB5EEC00AF1EE10FA02DB9FED290A40
:1023900019E000EE100ADFED280AB8EE400A80EEE0
:1023A000801A84ED111A1FE096ED000A84ED0E0AE2
:1023B000206BB0B194ED110AB5EEC00AF1EE10FA3F
:1023C00006D89FED1E0A84ED110A84ED120A0BE077
:1023D00000EE100AB8EE400AC8EE000AC4ED110A79
:1023E00002E0FFE7C4ED118A94F82C0084F82D0078
:1023F0000020206394ED0E0A14E7000000000000A6
:1024000010080240F06F0020920A863F2803002047
:1024100010030020FF0200206666863FCC010020EA
:10242000946D002000007042DB0FC94008020020BC
:10243000DB0F4940BD3786B5920A86BFBD3786356A
:102440002DE9F04F00252DED048BC7B0F0EE409A3A
:102450009FEDF09AB0EE491A8DED1A1A8DED191A0A
:10246000B0EE418AF0EE418A03F0E8F9DFF8A8A364
:10247000DAF8201040F255521143CAF82010E74C08
:1024800037E0E748E549303190EC030A081FFFF7D1
:1024900015F8E249D4ED0C0A403194ED0B0AB0EE88
:1024A000491A081F03F0BEFEB0EE491A19A91AA86E
:1024B000F0EE680AB0EE480A03F018F9B0EE492AC7
:1024C000F0EE681AB0EE481ADDED190A9DED1A0A11
:1024D00004F082F89FEDD30A38EE008A18EE100A55
:1024E000B0F17E5F02DDB7EE008A09E0012007F05F
:1024F0008DFF94ED0F0AB4EEE90AF1EE10FAC0D3A5
:102500004FF47A7007F082FF02F074FFDFF818834F
:10251000D8F80010C54CC1F38011E160D8F8002054
:10252000C2F3C0122261D8F800005200C0F30020AC
:10253000606102EB8000084484F82C0084F82D00D0
:1025400060216846FEF732F8602120A8FEF72EF8D9
:1025500000273E464FF4347BC1469FEDB59A4FF0BD
:102560003C0800BF00EE106A19A91AA8B8EEC00A0C
:10257000F0EE680A80EE091AB0EE480A03F0B6F8E9
:1025800000EE106AF0EE681AB0EE481AB8EEC00A13
:10259000DDED190A80EE092A9DED1A0A04F01CF8F7
:1025A000022007F033FFD9F80010C1F38012E26077
:1025B000D9F80010C1F3C0112161D9F80000490019
:1025C000C0F30020606101EB8000104484F82C000F
:1025D00094F82D10814211D04FF4B47396FBF3FCA4
:1025E000B9B284F82D006A462DF8110002EB4102C1
:1025F00003FB1C63491C138661F30F0796FBF8F27B
:1026000008FB126119B996FBF8F21CA98854761CD4
:1026100036B25E45A6DB642007F0F8FECB4640F2FA
:10262000CF260DF5847900BF00EE106A19A91AA80B
:10263000B8EEC00AF0EE680A80EE091AB0EE480A59
:1026400003F054F800EE106AF0EE681AB0EE481A83
:10265000B8EEC00ADDED190A80EE092A9DED1A0ACE
:1026600003F0BAFF022007F0D1FEDBF80010C1F33F
:102670008011E160DBF80020C2F3C0122261DBF8B8
:1026800000005200C0F30020606102EB80000844AB
:1026900084F82C0094F82D10814211D04FF4B473BB
:1026A00096FBF3FC390C20AA84F82D0022F81100C7
:1026B00002EB410203FB1C63491C138661F31F47B5
:1026C000414696FBF1F208FB12621AB996FBF8F24A
:1026D00009F80200761E36B2002EA5DA002049461F
:1026E0001CAC2318225C9B799A4201D045F480757A
:1026F0000E180B5CB679B34201D045F480759A424E
:1027000001D045F48075401CC0B20528E9D39DBBBB
:10271000DDE91C01CDE93C0106213CA807F0D1FD13
:10272000DFF8109106214E46D9F800003E90B9F826
:102730000400ADF8FC003EA807F0C3FDD6F8060083
:1027400040907089ADF80401062140A807F0B9FD5A
:1027500005223EA93CA8FDF77EFEDFF8DCB0374F2E
:10276000DFF8DC804FF40076A8B1052240A93CA830
:10277000FDF771FE70B37500DAF8201040F2555283
:102780009143CAF8201003F051F847B02846BDEC39
:10279000048BBDE8F08F9BF80000032110B10128E5
:1027A00005D00BE03878032808D0397005E098F898
:1027B0000020032A02D088F8001035461D49002069
:1027C0004A460B31135C265C401CC0B27354062889
:1027D000F8D3D1E79BF80000042110B1012805D0FF
:1027E0000BE03878042808D0397005E098F800200C
:1027F000042A02D088F8001035460E4A0020921DA7
:1028000002F10C01135C265C401CC0B28B550628FB
:10281000F8D3B1E70000000000000140EC6C00209C
:10282000807000206F12833A10080240F06F002081
:10283000E12E6542F4020020C80100209C02002025
:102840000802002070B590F83C20694D012A19D08B
:10285000012280F83C200A6807230468092A13D95A
:10286000E6680A3A02EB420293409E43E6600A7829
:102870008B680A3A02EB420293400268D468234311
:10288000D36010E0022070BD266902EB4202934043
:102890009E4326610A788B6802EB420293400268ED
:1028A0001469234313610268936B23F44013936309
:1028B0000268936B0C8A4F4E06EB045423439363D8
:1028C0000A790B7CD21AD21C02EB82021F2393409E
:1028D0000268946B9C4394630A790B7CD21AD21CD5
:1028E00002EB82030A8892B29A4003689C6B2243EF
:1028F0009A638A69AA420268936823F470239360FA
:10290000026893680CD08C692343936002689368D3
:1029100023F44013936002689368CC69234301E079
:1029200023F4401393604A7D002A0268536802D062
:1029300043F4806301E023F4806353600A7D002A3E
:102940000268536802D043F4805301E023F48053BB
:1029500053604A68012A16D0022A1FD0032A02684F
:1029600027D0136A6FF30B0313620268136ACC68F3
:1029700023431362214B04681F4A9C4227D10C68F1
:10298000122C20D023E0026853696FF30B035361CC
:1029900002685369CC6823435361EBE7026893698B
:1029A0006FF30B03936102689369CC6823439361CF
:1029B000E0E7D3696FF30B03D3610268D369CC6896
:1029C0002343D361D6E7546844F480045460046818
:1029D0009C4208D10968102901D0112903D15168FE
:1029E00041F400015160002180F83C10084670BDA0
:1029F00001000F000000F0FF002301400020014013
:102A000018B50022009290F83C10012907D001214E
:102A100080F83C1001688B68DB0702D011E00220CF
:102A200018BD8B6843F001038B602A492A4B096863
:102A3000B1FBF3F101EB410100E0491E00910029D7
:102A4000FBD101688B68DB073AD0036C42F20104CA
:102A5000A34343F480530364036CDB0500D4426456
:102A600080F83C206FF004020A6001684A6842F076
:102A700080024A60194949680068C906816801F402
:102A800040110FD0D1B100224168154B41F3802194
:102A9000491C98421CD1DAB1D1B1816841F480015E
:102AA000816015E041B10021426842F38022521C4E
:102AB00071B1002AF1D10BE00121F5E70122E3E732
:102AC000016C41F010010164416C41F0010141646D
:102AD000002018BD9C00002040420F000023014050
:102AE0000020014010B590F83C20012A1FD001229F
:102AF00000F83C2F0F4A536823F01F0353605368BC
:102B00000C6823435360536823F440435360536875
:102B10004C6823435360536823F4706353605368D5
:102B200089680B43536000210170084610BD0220E4
:102B300010BD00000023014078B50024009490F8F7
:102B40003C20012A19D0012280F83C200A68072382
:102B50000568092A13D9EE680A3A02EB420293404B
:102B60009E43EE600B788A680A3B03EB43039A406E
:102B70000368DD682A43DA6010E0022078BD2E6920
:102B800002EB420293409E432E610B788A6803EB6E
:102B900043039A4003681D692A431A614A681F2348
:102BA000072A13D205686E6B521E02EB8202934015
:102BB0009E436E630B790A885B1E92B203EB83031C
:102BC0009A4003685D6B2A435A6327E005680D2A23
:102BD00012D22E6BD21F02EB820293409E432E63D1
:102BE0000B790A88DB1F92B203EB83039A400368D8
:102BF0001D6B2A431A6311E0EE6A0D3A02EB820262
:102C000093409E43EE620B790A880D3B92B203EB30
:102C100083039A400368DD6A2A43DA62164B05682B
:102C2000144A9D4206D10D68122D03D1556845F412
:102C30008005556005689D4218D10B68102B01D0A6
:102C4000112B13D1536843F4000353600968102912
:102C50000CD10A490A4A0968B1FBF2F101EB810182
:102C6000490000E0491E00910029FBD180F83C405A
:102C7000002078BD00230140002001409C0000207E
:102C800040420F0070477047704770B504004FF026
:102C9000000503D0206C002610B107E0012070BDB4
:102CA000204600F01DF8666484F83C60206CC00685
:102CB00010D4206C20F4885040F00200206420469C
:102CC000FDF794FE6664206C20F0020040F00100E5
:102CD000206400E0012584F83C60284670BD0000B7
:102CE000F0B587B0064614216846FDF75FFC5648EC
:102CF000DFF850C133680024534914380325534A80
:102D0000534F634521D10B6843F480730B6009680E
:102D100001F480710591016841F0040101600168CE
:102D200001F004010591016841F0010101600068B2
:102D3000694600F0010005900920CDE900050294E4
:102D4000104600F03BFB012024E0DFF808C163459A
:102D500031D10B6843F400730B60096801F4007112
:102D60000591016841F004010160016801F004016E
:102D70000591016841F0010101600068694600F0B9
:102D8000010005900A20CDE900050294104600F0EC
:102D900015FB0220CDE9000569460294384600F093
:102DA0000DFB00220521122000F092FC122000F001
:102DB00081FC07B0F0BDDFF8A0C06345F9D10B6816
:102DC00043F480630B60096801F480610591016838
:102DD00041F004010160016801F0040105910168FE
:102DE00041F0010101600068694600F001000590B2
:102DF0000C20CDE900050294104600F0DFFA042013
:102E0000CDE9000569460294384600F0D7FA144D22
:102E1000124828608005C5E901040014C5E9034093
:102E2000400068618000A8614011C5E90704284698
:102E30006C6200F00FFA08B1FEF7BAFEB563AE633C
:102E4000AFE7000000200140443802400008024083
:102E500000000240002101400022014010640240B5
:102E6000A805002018B50021009190F83C20012A07
:102E700007D0012280F83C2002689368DB0702D06B
:102E800011E0022018BD936843F0010393602E4ABD
:102E90002E4B1268B2FBF3F202EB420200E0521E2C
:102EA0000092002AFBD102689368DB0742D0036CD2
:102EB00040F20164A34343F48073036453685B05E9
:102EC00005D5036C23F4005343F480530364036C6F
:102ED000DB0404D5436C23F00603436400E0416443
:102EE00080F83C101A496FF02203136049680068AB
:102EF000CA06184906D0884224D1816811F0405F83
:102F000013D01FE08842F8D0134A904203D1D1F881
:102F10000423D206F1D0114A904213D1D1F8041300
:102F200001F01F011029E8D30CE0816841F08041D5
:102F3000816007E0016C41F010010164416C41F0D7
:102F400001014164002018BD9C00002040420F0098
:102F500000230140002001400021014000220140E7
:102F6000F8B5044600200E46009094F83C10012964
:102F700007D0012184F83C1021688B68DB0702D060
:102F800011E00220F8BD8B6843F001038B604049DB
:102F9000404B0968B1FBF3F101EB410100E0491E30
:102FA00000910029FBD121688B68DB0503D58B6874
:102FB00023F480738B6021688B68DB075DD0236C02
:102FC00040F20165AB4343F48073236449684905CB
:102FD00005D5216C21F4005141F480512164216C0C
:102FE000C90404D5616C21F00601616400E06064ED
:102FF00084F83C00A16B2948274DC863A16B284881
:103000000864A16B2748C86421686FF0220008603B
:103010002068416841F0806141602068816841F426
:10302000807181602168134632464C31A06B00F0FC
:103030007BF968681C49C006206806D0884224D104
:10304000816811F0405F13D01FE08842F8D0174A22
:10305000904203D1D1F80423D206F1D0144A904211
:1030600013D1D1F8041301F01F011029E8D30CE0AB
:10307000816841F08041816007E0206C40F01000E1
:103080002064606C40F0010060640020F8BD000026
:103090009C00002040420F0000230140210700084F
:1030A000A50700088F07000800200140002101400B
:1030B000002201402DE9F84304464FF00009CDF805
:1030C000009063484FF41651A56D0068B0FBF1F70E
:1030D0002E6894F85C10082000FA01F131420FD0FC
:1030E00021680A6852070BD50A6822F004020A60B8
:1030F00094F85C108840A860606D40F00100606545
:1031000094F85C104FF0010808FA01F0304208D042
:1031100021684969090604D5A860606D40F0020085
:10312000606594F85C1004208840304208D0216823
:103130000968890704D5A860606D40F004006065E7
:1031400094F85C1010208840304218D0216809683B
:10315000090714D5A86020680168490304D50068F0
:10316000000308D5A16C07E00168C90503D4016814
:1031700021F008010160216C09B12046884794F8CC
:103180005C1020208840304231D021680968C9068F
:103190002DD5A86094F8350005282068016806D070
:1031A000490347D5006800031DD4616C1CE021F081
:1031B000160101602068416921F080014161206CA5
:1031C00008B9A06C20B12068016821F008010160F5
:1031D00094F85C103F208840A86084F8358084F81B
:1031E0003490216D1FE0E16B09B120468847606D86
:1031F00000282BD0606DC00714D0052084F835005E
:103200002068016821F0010101600098401C0090D5
:10321000B84203D820680068C007F6D184F835802A
:1032200084F83490E16C002910D001B02046BDE84C
:10323000F04308470168C905D5D4016821F01001A1
:10324000016084F8358084F83490CCE7BDE8F883D9
:103250009C0000202DE9F041044600F0ADF906463F
:103260005CB1022084F83500002584F834502068D1
:10327000016821F0010101600DE00120BDE8F0814D
:1032800000F09AF9801B052805D9202060650320ED
:1032900084F83500F2E720680068C007F0D12268A2
:1032A000116820480140D4E901031843D4E90336EA
:1032B0003343184363691843A3691843E369184308
:1032C000236A18430843616A042903D1D4E90B1324
:1032D00019430843106020684069666A20F00701BE
:1032E00030460E43012704280CD1A06A0643E06A49
:1032F00040B12046FEF732F920B14020606584F8E5
:103300003570BAE7206846612046FEF713F994F855
:103310005C203F2191408160656584F83570002014
:10332000ACE700003F8010F02DE9F0410446866DC7
:1033300090F83400002501280DD0012084F83400D5
:1033400094F835700020012F07D084F8340002254E
:103350002846BDE8F0810220FBE7022784F835709B
:1033600060652046FEF724F994F85C103F20884001
:10337000B0602068016841F016010160206C20B146
:103380002068016841F0080101602068016841F08F
:1033900001010160DCE7000070B5044600F00CF9A3
:1033A0000546601C02D004480078044400F004F98B
:1033B000401BA042FAD370BD900000202DE9F84FC9
:1033C000DFF8BCA10022012503264FF00F090AF106
:1033D000040BAAF1040E00BF0B6805FA02F42340A7
:1033E000A34270D10F7907F00307012F01D0022FFC
:1033F00016D187684FEA420806FA08FC27EA0C074C
:10340000D1F80CC00CFA08FC4CEA070CC0F808C054
:103410004768A7430C79C4F3001494403C434460CC
:103420000C79E443A4070AD0C4684FEA420C06FAB8
:103430000CF7BC438F6807FA0CF72743C7600C7979
:1034400004F00304022C12D1D40800EB840CDCF845
:1034500020405707FF0E09FA07F824EA0804D1F8BC
:10346000108008FA07F848EA0408CCF820800468BD
:103470004FEA420C06FA0CF7BC430F7907F003073A
:1034800007FA0CF7274307604C6814F4403F70D0EC
:103490003C4C276847F480472760246822F00307E4
:1034A00004F480440094384C07EB040CDCF8084822
:1034B00097074FEA177809FA08F7BC43334FB84229
:1034C00002D1002724E054E0314FB84201D1012756
:1034D0001EE0304FB84201D1022719E02E4FB8420A
:1034E00001D1032714E02D4FB84201D104270FE08A
:1034F0002B4FB84201D105270AE02A4FB84201D12B
:10350000062705E0284FB84201D1072700E0082729
:1035100007FA08F72743CCF80878DAF8004057464E
:10352000D1F804C09C435FEACC2C00D51C433C601E
:10353000DBF800405F46D1F804C09C435FEA8C2C66
:1035400000D51C433C60DEF800407746D1F804C04B
:103550009C435FEA8C3C00D51C433C60084F083F0D
:103560003C68D1F804C09C435FEACC3C00D51C43C6
:103570003C60521C102AFFF42FAFBDE8F88F00000A
:10358000083C014044380240003001400000024045
:103590000004024000080240000C024000100240FB
:1035A0000014024000180240001C02400AB1816170
:1035B00070470904FBE7000001488068704700007D
:1035C00090000020024881680278114481607047B1
:1035D000900000200B4810B5016841F400710160B3
:1035E000016841F480610160016841F4807101600B
:1035F000032000F08DF80F2000F006F800F03EF8F0
:10360000002010BD003C024010B5014688B00022E9
:10361000372000F05DF8372000F04CF81348002404
:10362000016841F020010160006805A900F0200058
:103630000690684600F052FE00F076FE0C4940000D
:10364000B0FBF1F10C480B4A491E026040F2E73230
:10365000C0E90324C0E9011401F0E4F910B101202C
:1036600008B010BD044801F0FFFAF9E74038024005
:1036700040420F0000140040C80600200C4882B0F1
:10368000016841F480410160006800F480400090CE
:103690000748001F016841F0805101600068002266
:1036A00000F0805000900F21901E02B000F010B882
:1036B00044380240002809DB00F01F02012191403C
:1036C0004009800000F1E020C0F8001170470000C0
:1036D000F0B40E4B1B680C46C3F30223C3F107057D
:1036E000042D00D90425191D072901D2002300E06B
:1036F000DB1E012606FA05F1491E214099409E4035
:10370000761E16403143F0BC06F041B80CED00E0E7
:10371000064900F0070208684FF6FF03184040EA28
:103720000220034A10430860704700000CED00E0DF
:103730000000FA0570470068416200207047F0B54C
:103740000368586A39B19C6A4FF4827600EB1444DE
:1037500000204D1E0AE040EA024098620FE006EBAE
:103760008007DF59401C04EB1744C0B2A842F6D3CF
:1037700044EA02404FF4807202EB8101585000206D
:10378000F0BDD0F8080504F00BBC01EBC10200EB62
:103790008202D0F80805D26C04F060BB01EBC102D4
:1037A00000EB8202D0F80805D2F88C2204F0B1BBFD
:1037B000D0F8080504F0F6BB0A0601F00F0101EB92
:1037C000C10100EB810101D53C3101E001F51F7120
:1037D000006805F02BBB70B504460B0601F00F0026
:1037E00000EBC00104EB81014FF001024FF0000536
:1037F00003D581F83D203C3103E081F87D5201F58D
:103800001F71087094F8BC04012808D084F8BC2407
:10381000206804F0C5FF84F8BC54002070BD02206D
:1038200070BD70B5044601F00F006268904201D986
:10383000012070BD0B0601F00F0101EBC10104EB8B
:1038400081014FF001024FF0000503D581F83D20C2
:103850003C3103E081F87D5201F51F718D700870D5
:1038600094F8BC04012808D084F8BC24206805F032
:1038700093F984F8BC54002070BD022070BD01F0A3
:103880000F0101EBC10100EB8100D0F89C027047F1
:103890002DE9F04104460F0601F00F0000EBC001D6
:1038A00004EB81014FF001064FF0000503D581F8CC
:1038B0003D603C3103E081F87D5201F51F710870D5
:1038C000CA600B714A7802B10881022B00D14D7198
:1038D00094F8BC04012809D084F8BC64206804F082
:1038E000B7FE284684F8BC54BDE8F0810220FBE70F
:1038F00070B50C4601F00F0505EBC50100EB810129
:10390000C1F89432C1F88C220023C1F89C3281F8AE
:103910007D3281F87C52036901F51F71012B00D1C2
:103920004A612207027C006803D005F08DF900206F
:1039300070BD05F077F8FAE770B504460D4601F062
:103940000F006168884201D9012070BD29064FF03F
:1039500000064FF0010207D500EBC00104EB810126
:1039600081F83D203C3107E005EBC50104EB810106
:1039700081F87D6201F51F718A70087094F8BC04AB
:10398000012807D084F8BC24206805F031F9280705
:1039900002D007E0022070BD217C04F2C4422068FE
:1039A00005F0CEF884F8BC64002070BD70B50C46FC
:1039B00001F00F0505EBC50100EB81014B65CA6401
:1039C0000023CB65012381F83D3001F83C5F03699A
:1039D000012B00D14A612207027C006803D005F068
:1039E00033F9002070BD05F01DF8FAE72DE9FC5F02
:1039F00005680446284605F0BAFA00287DD12068FB
:103A000005F0E1FA002878D0D5F80808C0F30D20B9
:103A1000C4F8FC04206805F0D6FA800704D52068B5
:103A2000416901F002014161206805F0CCFAC1064C
:103A300004F2C440009034D52068816921F010015F
:103A400081612F6A07F00F0000EBC00004EB8006D5
:103A5000C7F3434006F51F76022802D0062811D08E
:103A60001AE047F6F070074216D0C7F30A1217465D
:103A70002846316905F0ABFA306938443061306A64
:103A8000384408E008222846009905F0A0FA306A78
:103A9000C7F30A11084430622068816941F01001BF
:103AA0008161206805F08FFA00034FF0080B4FF09A
:103AB000000A4FF001097CD50026206805F062FA63
:103AC000074674E0F80770D0F1B2206805F073FA89
:103AD0008046C00707D005EB4611C1F8089B314668
:103AE000204602F0E1F95FEA087024D505EB4611A3
:103AF000C1F808BB2068016C00E025E200EB46102D
:103B00000191D0F8082BFC4B994205D9110403D53B
:103B10004FF40041C0F8081B204600F005FBF649B1
:103B20000198884207D92069012804D12068012121
:103B3000009A05F005F85FEAC86004D505EB461168
:103B40001020C1F8080B5FEA88701DD5686900066F
:103B500005D5D5F8040840F48061C5F8041806EBD3
:103B6000C60004EB800090F87F1200F51F70012959
:103B700005D180F803A0F1B2204600F0EBF905EB87
:103B800046110220C1F8080B5FEA886004D505EBF6
:103B900046102021C0F8081B5FEA884005D505EBD8
:103BA00046104FF40051C0F8081B7F08761C002F08
:103BB00088D1206805F007FA40036FD5206805F02A
:103BC000DAF90746002667E0F80763D0F1B220680B
:103BD00005F0DFF98046C00723D006F00F0209FA8E
:103BE00002F0D5F834288243C5F8342805EB461096
:103BF000C0F80899206901280FD106EBC60004EB34
:103C00008000D0E912211144C16436B9606D20B939
:103C100020680121009A04F093FFF1B22046FFF7DB
:103C2000B4FD5FEA087003D505EB4611C1F808B989
:103C30005FEAC86004D505EB46111020C1F80809F9
:103C40005FEA486004D505EB46104021C0F808192A
:103C50005FEA887017D53146284605F05BF906EB18
:103C6000C60004EB800090F83F103C30012905D1DC
:103C700080F803A0F1B2204600F068F905EB461188
:103C80000220C1F808095FEA086003D531462046E2
:103C900002F070F97F08761C002F95D1206805F09E
:103CA00092F9002811DAD5F8040820F00101C5F8CE
:103CB000041894F8F40401282BD0204600F018FAD8
:103CC0002068416901F000414161206805F07BF9FD
:103CD00000050BD5D5F80808C00702D0204600F033
:103CE0004BFA2068416901F400614161206805F0E8
:103CF0006AF9C00466D5D5F8040820F00100C5F8BB
:103D000004081021206805F005F900214FF67F32E4
:103D10001FE084F8F4A400212046FFF70BFDCFE755
:103D200005EB4110C0F80829D0F8003923F400133E
:103D3000C0F80039C0F8082BD0F8003B23F400137A
:103D4000C0F8003BD0F8003B43F00063C0F8003BF4
:103D5000491C60688842E3D8D5F81C0840F001117E
:103D6000C5F81C18206B002828460DD0D0F8840810
:103D700040F00B01C5F88418D5F8440840F00B0159
:103D80002846C5F844180DE0D0F8140842F22B017B
:103D90000843C5F81408D5F8100840F00B01284670
:103DA000C5F81018D0F8000820F4FE61C5F8001816
:103DB000217C2068009A04F0C3FE2068416901F468
:103DC00080514161206805F0FEF8800415D5206817
:103DD00004F07EFC206805F0BDF8E06000F09EFA7B
:103DE0000146227B206805F051F9204600F06AF96F
:103DF0002068416901F400514161206805F0E3F851
:103E0000000707D5204600F077F92068416901F0E6
:103E100008014161206805F0D6F8000616D5A869AA
:103E200020F08000A86101260DE000BF06EBC6006F
:103E300004EB800090F87F02012803D1F1B2204604
:103E4000FFF7BAFC761C6068B042EFD8206805F036
:103E5000BAF8C00221D501264F4616E005EB461000
:103E6000D0F8001906EBC60004EB800090F8402063
:103E7000012A09D1002907DA80F83F70F0B240F03A
:103E800080012046FFF798FC761C6068B042E5D8B8
:103E90002068416901F480114161206805F093F8C0
:103EA000800234D501204B4629E000BF05EB4011CC
:103EB000D1F8001B00EBC00204EB820696F88022CA
:103EC000012A1BD1002919DA94F8FC2401F480316D
:103ED00002F00102914211D186F87F32A96941F0C6
:103EE0008002AA616969090608D4D5F8040840F47B
:103EF0000070C5F8040805E00A30544F401C6168A2
:103F00008142D3D82068416901F4001141612068E1
:103F100005F059F8400007D52046FFF732FC20682D
:103F2000416901F080414161206805F04CF840078B
:103F30000AD520684568680702D52046FFF738FC97
:103F40002068416829434160BDE8FC9FD0F808051E
:103F500004F07CB8D0F8080504F08CB82DE9F041E5
:103F60008AB0040005D094F8BD042668002520B16D
:103F700008E001200AB0BDE8F08184F8BC54204676
:103F800000F05EF8032084F8BD04F06BC00500D497
:103F90002561206804F040FD04F1100128228846C4
:103FA0006846FCF7C9FA94E80F0004F09FFB02266C
:103FB000C8BB0021206805F029F8002001270EE089
:103FC00000EBC00104EB810181F83D7001F83C0F6A
:103FD00008810D71CD600D61401CC0B28D616168BA
:103FE0008142EDD8002011E000EBC00104EB81011B
:103FF00081F87D5281F87C0281F88052C1F88852A4
:10400000C1F88C52401CC0B2C1F894526168814220
:10401000EAD8282241466846FCF78EFA94E80F0059
:1040200004F040FC10B184F8BD64A2E784F8385075
:1040300084F8BD74206804F027FC00209AE7000093
:1040400010B586B0044614216846FCF7AFFA206824
:10405000B0F1A04F2FD119480021026842F00102AF
:104060000260006800F0010005904FF4C05000901D
:104070000220CDE90101032003900A200490694643
:104080000F48FFF79BF90D48001D016841F08001C2
:1040900001600A481430016841F480410160006801
:1040A000002200F48040059005214320FFF710FB1B
:1040B0004320FFF7FFFA06B010BD00003038024081
:1040C0000000024070B50446C068012570B10228A6
:1040D00001D0FDF76DFD2946D4F8080504F038F845
:1040E000D4F80805BDE8704003F0EDBF0025F2E705
:1040F000D0F8080504F015B8D0F8080504F01BB88E
:1041000010B5044690F8BC0401280BD0012084F8B7
:10411000BC0484F83810206804F0A6FF002084F85E
:10412000BC0410BD022010BDD0F8082500F2C44127
:10413000104604F019B810B50446006894F8BC1491
:10414000012906D0012184F8BC14A16A012902D0FA
:1041500008E0022010BDA169012903D0816B41F460
:1041600080318163206804F0B0FE206804F07EFB9B
:10417000002084F8BC0410BD10B50446D0F8080532
:1041800004F034F82068D0F8001E41F00101C0F8B6
:10419000001E206A002804D00248016841F0060190
:1041A000016010BD10ED00E02DE9F0470E4605005E
:1041B00065D0DFF81481D8F80000F7B200F00700EE
:1041C000B04207D288F80070D8F8000000F007006D
:1041D000B04254D128683D4C810712D5400703D521
:1041E000206840F4E05020602878000703D520685C
:1041F00040F4604020602068A96820F0F000084387
:1042000020602878C0072DD0304968680839012817
:1042100012D0022813D0032811D009688907002979
:104220002DDA216821F0030101432160FFF7C4F971
:10423000814641F2883A0EE009688903EFE7096890
:104240008901ECE7FFF7B8F9A0EB0901514502D964
:104250000320BDE8F0872068696800F00C00B0EB2F
:10426000810FEFD1D8F80010404601F00701B142AC
:1042700007D90770006800F00700B04201D00120A4
:10428000E7E72878400705D52068E96820F4E05082
:10429000084320602878000706D52068296920F4A3
:1042A000604040EAC100206000F04EF82168084AF2
:1042B000C1F30311515CC840064908600648006814
:1042C000FFF7A2F90020C4E7003C02400838024092
:1042D00054C200089C000020940000200F220260BD
:1042E0000C4A136803F003034360136803F0F00300
:1042F0008360136803F4E053C36012684FF4E05323
:1043000003EAD20202610448006800F00700086076
:104310007047000008380240003C02400148006835
:10432000704700009C0000200448054900680968A7
:10433000044AC1F38221515CC84070479C000020B0
:104340000838024064C20008154810B5006810F033
:104350000C02144813D04110042A0FD0082A0ED1A1
:104360000F4C241F2268236802F03F025B0207D52E
:104370002068C0F38810A0FB010106E0084610BDCC
:104380002168C1F38811A1FB00010023FBF7ECFFBA
:104390002168C1F30141491C4900B0FBF1F010BD97
:1043A000083802400024F4002DE9F84F04006ED0D4
:1043B0002078DFF84C93C007A9F104054AD009F131
:1043C00004000168C1F38101012908D00068C0F32D
:1043D000810002280AD1D9F80000400206D52868D9
:1043E000800337D560680028E1D033E06068B0F51D
:1043F000803F10D0B0F5A02F286810D020F4803076
:104400002860286820F4802028606068A8B1FFF741
:10441000D3F806460DE0286840F48030F4E740F415
:1044200080202860F7E700BFFFF7C6F8801B6428EC
:1044300073D828688003F7D50CE0FFF7BDF806466F
:1044400005E000BFFFF7B8F8801B6428F0D82868A3
:104450008003F7D42078DFF8AC8280074FF0000AA1
:104460003ED5A748001D016811F00C0F08D0006868
:10447000C0F3810002280BD1D9F80000400207D414
:104480002868800716D5E068012800D112E033E1E2
:10449000E068B8B10120C8F80000FFF78DF80646C3
:1044A00005E000BFFFF788F8801B0228C0D8286805
:1044B0008007F7D52868216920F0F80040EAC1009C
:1044C00028600DE0C8F800A0FFF776F8064604E083
:1044D000FFF772F8801B02281FD828688007F7D4DE
:1044E0002078000722D5864F87486169703771B1FF
:1044F00001210160FFF760F8064604E0FFF75CF871
:10450000801B022809D838688007F7D50EE0C0F86C
:1045100000A0FFF751F8064605E082E0FFF74CF8EF
:10452000801B02287DD838688007F7D420784007A0
:1045300068D5DFF8CCB100270BF13C0BDBF80000AD
:10454000C0000BD4DBF8001041F08051CBF8001014
:10455000DBF80000012700F0805000906B4E3068BF
:10456000C00510D4306840F480703060FFF724F844
:10457000009005E0FFF720F80099401A022850D873
:104580003068C005F6D55E4EA0686C3601280FD0A5
:104590000528306810D020F001003060306820F02D
:1045A00004003060A068B8B1FFF706F800900FE093
:1045B000306840F00100F4E740F004003060F7E7B5
:1045C000FEF7FAFF0099411A41F28830814266D81D
:1045D00030688007F4D50EE0FEF7EEFF009007E0AC
:1045E000FEF7EAFF0099411A41F28830814256D81D
:1045F00030688007F4D42FB1DBF8001021F080512F
:10460000CBF80010A069C8B33D49091D0968C1F382
:10461000810102294AD00228504607D0C8F860001C
:1046200000E03CE0FEF7C8FF04463BE04746C8F820
:104630006000FEF7C1FF064605E000BFFEF7BCFFC5
:10464000801B02282BD828688001F7D4D4E9070101
:104650000843A16A2E4A490802EB0141626A41EA15
:104660008211084394F82C1040EA0161C9F8001047
:1046700001203866FEF7A0FF044606E03EE000BFDA
:10468000FEF79AFF001B022809D828688001F7D599
:1046900034E000BFFEF790FF001B022802D9032080
:1046A000BDE8F88F28688001F4D427E00128F7D00E
:1046B000D9F80000E26900F4800191421CD1226A1D
:1046C00000F03F01914217D147F6C071626A014084
:1046D000B1EB821F10D1A26A4FF0FF3300F44031DA
:1046E00003EB5202B1EB024F06D194F82C1000F00C
:1046F0007060B0EB016F01D00120D1E70020CFE75F
:104700000438024000004742800E474200700040DB
:104710000000FFFF70B5040009D0606A002540B1B9
:1047200025616561A56294F8510040B10CE001205B
:1047300070BD6068B0F5827FF4D0E561F2E784F87F
:104740005050204600F044F8022084F851002068C0
:10475000016821F040010160A088218900F4827085
:1047600001F404410843A18901F400610843217C5C
:1047700001F002010843217D01F001010843218B72
:1047800001F400710843217F01F03801084394F8D7
:10479000201001F080010843218D01F400510843ED
:1047A00021680860A069042101EA104094F82410EF
:1047B00001F010010843216848602068C16921F4B4
:1047C0000061C1616565012084F85100002070BD61
:1047D00030B587B0044614216846FBF7E7FE234D49
:1047E00022680021224802230324AA421BD1204A26
:1047F0001432156845F480551560126802F4805231
:104800000592026842F0010202600068CDE90214DC
:1048100000F001000590E020CDE9000305200490A0
:10482000694614481EE0144DAA421DD1104A1032A8
:10483000156845F400451560126802F400420592BF
:10484000026842F0040202600068CDE9021400F040
:10485000040005904FF4E050CDE9000306200490D9
:1048600069460648FEF7AAFD07B030BD003001409A
:104870003038024000000240003C00400008024086
:1048800010B590F83C20012A22D0012280F83C206B
:10489000CA688C6822F4407222434C6822F4806219
:1048A00022430C6822F4006222430C6922F48052F5
:1048B00022434C6922F400522243C969002322F4A6
:1048C00080420A4301684A6480F83C30002010BDF1
:1048D000022010BD70B590F83C20012A32D001248E
:1048E00080F83C40022280F83D2003685A689D68A9
:1048F00022F070060A6832435A60134B02689A42EB
:1049000014D0B2F1804F11D0104B9A420ED0104B00
:104910009A420BD00F4B9A4208D00F4B9A4205D0C7
:104920000E4B9A4202D00E4B9A4204D1496825F0B0
:1049300080031943916080F83D40002180F83C10CD
:10494000084670BD022070BD000001400004004018
:1049500000080040000C00400004014000400140FD
:104960000018004010B50446022249B104290ED0B7
:10497000082913D094F84500012816D0012010BD55
:1049800094F842000128F9D184F842200FE094F80D
:1049900043000128F2D184F8432008E094F8440051
:1049A0000128EBD184F8442001E084F8452004225A
:1049B000206802F0CCFC2068416C41F40041416465
:1049C00011492068884214D0B0F1804F11D00F49AE
:1049D00088420ED00E4988420BD00E49884208D03A
:1049E0000D49884205D00D49884202D00C498842C1
:1049F00004D1816801F00701062903D0016841F064
:104A000001010160002010BD0000014000040040D1
:104A100000080040000C004000040140004001403C
:104A20000018004010B5040003D094F83D0010B108
:104A300007E0012010BD002084F83C00204600F073
:104A40001FF8022084F83D00211D206802F00EFCB2
:104A5000012084F8460084F83E0084F83F0084F882
:104A6000400084F8410084F8420084F8430084F850
:104A7000440084F8450084F83D00002010BD00008B
:104A80002DE9F04F87B0064614216846FBF78EFDEE
:104A90004E4833680024834217D14D48016841F0E5
:104AA000010101600068002200F00100059005216D
:104AB0001920FEF70DFE1920FEF7FCFD002205214E
:104AC0001A20FEF705FE1A2027E04148404A414DD2
:104AD000001F143A0221AB4224D1036843F00203C1
:104AE0000360006800F002000590106840F00400C8
:104AF0001060106800F0040005904FF4E0708DE83D
:104B00001300CDE9034169463348FEF757FC002204
:104B100005211D20FEF7DCFD1D20FEF7CBFD07B0B3
:104B2000BDE8F08F2D4DAB42F9D1036843F004038B
:104B30000360006800F004000590106840F0020077
:104B40001060106800F00200059040208DE813000E
:104B5000CDE9034169462248FEF730FC224D214849
:104B600005F10C0387052860C5E901744FF48068DE
:104B70004FF400694FF4005A4FF4807B83E8100F24
:104B80002C6228466C62FEF765FB08B1FDF710F851
:104B90007562AE63154D134805F10C01483028606D
:104BA000C5E9017481E8100F2C6228466C62FEF79B
:104BB00051FB08B1FCF7FCFFB562002205211E2065
:104BC000AE63FEF785FD1E20A7E700000000014050
:104BD0004438024000040040000802400008004041
:104BE0000004024010600240080600206806002011
:104BF00090F83D10012901D001207047022180F872
:104C00003D1000681149884214D0B0F1804F11D096
:104C10000F4988420ED00F4988420BD00E49884276
:104C200008D00E49884205D00D49884202D00D496E
:104C3000884204D1816801F00701062903D0016888
:104C400041F00101016000207047000000000140B8
:104C50000004004000080040000C00400004014037
:104C6000004001400018004090F83D10012901D09B
:104C700001207047022180F83D100168CA6842F0A7
:104C80000102CA6000681149884214D0B0F1804F17
:104C900011D00F4988420ED00E4988420BD00E49E0
:104CA000884208D00D49884205D00D49884202D07B
:104CB0000C49884204D1816801F00701062903D01C
:104CC000016841F0010101600020704700000140CF
:104CD0000004004000080040000C004000040140B7
:104CE000004001400018004070B5044690F83C00B8
:104CF0000025012817D0012684F83C60022084F8A2
:104D00003D002068826822F0770222F47F428260B0
:104D10000868502838D00DDC20284FD005DC90B32F
:104D2000102811D14AE0022070BD302846D040281A
:104D30000AD13BE060282FD070280DD0B0F5805FFD
:104D400003D0B0F5005F12D0012584F83D6000204B
:104D500084F83C00284670BDCB68D1E90121206869
:104D600002F002FB2068816841F0770109E0CB681E
:104D7000D1E90121206802F0F7FA2068816841F446
:104D800080418160E1E719E0CA684968206802F063
:104D900005FC5021206806E0CA684968206802F0D6
:104DA0000EFC6021206802F0E9FACEE7CA68496883
:104DB000206802F0F3FB40212068F4E722680146F6
:104DC0001046F0E770B586B0044614216846FBF73C
:104DD000EDFB18492068884229D117480024016852
:104DE00041F002010160016801F0020105910168D2
:104DF00041F0010101600068022500F0010005900A
:104E00004FF460400090CDE901540126CDE90346FE
:104E100069460A48FEF7D2FA4FF4E0600090CDE907
:104E20000154CDE9034669460548FEF7C7FA06B0C6
:104E300070BD000000000140303802400004024014
:104E40000000024070B5044690F83C0000260D4674
:104E500001280FD0012084F83C006AB1042A1DD03B
:104E6000082A2FD00C2A3FD00126002084F83C00CD
:104E7000304670BD022070BD206802F087FA2068BD
:104E8000816941F0080181612068816921F0040194
:104E90008161206881692A69114311E0206802F06C
:104EA000A5FA2068816941F4006181612068816907
:104EB00021F480618161206881692A6941EA0221C7
:104EC0008161D2E7206802F0C7FA2068C16941F029
:104ED0000801C1612068C16921F00401C161206835
:104EE000C1692A69114311E0206802F0E9FA2068DB
:104EF000C16941F40061C1612068C16921F4806128
:104F0000C1612068C1692A6941EA0221C161ACE737
:104F100010B5040003D094F83D0010B107E0012063
:104F200010BD002084F83C00204600F01EF802204E
:104F300084F83D00211D206802F098F9012084F8D2
:104F4000460084F83E0084F83F0084F8400084F86E
:104F5000410084F8420084F8430084F8440084F857
:104F6000450084F83D00002010BD704710B5044690
:104F7000022249B104290ED0082913D094F8410027
:104F8000012816D0012010BD94F83E000128F9D167
:104F900084F83E200FE094F83F000128F2D184F815
:104FA0003F2008E094F840000128EBD184F840202D
:104FB00001E084F841200122206802F0BBF9164983
:104FC0002068164A884201D0904203D1436C43F4D2
:104FD000004343642068884213D0B0F1804F10D062
:104FE0000F4988420DD00F4988420AD00E498842A5
:104FF00007D0904205D00D49884202D00C49884222
:1050000004D1816801F00701062903D0016841F04D
:1050100001010160002010BD0000014000040140BA
:105020000004004000080040000C00400040014027
:105030000018004070B5044690F83C00012812D0DA
:10504000012584F83C50022084F83D00204602F0FF
:105050005FFA01004FF0000007D084F83D5084F85B
:105060003C00012070BD022070BD2168CA6822F09A
:105070004002CA602168CA6822F48042CA6084F88B
:105080003D5084F83C00002070BD000070B5694DB3
:1050900069482DED028B2988C06BB1EB500F01D907
:1050A000410829800904C90BB0FBF1F1614C1034AF
:1050B0002068401C206081427DD800262660D5ED06
:1050C000010A94ED020A5C4860EE800AA838F1EE0D
:1050D000402AC0ED150AC4ED022AD4ED031AF6EEFB
:1050E000000AC4ED041A90ED0B1AF5EEC02A84ED07
:1050F000031A31EE213A94ED050A31EE611A84ED7E
:10510000060A90ED0C2A23EE203A21EE201A84EDB7
:10511000052A84ED073A84ED081A32EE001A32EEC1
:10512000400A21EE201A20EE200A84ED091A84EDAF
:105130000A0A90ED0F0AB0EEC00AF1EE10FA02DD95
:1051400084ED0B0A01E084ED0C0A94ED140A04F0DE
:1051500085FCD4ED020A94ED0A1A60EE810A20EE75
:10516000208A94ED140A04F0A5FED4ED020A94ED11
:10517000081A60EE810A00EEC08A84ED118A94ED6F
:105180000E0A288868EE000A00EE100AB8EE400AFF
:1051900080EE801A94ED0F0A31EE000A84ED0F0ABA
:1051A000D4ED0D0A08EE200A00EE900AF8EE600A2F
:1051B00084ED100A00E03AE020EE201ADFED1F1A1D
:1051C000C1EE210ADFED1E1AC4ED120A94ED131A86
:1051D00021EE211ADFED1B1A00EEA11A84ED131A3D
:1051E000D4ED140A30EE800A84ED140AD4ED0B0AD3
:1051F00094ED0C1AF4EEC10AF1EE10FA12D269889D
:1052000048434FF47A7190FBF1F26068411C616091
:10521000824208D26660DFED0C0A30EE200A84ED8F
:10522000140A00E0666000F023FE84ED140ABDEC71
:10523000028B70BD34020020946D0020DB0FC9404A
:10524000643B7F3FA69B443BDB0F49401A494A78A9
:105250001A49012A91ED011AD1ED020A91ED000AD5
:10526000174907D0072815D2DFE800F0140C120CFC
:105270000F0F120007280DD2DFE800F00C040A0A15
:105280000704070081ED2C0A04E0C1ED2C0A01E0BF
:1052900081ED2C1A0B48F7EE000A91ED2D1A90EDD6
:1052A000030A70EEC00A60EE810A91ED2C1A40EEFE
:1052B000010AC1ED2D0A7047C8010020807000204E
:1052C0002C6F0020CC01002002461348134BB0F88D
:1052D000BE105B78B0F8BC00012B07D0072A19D2AA
:1052E000DFE802F018100C0E14121600072A11D273
:1052F000DFE802F010060E040A080C0000F0DCBA29
:1053000000F0B6BA00F0A2BA00F0FABA00F0E6BABD
:1053100000F0C0BA704700002C6F0020C8010020C8
:105320001A494A781A49012A91ED011AD1ED020A67
:1053300091ED000A174907D0072815D2DFE800F0E1
:10534000140F0C0C120F120007280DD2DFE800F02A
:105350000C0A070A04040700C1ED2C0A04E081EDE1
:105360002C1A01E081ED2C0A0B48F7EE000A91EDB2
:105370002D1A90ED030A70EEC00A60EE810A91EDDD
:105380002C1A40EE010AC1ED2D0A7047C801002019
:10539000807000202C6F0020CC01002002461348B2
:1053A000134BB0F8BE105B78B0F8BC00012B07D0EF
:1053B000072A19D2DFE802F018100C0E141216009A
:1053C000072A11D2DFE802F0100E0A0C06040800CA
:1053D00000F096BA00F082BA00F05CBA00F06CBA45
:1053E00000F046BA00F032BA704700002C6F00207F
:1053F000C801002010B554210348FBF7D7F8BDE8D9
:105400001040012003F0DEBEF06F0020FEE7000038
:1054100010B5072003F0C2FE1548F7EE000A164942
:10542000006C144A00EE100AB1FBF0F1B8EE400A2D
:1054300042F8B80F114889B280EE801A918080ED51
:10544000011A0F48026A40F255539A4302620268F9
:1054500022F080020260826940F608039A4382616A
:10546000C26922F00802C261C1620121016410BD5B
:105470009C0200202C6F002000BD0105B40100201B
:105480000000014010B55148514900222DED048B18
:10549000F7EE000A42774A70806A4E4A00EE100A20
:1054A000B2FBF0F2B8EE400AC8634B4892B280EE0D
:1054B000801AA1F8402080ED011A4848016A40F2A4
:1054C000555399430162016841F08001016081698F
:1054D00040F6080319438161C16941F00801C161C7
:1054E000C262012101649FED3E8ADFED3E8A3E48A3
:1054F000F0EE480AB0EE680AFCF75CFB9FED3C9AC0
:105500003348BFEE003AF7EE002A9FED382AF0EE5E
:10551000491AB0EE681AF7EE000AB0EE480A4830B1
:1055200000F079FD2A48BFEE003AF7EE002A9FED21
:10553000312AF0EE491A9FED301AF7EE000AB0EE6C
:10554000480A843000F067FDDFED2D0A2048BBEEED
:10555000003AF3EE002A9FED292AF0EE481AB0EE49
:10556000601A9FED280AC03000F055FD18489FEDE5
:10557000263ADFED262A9FED262AF0EE491A9FED06
:10558000251ADFED250A9FED250AFC3000F043FDCA
:105590009FED239AF0EE481AB0EE681AF0EE490A31
:1055A000B0EE490A1F4800F0B3FDF0EE481AB0EE25
:1055B000681AF0EE490AB0EE490ABDEC048B1948AE
:1055C000BDE81040303000F0A3BD0000080200200C
:1055D000946D002000BD0105B401002000000140D1
:1055E00017B751380000C842746C00200000964381
:1055F000000000000080BB440000FA438FC2F53C6D
:105600000AD7233C17B751390080BBC50080BB4582
:1056100000606A4600409C4500007A446F12833A5D
:10562000CDCCCC3DCC6E00200648007828B10128B6
:1056300005D0052805D100F007B8FFF7E9BEFFF750
:1056400021BF7047B001002015490020F7EE000A85
:1056500008751448144A0068C86100EE100AB2FBCD
:10566000F0F2B8EE400A11480A8480EE801A80ED0C
:10567000011A0F48016A40F25552914301620168D4
:1056800041F080010160816940F6080211438161A7
:10569000C16941F00801C161012101647047000046
:1056A000146C0020E401002000BD0105B4010020BD
:1056B00000000140F0B500230A24302537261F469C
:1056C00011E000BFB4EB107F02D905EB107C01E0C4
:1056D00006EB107C01F813C001EB430C00015B1CCE
:1056E0008CF80170DBB29342ECD3F0BD70B50C4680
:1056F0002DED048BF0EE419AF0EE408A0546B0EEB7
:10570000608AB0EE690A04F0D5FBB0EE409AB0EEC4
:10571000690A04F0A3F9B0EE401A28EE810A08EEF7
:10572000490A85ED000A28EE890A08EE010A84ED8F
:10573000000ABDEC048B70BDF8B51E4C2078002823
:1057400029D094ED030AD4ED040A30EE200A84ED4A
:10575000030A00F08DFB184884ED030A2246017805
:1057600002F11800154E831E154D1432F0EE400A5A
:10577000032911D004290ED10090208996ED000A4A
:10578000401E81B2032001F0CBF9A08A6863E08A51
:10579000A863208BE863F8BD0090208996ED000A8D
:1057A000401E81B2012001F0BBF9A08A6863E08A43
:1057B000A863F8BD546C0020B0010020FC0100205B
:1057C000000001409FED171AF7EE001A10B520EE09
:1057D000011A81EE810A30EE801A80EE810AB5EE60
:1057E000C00AF1EE10FA02D29FED0F0A06E010EEA9
:1057F000103AB3F17E5F01DDB7EE000A00230EE040
:1058000001EB830494ED001A00EB83045B1CD4EDE0
:10581000000A31EE601A41EE000AC4ED000A93421C
:10582000EED310BDDB0FC940000000000022202194
:105830000148FDF7BBBE0000000402400122202108
:105840000148FDF7B3BE000000040240074AD062E1
:10585000516300209063D063106A40F055001062DD
:10586000106A20F4A0601062704700000000014040
:10587000074AD062516300209063D063106A40F2FF
:10588000055108431062106A20F050001062704702
:1058900000000140074AD062002050639163D0634A
:1058A000106A40F055001062106A20F4A060106287
:1058B0007047000000000140074AD062002050639A
:1058C0009163D063106A40F4AA601062106A20F0FD
:1058D000050010627047000000000140074AD062D6
:1058E000002050639063D163106A40F20551084371
:1058F0001062106A20F050001062704700000140F2
:10590000074AD062002050639063D163106A40F46C
:10591000AA601062106A20F0050010627047000053
:105920000000014070B590B000240D940E940C94CA
:10593000089409940A94202168460B94FAF736FEDD
:1059400032483149012501604FF480310561C0E9D9
:105950000114057680F820402D49C0E90A14C5617C
:10596000C46080F830504461FDF78FF908B172B619
:10597000FEE715200C900CA90E942448FDF7B2F810
:1059800008B172B6FEE70D20CDE9080508A90A9412
:105990001E48FDF7D1F808B172B6FEE70226CDE940
:1059A0000045F0040294CDE906408DF815400496B8
:1059B0008DF81440694615480394FCF743FF08B17D
:1059C00072B6FEE70A20CDE9000669460F48FCF7EB
:1059D00039FF08B172B6FEE70320CDE900506946F1
:1059E0000A48FCF72FFF08B172B6FEE70420CDE9A4
:1059F000006069460548FCF725FF002801D072B613
:105A0000FEE710B070BD000000200140D803002068
:105A10000100000F30B58DB00024089409940A9459
:105A2000202168460B94FAF7C1FD2A482849012530
:105A300001604FF480310561C0E90114057680F8FA
:105A40002040C561C46080F830504461FDF71DF905
:105A500008B172B6FEE70D20CDE9080508A90A9441
:105A60001C48FDF769F808B172B6FEE7009501958C
:105A700002258DF81540049502948DF8144069466E
:105A800014480394FCF7DEFE08B172B6FEE70B2063
:105A9000CDE9000569460F48FCF7D4FE08B172B69F
:105AA000FEE70320CDE9005069460A48FCF7CAFE2C
:105AB00008B172B6FEE70420CDE90040694605480A
:105AC000FCF7C0FE002801D072B6FEE70DB030BD75
:105AD000002101402004002070B58CB000240894FF
